:020000040800F2
:10000000882D0020490100087D3E0008FF380008C7
:10001000793E000863040008A745000800000000BE
:1000200000000000000000000000000089400008FF
:10003000B5060008000000007F3E00088D40000863
:100040006301000863010008630100086301000800
:1000500063010008630100086301000863010008F0
:1000600063010008630100086301000863010008E0
:1000700063010008630100086301000863010008D0
:1000800063010008630100086301000863010008C0
:1000900063010008630100086301000863010008B0
:1000A00063010008630100086301000863010008A0
:1000B0006301000863010008630100086301000890
:1000C0006301000863010008630100086301000880
:1000D00063010008E142000861430008B5430008DD
:1000E0006301000863010008630100086301000860
:1000F0006301000863010008630100086301000850
:10010000630100086301000863010008630100083F
:10011000630100086301000863010008630100082F
:10012000630100086301000863010008630100081F
:10013000DFF810D000F012F900480047E954000839
:10014000AFF30080882D002006488047064800470E
:10015000FEE7FEE7FEE7FEE7FEE7FEE7FEE7FEE777
:10016000FEE7FEE74D41000831010008202A04DBCC
:10017000203A21FA02F00021704721FA02F3D04020
:10018000C2F12002914008431946704740EA01033A
:100190009B0703D009E008C9121F08C0042AFAD23D
:1001A00003E011F8013B00F8013B521EF9D2704701
:1001B000D2B201E000F8012B491EFBD270470022A9
:1001C000F6E710B513460A4604461946FFF7F0FF56
:1001D000204610BD30B505462A460B4612F8010BE5
:1001E00013F8014B08B1A042F8D01CB1002802D08E
:1001F0006D1CF1E7284630BDCAB2401E10F8011F41
:100200008A4202D00029F9D100207047421C10F820
:10021000011B0029FBD1801A704710B5002200E0B5
:10022000521C835C8C5CA34201D1002BF8D1D8B264
:10023000E1B2401A10BD30B504460020034600E08C
:100240005B1C934203D2E05CCD5C401BF8D030BD18
:1002500030B505460020034600E05B1C934205D202
:10026000EC5CC85C201A01D1002CF6D130BD70B511
:10027000064604F0F5F9046805460A2200213046D6
:1002800000F033F82C6070BD2DE9F05F05460020CA
:1002900092469B4688460646814640241BE02846F7
:1002A000414647462246FFF761FF53465A46C01A69
:1002B000914110D311461846224600F061F82D1ADC
:1002C00067EB01084F4622460120002100F058F854
:1002D00017EB00094E41201EA4F10104DFDC484663
:1002E00031462A464346BDE8F09F2DE9F047914646
:1002F0000F4680460446002614F8015B2DB100F03D
:100300004FF80068405DC007F6D12B2D02D02D2D8F
:1003100018D0641E4A463946204600F045F827B1F9
:100320003968A14201D1C7F8008071054FF002047D
:100330000BD54042002803DD04F092F90460A007C9
:10034000BDE8F08746F48066E4E70028F8DA04F0B8
:1003500087F904606FF00040F2E70000064C074D9B
:1003600006E0E06840F0010394E807009847103485
:10037000AC42F6D3FFF7E0FE90710008B0710008C0
:10038000202A04DB203A00FA02F100207047914055
:10039000C2F1200320FA03F3194390407047000094
:1003A00000487047286500082DE9F05F8246007814
:1003B000002715468B460AF10104B946302801D0C2
:1003C0009DB113E014F8010B0127782803D05828B9
:1003D00001D045B10AE00DB1102D07D1002710253D
:1003E00014F8010B02E0082500E00A250026B046BB
:1003F0000EE005FB080005FB06F1012701EB1046A6
:100400001FFA80F8B6F5803F00D3B94614F8010B07
:10041000294600F018F80028EBDABBF1000F05D0F0
:100420000FB1641E00E05446CBF80040B9F1000F54
:1004300006D004F015F902210160C81EBDE8F09F46
:1004400048EA0640FAE73A2800D2303820F0200285
:10045000412A01D3A2F13700884201D34FF0FF3087
:10046000704700BFFEE700000748006840F080705A
:10047000054908600020054948600846006840F0CA
:100480000100086070470000FCED00E0001000E093
:100490000148406870470000001000E031B50024BA
:1004A000FFF7E2FF104800681049B0FBF1F0009937
:1004B00000FB01F500BFFFF7EBFF034611E0FFF77C
:1004C000E7FF02469A420CD09A4202D9D01A04445D
:1004D00003E0C3F1FF30104404441346AC4200D3A0
:1004E00000E0ECE700BF38BD0000002040420F00F4
:1004F00010B50848084908604FF4E1304860002111
:1005000005488160C160016181610C21416103F096
:10051000E9F810BD00380140B800002000B585B0F2
:1005200000BF0C48806940F020000A4988610846F5
:10053000806900F02000009000BF00BF40200190C3
:10054000012002900320049001A9034802F0DCFA84
:1005500005B000BD001002400014014010B5FFF7C7
:10056000DDFF01224021024802F076FC10BD0000B0
:10057000001401401FB54020009000200190012090
:1005800002906946014802F0BFFA1FBD0014014005
:100590001FB5402000900120019003200390694680
:1005A000014802F0B1FA1FBD0014014070B50025EA
:1005B000002424E000BF4021134802F045FC00283D
:1005C000F9D02820FFF76AFF40210F4802F03CFCD9
:1005D00001280DD100BF40210B4802F035FC012855
:1005E000F9D0C4F1070101208840C0B2054304E0FE
:1005F000C4F10701012088408543601CC4B2082C67
:10060000D8DB284670BD00000014014010B5044638
:10061000FFF7BEFF00224021254802F01DFC44F2F6
:100620005060FFF73BFF01224021214802F014FCFB
:100630001E20FFF733FFFFF79DFF40211C4802F00B
:1006400003FC78BB00BF4021194802F0FDFB0028E5
:10065000F9D000BF4021164802F0F6FB0128F9D07E
:10066000FFF7A4FF2070FFF7A1FF6070FFF79EFF68
:10067000A070FFF79BFFE070FFF798FF2071FFF776
:1006800087FF012240210A4802F0E6FB20786178CA
:100690000844A1780844E17808442179884202D1CD
:1006A000002010BD01E00120FBE70120F9E7000078
:1006B000001401407047000010B51448007880B95C
:1006C0001348B0F900003C280BDB01200F490870EB
:1006D0000F48B0F900300FA2C92113A000F04AFB67
:1006E00012E00A48007878B10948B0F900003728CC
:1006F0000ADC0020054908700548B0F900300CA25A
:10070000C92112A000F036FB10BD000071000020CE
:100710004A0000206F7665722074656D70657261A5
:100720007475726500000000616C61726D000000FC
:100730006F7665722074656D70657261747572652F
:1007400020636C656172656400000000696E666F0D
:100750000000000010B592B0044620210AA8FFF75F
:100760002EFD202102A8FFF72AFD00200190202362
:100770000AAA4DA1204603F047FA10B900208DF8CF
:100780002800202302AA49A1204603F0E7F928B94E
:1007900048A003F00BFF002012B010BD50A102A82A
:1007A000FFF73BFD002816D104F0F6F948B94EA03A
:1007B00003F0FCFE58A3032200210AA800F08AF9E6
:1007C000EAE75AA003F0F2FE63A3002201210AA87F
:1007D00000F080F9E0E762A102A8FFF71EFD002803
:1007E00016D104F003FA48B95FA003F0DFFE4AA374
:1007F000032200210AA800F06DF9CDE766A003F0FE
:10080000D5FE6FA3002201210AA800F063F9C3E717
:100810006DA102A8FFF701FD00283AD101AA6FA13E
:10082000204603F051F928B10198002802DB019815
:10083000FA2809DD6BA003F0B9FE76A3022200219D
:100840000AA800F047F9A7E7019800EB80004000F4
:10085000744908600846008873490880714909880E
:1008600088B204F06FF948B970A003F09FFE2AA384
:10087000032200210AA800F02DF98DE77AA0019942
:1008800003F094FE82A3002201210AA800F022F9BD
:1008900082E702A981A003F089FE89A30122002139
:1008A0000AA800F017F977E76964000061637469CA
:1008B0006F6E00000D0A5B45454720434D445D20A7
:1008C0006E6F2022616374696F6E22206669656CA9
:1008D00064202D2064726F707065640D0A00000042
:1008E00073746172740000000D0A5B454547204334
:1008F0004D445D207374617274204641494C4544F7
:1009000020286D6F64627573207772697465203179
:10091000303531290D0A00006D6F646275732077E0
:1009200072697465206661696C6564000D0A5B45D7
:10093000454720434D445D207374617274202D3E01
:10094000206368617267696E6720284C45443220D5
:100950004F4E290D0A0000007374617274656400C3
:1009600073746F70000000000D0A5B45454720431B
:100970004D445D2073746F70204641494C454420BE
:10098000286D6F64627573207772697465203130E9
:100990003531290D0A0000000D0A5B45454720430B
:1009A0004D445D2073746F70202D3E2069646C652A
:1009B00020284C454432204F4646290D0A000000AD
:1009C00073746F70706564007365745F63686172DF
:1009D00067655F706F7765720000000076616C7507
:1009E000650000000D0A5B45454720434D445D20EE
:1009F0007365745F6368617267655F706F77657256
:100A00002076616C756520696E76616C69640D0A8B
:100A100000000000696E76616C69642076616C7517
:100A200065000000540000203E0000200D0A5B45D8
:100A3000454720434D445D207365745F6368617270
:100A400067655F706F776572204641494C45442069
:100A5000286D6F6462757320777269746520313018
:100A60003235290D0A0000000D0A5B454547204339
:100A70004D445D207365745F6368617267655F7084
:100A80006F776572203D202564206B570D0A0000AA
:100A9000706F776572207365740000000D0A5B4506
:100AA000454720434D445D20756E737570706F72BD
:100AB00074656420616374696F6E3D25730D0A006F
:100AC000756E737570706F7274656420616374699C
:100AD0006F6E00002DE9F0418EB007460C461546BA
:100AE0001E46282204A9384604F034FC00F02CFBF2
:100AF00080460EB1304600E012A00CB112A100E019
:100B000012A104AB13A2CDE90208CDE900154FF400
:100B1000A0711E4803F05AFD002301221B491CA0AE
:100B200001F0F0F838B9194922A003F03FFD002088
:100B30000EB0BDE8F081154926A003F037FD012075
:100B4000F6E70000000000006F6B00006572726F36
:100B5000720000007B226964223A25732C227265A0
:100B600073756C74223A222573222C22636F64659C
:100B7000223A25642C226D7367223A222573222C97
:100B8000227473223A256C757D00000058130020F2
:100B90006565672F7369746530312F677730303141
:100BA0002F636861726765722F63683030312F611F
:100BB000636B00005B4545472041434B5D207075EA
:100BC000626C697368204641494C45443A2025735C
:100BD0000D0A00005B4545472041434B5D202573CE
:100BE0000D0A0000F0B5A5B00123394810210268B4
:100BF00021A804F0EBFB02233648102102681DA84F
:100C000004F0E4FB012334481021026819A804F021
:100C1000DDFB012331481021026815A804F0D6FB42
:100C200002232F481021026811A804F0CFFB00F026
:100C30008BFA044604F0FEFE054605F003FB06466B
:100C400004F0B8FA08B127A000E028A00746294818
:100C5000008829490988294A1288CDE90E04CDE97E
:100C60000C212748B0F900002649097811AACDE9DE
:100C70000A05CDE9082115A819A91DAA21ABCDE9BE
:100C80000432CDE906102048018820480088204A17
:100C900012883B46CDE90062CDE902011D4A4FF4BE
:100CA000A0711D4803F092FC01231A461A491BA0AB
:100CB00001F028F830B9184922A003F077FC002091
:100CC00025B0F0BD144927A003F070FC0120F7E720
:100CD0009400002098000020900000204000002098
:100CE00044000020747275650000000066616C733A
:100CF00065000000500000204E0000204C00002045
:100D00004A000020480000203C0000203A0000205B
:100D100038000020346A0008581300206565672FEA
:100D20007369746530312F67773030312F636861B4
:100D3000726765722F63683030312F737461747518
:100D4000730000005B454547204445565D207075A3
:100D5000626C697368204641494C45443A202573CA
:100D60000D0A00005B454547204445565D2025732C
:100D70000D0A00002DE9FF4104460D4616461F46A8
:100D800000F0E2F980460EB1304600E012A0CDE955
:100D90000278CDE900500CB1204600E00FA00346D8
:100DA00010A24FF4A0711F4803F010FC0023012291
:100DB0001C491DA000F0A6FF38B91A4924A003F071
:100DC000F5FB002004B0BDE8F081164928A003F02F
:100DD000EDFB0120F6E7000000000000696E666F81
:100DE000000000007B226C6576656C223A22257338
:100DF000222C22636F6465223A25642C226D73676E
:100E0000223A222573222C2274656D7065726174FA
:100E1000757265223A25642C227473223A256C750A
:100E20007D000000581300206565672F73697465A5
:100E300030312F67773030312F63686172676572A8
:100E40002F63683030312F6576656E7400000000C6
:100E50005B454547204556545D207075626C69734B
:100E600068204641494C45443A2025730D0A00004C
:100E70005B454547204556545D2025730D0A00000B
:100E800070B58AB0142105A805F024F800F05CF9CB
:100E9000064601F0E7FF4FF47A71B0FBF1F405F07C
:100EA00055F805469DF8140008B105A800E011A00A
:100EB000CDE90346CDE9010510A015A3174A4FF46B
:100EC000A0710090164803F081FB01231A461449D3
:100ED00014A000F017FF30B911491CA003F066FB05
:100EE00000200AB070BD0E4920A003F05FFB012076
:100EF000F7E70000302E302E302E300053544D33A3
:100F000032463130332B45535038323636000000EC
:100F10004545472D312E302E30000000306B000843
:100F2000581300206565672F7369746530312F672A
:100F3000773030312F676174657761792F6777304B
:100F400030312F7374617475730000005B45454741
:100F50002047575D207075626C697368204641496F
:100F60004C45443A2025730D0A0000005B45454777
:100F70002047575D2025730D0A00000000B5A1B081
:100F80000DA011A314A28021009001A803F01EFB64
:100F90004FF4FA63002217A101A800F035FA20B936
:100FA00015A003F003FB21B000BD03A206A122A0FF
:100FB00003F0FCFA00BFF6E7636E2E706F6F6C2EC5
:100FC0006E74702E6F7267006E74702E616C69792A
:100FD000756E2E636F6D000041542B434950534E84
:100FE00054504346473D312C302C222573222C226D
:100FF000257322004F4B00005B45454720534E545C
:10100000505D20434950534E54504346472072652B
:101010006A6563746564202D2074732077696C6C35
:101020002066616C6C206261636B20746F20757048
:1010300074696D650D0A00005B45454720534E54A9
:10104000505D20636F6E66696775726564202874F1
:101050007A3D302F5554432C2025732C202573299D
:101060000D0A000008B50020009001F0FBFE1149B8
:1010700008604FF4FA6300220FA110A000F0C4F939
:1010800008B9002008BD6946104804F0BBFD08B946
:101090000020F7E70E490098086001F0E3FE0D49D3
:1010A000086001200C4908700CA0009903F07EFA3A
:1010B0000120E7E7600000204F4B000041542B4324
:1010C0004950534E545054494D453F000C010020A7
:1010D000580000205C000020640000205B4545476C
:1010E00020534E54505D2074696D652073796E6392
:1010F00065642C2065706F63683D256C750D0A0072
:1011000010B501F0AFFE04460B48007848B90B4813
:101110000068201A4EF66021884201D3FFF7A2FF33
:1011200010BD07480068201A0649884201D3FFF71E
:1011300099FF00BFF4E70000640000206000002079
:101140005C0000200097490110B501F08BFE0446B9
:101150000948007820B94FF47A70B4FBF0F010BD64
:1011600006480068201A4FF47A71B0FBF1F0044988
:1011700009680844F3E70000640000205C000020D8
:101180005800002070B501F06DFE04461E4800684E
:1011900010B91D48046070BD1B480068251A1A4824
:1011A00004601A48007800B1F5E719480068A8B152
:1011B00018490968164A126802FB05101649B0FB67
:1011C000F1F1164A12681144144A11601249B0FB39
:1011D000F1F201FB12010F4A116000BF10480078C4
:1011E000401CC0B20E49087006280ADB00200870B7
:1011F0000C480078642804DA0A480078401C094941
:10120000087000BFC7E70000680000209C000020B5
:10121000900000206C00002080EE3600400000208E
:10122000700000204800002010B500BFEFF31080D0
:10123000044672B602F05CFD0B48B0F800086FF38C
:101240000E000949A1F800080846B0F8000820F48B
:101250000040A1F800080020087002F007FE2046B8
:1012600080F3108800BF10BD0C01002003480078F7
:1012700008B1012070470020FCE7000018000020A2
:101280002DE9F05F05460F4690461C460A9E01F088
:10129000E9FD82464FF6FF7B00202070307000BFD2
:1012A0001948B0F80008C0F30E09D94520D0CB4644
:1012B00045B129461448FEF78DFF08B1012002E030
:1012C000002000E00020207047B139460E48FEF7AC
:1012D00081FF08B1012002E0002000E00020307012
:1012E000207808B9307818B1142001F0F9FB07E034
:1012F00002F088FB01F0B6FDA0EB0A004045CFD319
:1013000000BFBDE8F09F00000C01002010B50024D4
:1013100001229103124801F09FFD12A003F046F94B
:101320004FF4FA6001F0DCFB15E0214613A003F056
:101330003DF94FF4FA73002219A11AA000F064F8E5
:1013400028B1214618A003F031F9012010BD01F0A9
:1013500083F8601CC4B20A2CE7DB0020F6E700002B
:10136000002001400D0A4154EFBFBDEFBFBDEFBFEC
:10137000BDEFBFBD2E2E2E2E2E0D0A000D0A41549C
:10138000EFBFBDEFBFBDEFBFBDD4B4EFBFBDEFBF7B
:10139000BDEFBFBD2025642E2E2E2E2E2E0D0A0051
:1013A0004F4B0000415400000D0A4154EFBFBDEF08
:1013B000BFBDEFBFBDEFBFBDEFBFBDEFBFBDEFBF57
:1013C000BDEFBFBDEFBFBDC9B9EFBFBD2025642EC6
:1013D0002E2E2E2E2E0D0A00FEB504460D46164664
:1013E00001200849087001A802AB32462946009046
:1013F0002046FFF745FF0020024908709DF80800CD
:10140000FEBD000018000020FEB506460C4615463D
:101410001F46002002900190FFF706FF01201849A7
:101420000870324617A1194803F04AF82CB925B9BB
:101430000020134908700120FEBD01A802AB3A4606
:10144000294600902046FFF71BFF00200C4908703A
:101450000F4910A003F0AAF854B14DB19DF808004F
:1014600010B99DF8040008B10120E5E70020E3E78A
:1014700014B19DF80800DFE79DF80400DCE70000E8
:101480001800002025730D0A0000000000480040ED
:101490000C0100205B41542052585D202573000050
:1014A00000B58BB006A101A803F0AAF84FF4FA73B7
:1014B000002207A101A8FFF7A7FF0BB000BD0000A5
:1014C00041542B4357444843503D312C31000000D8
:1014D0004F4B000010B586B004460CB1012000E06F
:1014E0000020024606A101A803F08AF84FF4FA731F
:1014F000002207A101A8FFF787FF06B010BD00007A
:1015000041542B4349504D55583D2564000000007F
:101510004F4B000000B585B000BF1748806940F40C
:101520008070154988610846806900F480700090D9
:1015300000BF00BF4FF40050019001200290032033
:10154000049001A90D4801F0DFFA00BF0A48806944
:1015500040F48070084988610846806900F4807012
:10156000009000BF00BF4FF48040019001A90348E4
:1015700001F0CAFA05B000BD001002400020014091
:1015800010B5FFF7C7FF01F073FA01229103044879
:1015900001F062FC01225103014801F05DFC10BD25
:1015A0000020014030B59FB004460D462B46224630
:1015B00006A101A803F024F841F28833002208A113
:1015C00001A8FFF721FF1FB030BD000041542B439D
:1015D000574A41503D222573222C222573220000B8
:1015E0004F4B000010B54FF4966308A209A10AA062
:1015F000FFF70AFF20B10CA002F0D8FF012010BDB8
:101600000EA002F0D3FF0020F9E700004552524F30
:10161000520000004F4B000041542B4D5154544395
:101620004C45414E3D3000005B4D51545420434CDD
:1016300045414E5D20646F6E650D0A005B4D51544F
:101640005420434C45414E5D206E6F206578706C90
:101650006963697420636C65616E2061636B2C2023
:10166000636F6E74696E756520616E797761790D4F
:101670000A00000000B5B1B040F25B730DA211A1E9
:1016800001A802F0BDFF4FF47A63002213A101A864
:10169000FFF7BAFE30B912A1144802F087FF00200C
:1016A00031B000BD40F25B7202A111A002F07EFFDA
:1016B0000120F5E73139322E3136382E382E3937C0
:1016C0000000000041542B4D515454434F4E4E3DA9
:1016D000302C222573222C25642C30004F4B000027
:1016E00050494C452D30303100000000D46C0008CA
:1016F0005B4D51545420434F4E4E5D204F4B206361
:101700006F6E6E656374656420746F2025733A256F
:10171000640D0A0000B5C5B04FF400722B492CA02F
:1017200003F0EDF930A002F041FF0120274A3EA36B
:10173000CDE90120009303903C2345A2010205A8B6
:1017400002F044FF4FF4966300224BA105A8FFF777
:101750005BFE38B134A23C2148A002F027FF0120F3
:1017600045B000BD53A002F021FF61A002F01EFFB2
:101770003C226FA105A802F043FF4FF496630022BC
:101780003DA105A8FFF740FE28B13C2170A002F062
:101790000DFF0120E4E77EA002F008FF3C228AA1B1
:1017A00005A802F02DFF4FF49663002232A105A890
:1017B000FFF72AFE28B13C218BA002F0F7FE0120A2
:1017C000CEE7964802F0F2FE0120C9E7842100200E
:1017D0007B226F6E6C696E65223A66616C73652C54
:1017E000227473223A307D000D0A5B4D515454200F
:1017F000434F4E4E4346475D205052494D4152594A
:101800003A20372D706172616D20636C65616E3DA9
:1018100030202B204C57542028646F6320C2A732FD
:101820002FC2A735290D0A006565672F7369746596
:1018300030312F67773030312F6761746577617988
:101840002F67773030312F73746174757300000027
:1018500041542B4D515454434F4E4E4346473D3017
:101860002C25752C302C222573222C222573222C1A
:1018700025642C25640000004F4B00005B4D515443
:101880005420434F4E4E4346475D204F4B20286B1C
:10189000613D25757320636C65616E3D656E6162A7
:1018A0006C65642C204C5754202D3E202573290D47
:1018B0000A0000005B4D51545420434F4E4E4346A6
:1018C000475D204C57542076617269616E742072B6
:1018D000656A6563746564202D3E20726574727953
:1018E00020776974686F7574204C57540D0A000096
:1018F0000D0A5B4D51545420434F4E4E4346475DB5
:10190000205052494D4152593A206F6666696369C9
:10191000616C20372D706172616D20636C65616E42
:101920003D302028646F6320C2A732290D0A0000D1
:1019300041542B4D515454434F4E4E4346473D3036
:101940002C25752C302C22222C22222C302C3000DD
:101950005B4D51545420434F4E4E4346475D204FFC
:101960004B20286F6666696369616C20372D706152
:1019700072616D2C206B613D25757320636C656110
:101980006E3D656E61626C6564290D0A00000000A1
:101990005B4D51545420434F4E4E4346475D2046C5
:1019A000414C4C4241434B3A20372D706172616D7E
:1019B00020616C7465726E61746520636C65616E24
:1019C0003D310D0A0000000041542B4D5154544349
:1019D0004F4E4E4346473D302C25752C312C22224C
:1019E0002C22222C302C30005B4D51545420434F7C
:1019F0004E4E4346475D204F4B2028372D70617275
:101A0000616D20616C7420636C65616E3D312C20CA
:101A10006B613D257573290D0A000000346C0008C8
:101A200010B5A8B00446A0216846FEF7C8FB14B95B
:101A3000002028B010BD1A48007850B10020194984
:101A40000870012018490870184802F0AFFD002006
:101A5000EFE7A0226946204604F0A0FC18B9204612
:101A600000F026FAE5E712A16846FEF7D6FB18B9A2
:101A70002046FEF76FFEDCE716A16846FEF7CDFBB9
:101A800020B11BA16846FEF7C8FB18B9204600F03C
:101A90000FFACEE769461DA002F088FD0020C8E7D6
:101AA000250000208C0000209C000020B06E000863
:101AB0006565672F7369746530312F677730303112
:101AC0002F636861726765722F63683030312F63EE
:101AD0006D6400002F6465766963652F50494C453D
:101AE0002D3030312F636F6E74726F6C0000000008
:101AF0002F6465766963652F50494C452D30303130
:101B00002F636F6E74726F6C6C0000000D0A5B4D7A
:101B10005154542052585D20756E68616E646C6536
:101B20006420746F7069633D2573202D2064726F8B
:101B3000707065640D0A000030B58BB004460D4628
:101B4000202103A8FEF73BFB1E48007830B11D4B57
:101B50001DA2202103A802F039FD0BE01B480068FC
:101B6000401C1A490860084619A22021036803A8EE
:101B700002F02CFD03A80DB1294600E015A1234673
:101B8000164ACDE900104FF48071154802F01EFD91
:101B900000230122124913A000F0B4F848B9002034
:101BA000084908700E4916A002F000FD00200BB095
:101BB00030BD00200349087009491AA002F0F6FC64
:101BC0000120F4E76416002025730000A000002027
:101BD000256C75007375636365737300FC70000892
:101BE000842400202F6465766963652F50494C4535
:101BF0002D3030312F636F6E74726F6C00000000F7
:101C00005B4D515454205245504C595D204641493A
:101C10004C4544207061796C6F61643A2025730DE6
:101C20000A0000005B4D515454205245504C595D00
:101C3000204F4B207061796C6F61643A2025730DE1
:101C40000A0000000EB51248007812490968124ACD
:101C50001268CDE9002102901048114A4FF48071BA
:101C60000368104802F0B2FC01231A460D490EA089
:101C700000F048F828B90B4911A002F097FC0020A9
:101C80000EBD084918A002F091FC0120F8E7000001
:101C90009C0000209800002094000020900000206C
:101CA00040710008842300202F6465766963652FE6
:101CB00050494C452D3030312F7374617475730069
:101CC0005B4D515454205055422053544154555368
:101CD0005D204641494C4544207061796C6F6164D8
:101CE0003A2025730D0A00005B4D51545420505585
:101CF00042205354415455535D204F4B2025730DC2
:101D00000A0000002DE9FE430546894616461F4697
:101D10004846FEF77BFA80464FF400722E4948464B
:101D200002F0EDFE2C482B462CA24FF440718DE8BA
:101D3000C100324802F04AFC0446002C0DDDFF2CA5
:101D40000BDCB4F5407F08DA40F6B83300222CA152
:101D50002A48FFF759FBBDE8FE832A48007838B9C6
:101D600001202849087002022146274802F01EFC83
:101D70002B4626A24FF440712048CDE900860297F9
:101D800002F024FC00231A4619461C48FFF73CFBCE
:101D900040F6B83225A127A0FFF71EFB30B9424616
:101DA000294625A002F002FC0020D4E71FFA88F1A2
:101DB000484600F021FC4FF4FA522BA12EA0FFF769
:101DC0000BFB30B9424629462EA002F0EFFB002063
:101DD000C1E70120BFE700008421002041542B4DC2
:101DE0005154545055423D302C222573222C22252B
:101DF00073222C25642C256400000000841E002022
:101E00004F4B0000AC0000200870000841542B4DDF
:101E10005154545055425241573D302C2225732283
:101E20002C25642C25642C25640000004552524F5B
:101E3000520000003E0000005B4D515454205055AC
:101E4000425241575D206E6F20273E272070726FEF
:101E50006D70742028746F7069633D2573206C6504
:101E60006E3D2564290D0A002B4D515454505542A6
:101E70003A4641494C0000002B4D515454505542B4
:101E80003A4F4B005B4D51545420505542524157EC
:101E90005D204641494C45442028746F7069633D7C
:101EA0002573206C656E3D2564290D0A0000000035
:101EB00030B599B004462546202111A8FEF77FF9D8
:101EC000202109A8FEF77BF9202101A8FEF777F968
:101ED0004FF0FF30009015B9002019B030BD4948CF
:101EE000007850B100204849087001204749087027
:101EF000474802F05BFB0020EFE746A12846FEF7CB
:101F000069F920B146A12846FEF764F908B9002016
:101F1000E3E7202311AA44A1284601F01FFE60B187
:101F2000202309AA42A1284601F018FE28B16A46DA
:101F300041A1284601F0C8FD20B941A002F036FBBE
:101F40000020CAE74EA111A8FEF767F920B94EA1FB
:101F500009A8FEF762F920B14DA002F027FB00208E
:101F6000BBE7202301AA5AA1284601F04DFE30B15B
:101F700001AB58A22021584802F028FB02E00020C3
:101F800055490870009860B10098022809D053485C
:101F9000009902F00BFB52A10098FFF7CDFD012044
:101FA0009BE70098A8B900201849087041205149C2
:101FB000086040F6A2005049086040F686304F495C
:101FC00008604FF480304E4908604EA002F0EEFAEF
:101FD00011E001200D49087000204649086047497A
:101FE000086040F6980044490860012044490860B0
:101FF000514802F0DBFA51A10098FFF79DFD012046
:102000006BE70000250000208C0000209C000020D1
:10201000606E000822636F6D6D616E6422000000C7
:10202000226F6E6F66662200747970650000000092
:102030006E616D650000000076616C7565000000E2
:102040000D0A5B4D51545420524543565D206D6935
:102050007373696E67206669656C6473202F2062F4
:10206000616420666F726D6174202D2073696C65E8
:102070006E746C792064726F707065642E0D0A0046
:10208000636F6D6D616E64006F6E6F666600000059
:102090000D0A5B4D51545420524543565D207479CE
:1020A00070652F6E616D6520213D20636F6D6D61E0
:1020B0006E642F6F6E6F6666202D2073696C656E7F
:1020C000746C792064726F707065642E0D0A000064
:1020D0006964000025730000641600205870000831
:1020E0006661696C5F696E76616C69645F76616C6C
:1020F00075650000900000209400002098000020EA
:10210000100C01400D0A5B4D51545420434D445D69
:10211000206F6E6F66663D30202D3E205354415235
:1021200054206368617267696E6720284C454432A9
:10213000204F4E290D0A0000906C000873756363F0
:102140006573730070B50325002417E0002C0CDDC7
:10215000962000F0C5FC0BA10F48FEF73BF820B11C
:102160000E4802F023FA002070BD0D4951F82400FA
:1021700003F088FC08B90020F6E7641C032CE5DBBB
:102180000120F1E72B4D515454444953434F4E4ED7
:1021900045435445440000000C010020646F0008D2
:1021A0009864000800B5E1B02BA1314802F0FEF9B7
:1021B00030A032A328A233A1009001A802F020FA97
:1021C0004FF4966300223AA101A8FFF71DF928B148
:1021D00038A002F0EBF9012061B000BD404802F0E8
:1021E000E5F91DA23FA101A802F00AFA4FF47A73A3
:1021F00000222FA101A8FFF707F920B93FA002F0A4
:10220000D5F90020E8E71DA247A101A802F0F8F9DE
:102210004FF47A73002226A101A8FFF7F5F820B940
:1022200047A002F0C3F90020D6E712A24FA101A8EF
:1022300002F0E6F94FF47A7300221DA101A8FFF71E
:10224000E3F820B94FA002F0B1F90020C4E758A08C
:1022500002F0ACF90120BFE773696D2D70696C6500
:102260002D50494C452D3030312D61740000000057
:10227000086E00083132333435360000636861720D
:102280006765000041542B4D5154545553455243FA
:1022900046473D302C312C222573222C22257322D7
:1022A0002C222573222C302C302C222200000000FE
:1022B0004F4B00005B4D51545420555345524346FB
:1022C000475D204F4B2028382D706172616D207062
:1022D00072696D6172792070617468290D0A00005D
:1022E000FC6E000841542B4D515454434C49454E0B
:1022F0005449443D302C2225732200005B4D51543B
:10230000542046414C4C4241434B5D2041542B4D9F
:10231000515454434C49454E544944204641494C3C
:102320004544210D0A00000041542B4D5154545591
:102330005345524E414D453D302C2225732200001D
:102340005B4D5154542046414C4C4241434B5D201F
:1023500041542B4D515454555345524E414D4520F7
:102360004641494C4544210D0A00000041542B4D83
:1023700051545450415353574F52443D302C222511
:10238000732200005B4D5154542046414C4C424155
:10239000434B5D2041542B4D51545450415353579E
:1023A0004F5244204641494C4544210D0A0000004B
:1023B0005B4D51545420555345524346475D204F81
:1023C0004B2028332D636F6D6D616E642066616CE8
:1023D0006C6261636B2070617468290D0A000000F3
:1023E00010B5044624B1012C0AD0022C18D10FE0FC
:1023F00040F6C4130BA20EA10EA0FFF705F810BD06
:1024000040F6C41307A20AA10DA0FEF7FDFFF6E7F0
:1024100040F6C41303A206A10CA0FEF7F5FFEEE7F9
:102420000020ECE76E6F206368616E676500000056
:102430004F4B000041542B43574D4F44453D310015
:1024400041542B43574D4F44453D320041542B439B
:10245000574D4F44453D330010B500224FF48041A5
:10246000064800F0F9FC4FF4FA7000F039FB012245
:102470009103024800F0F0FC10BD00000020014074
:102480003EB54648007880B1042402E04448FFF796
:10249000C7FA201EA4F1010406DD4FF40071404884
:1024A00001F090FC0028F1D100BF02F087FEFEF79A
:1024B00027FE02F079FD3B48007810B137480078DC
:1024C00000B93EBD0020374908703748FEF79EF836
:1024D000B8B902F0FBFC0446344801783248C078B1
:1024E0008DE813003048837842780178304802F054
:1024F0005DF802F0EBFC50B92B4880782D4908803C
:1025000005E002F0E3FC10B92B4802F04FF802F0AE
:10251000DDFC08B9FEF736FE0124FEF763FB00B9C7
:102520000024FFF78FFB00B900247CB10020234971
:10253000087000F097FC2249086022480068D0B17A
:1025400020480168204802F031F814E01B48007868
:10255000401C1A4908700322084601781BA002F0AB
:1025600025F816480078032805DB00200B49087081
:1025700003F058FDA5E7FEF79FF800F073FC1D4936
:102580000968401A4EF66021884205D300F06AFCC3
:1025900018490860FEF774FC00BF92E78C00002029
:1025A000581100200D000020200000209C00002079
:1025B000C06900084A000020646800082600002066
:1025C0002C0000201C000020D06500085B50554204
:1025D0004C4953485D204641494C454420636F6E49
:1025E00073656375746976652025752F25750D0AE9
:1025F000000000003000002010B5024600200CE072
:1026000000BF0B4B1B6803F08003002BF9D0135C59
:10261000074C241D2360431C98B28842F0DB00BFA6
:10262000034B1B6803F04003002BF9D010BD0000E2
:102630000048004038B540F25B7066A369A26CA107
:1026400000906D4801F0B2FF6CA001F0AFFF0122D5
:102650005103724800F000FC71A001F0A7FF0024B4
:1026600022E0641C0A2C0DDB7A4801F09FFF08E091
:102670007948006880F0200077490860C82000F0A1
:102680002FFAF5E700224FF48041644800F0E4FBA4
:10269000782000F025FA01229103604800F0DCFB6D
:1026A0004FF4FA7000F01CFAFEF730FE0028D8D084
:1026B0006AA001F07BFF00BF0020FEF70BFF00289F
:1026C000FAD072A001F072FF00BF0020FFF788FE71
:1026D0000028FAD078A001F069FF00BFFEF7E0FE05
:1026E0000028FBD07CA001F061FF00BF88A140A0C2
:1026F000FEF758FF0028F9D088A001F057FF00BF6F
:10270000FFF750FD0028FBD0914801F04FFFFFF785
:1027100001F890A001F04AFF00BFFEF7ABFF0028D0
:10272000FBD0002194A001F041FF22E0A2A001F023
:102730003DFFFEF757FF4FF4967000F0D1F903E02C
:102740004FF4967000F0CCF9FFF72CFD0028F7D07D
:10275000FEF7E0FF962000F0C3F903E04FF4967017
:1027600000F0BEF9FEF786FF0028F7D0962000F0B3
:10277000B7F9FFF7E7FC0028D8D001F05FFB012094
:102780009D49087000F06EFB9C49086000F06AFBF0
:102790009B4908609BA001F009FFFEF7EFFB40F2A8
:1027A000DC5000F09DF9FEF75DFC10B9A34801F084
:1027B000FDFE00F057FBA2490860FEF761FBA1A0F7
:1027C00001F0F4FEA94801F0F1FE20202249091D84
:1027D000086038BD3139322E3136382E382E39372F
:1027E0000000000050494C452D3030310000000001
:1027F0006665696665690000B06800080D0A456E87
:1028000061626C6520455350383236362043485F4C
:102810005044202E2E2E2E2E2E0D0A000020014078
:102820000D0A415420636F6D6D756E696361746943
:102830006F6E20746573742028757020746F20315A
:10284000302072657472696573292E2E2E2E2E2EFD
:102850000D0A0000806700080C0C01400D0A53654A
:1028600074204349504D55583D30202873696E6798
:102870006C65206C696E6B20666F72204D515454EC
:10288000292E2E2E2E2E2E0D0A0000000D0A536525
:10289000742057694669206D6F6465203D2053544C
:1028A000412028636C69656E74206D6F6465292E04
:1028B0002E2E2E2E2E0D0A000D0A456E61626C65BD
:1028C00020444843502043555252454E54202E2E0A
:1028D0002E2E2E2E0D0A00000D0A436F6E6E6563BC
:1028E0007420576946692028636865636B205353D9
:1028F00049442F7061737377642F322E3447206FF1
:102900006E6C792129202E2E2E2E2E2E0D0A0000DF
:102910006C696A69616C696E670000000D0A4D514F
:10292000545420555345524346472028436C69650B
:102930006E7449442F757365726E616D652F706199
:102940007373776F7264292E2E2E2E2E2E0D0A0091
:10295000606600080D0A4D51545420434F4E4E45B9
:10296000435420746F2062726F6B6572202E2E2E7E
:102970002E2E2E0D0A0000000D0A4D5154542053E6
:1029800055425343524942452028646F75626C6535
:102990002D4C3A20636F6E74726F6C202B20636F26
:1029A0006E74726F6C6C2C20516F533D2564292E10
:1029B0002E2E2E2E2E0D0A005B535441525455508C
:1029C0005D20535542207374616765206661696CB0
:1029D00065642E2052656275696C64204D515454B3
:1029E000206C61796572206265666F726520726520
:1029F0007472792E0D0A00008C000020280000203F
:102A00002C0000200D0A534E54502074696D65202F
:102A100073796E6320287473206669656C64206E18
:102A20006565647320556E6978207365636F6E64A5
:102A300073292E2E2E2E2E2E0D0A000074690008EA
:102A4000300000200D0A45535038323636204655A6
:102A50004C4C20434841494E20434F4E4649475530
:102A6000524544204F4B0D0A00000000F866000854
:102A700010B51248124908604FF4E1304860002157
:102A80000F488160C16001610C21416100218161B9
:102A900000F028FE0A480068C06840F0200008499D
:102AA0000968C86006480068C06840F01000044922
:102AB0000968C86000F006F810BD0000004800403A
:102AC0001011002010B5052000F088FA0022012125
:102AD000272000F045FA272000F032FA10BD000050
:102AE00070B5044600F0BEF906462546681C10B1D4
:102AF00004480078054400BF00F0B4F9801BA842E8
:102B0000FAD370BD0C0000202DE9F84702460023DF
:102B10009C467BE14FF0010808FA03F4D1F80080ED
:102B200008EA0400A0427DD1DFF8F4A2D1F80480C5
:102B3000A8EB0A09D0453AD014DCB8F1030F50D005
:102B400009DCB8F1000F31D0B8F1010F1CD0B8F199
:102B5000020F49D120E0B8F1110F18D0B8F1120FCF
:102B600042D11EE0B9F5881F25D006DCB9F5803FBB
:102B700020D0B9F5801F37D11AE0B9F5001F18D061
:102B8000B9F5041F30D117E0D1F80CC02DE0D1F811
:102B90000C8008F1040C28E0D1F80C8008F1080C36
:102BA00023E0D1F80C8008F10C0C1EE000BF00BF40
:102BB00000BF00BF00BF00BFD1F80880B8F1000F10
:102BC00002D14FF0040C0BE0D1F80880B8F1010FEE
:102BD00003D14FF0080C146102E04FF0080C54616F
:102BE00003E04FF0000C00E000BF00BFFF2801D859
:102BF000904601E002F104084646FF2802D84FEA59
:102C0000830803E0A3F108084FEA88084746D6F88E
:102C100000804FF00F0909FA07F928EA09080CFAB1
:102C200007F900E07AE048EA0908C6F80080D1F820
:102C3000048008F08058B8F1805F6FD100BFDFF8E2
:102C4000E481D8F8188048F00108DFF8D891C9F875
:102C50001880C846D8F8188008F00108CDF8008020
:102C600000BF00BF4FEAB9384FEA930958F829501E
:102C70004FEA83784FEA18794FF00F0808FA09F8FD
:102C800025EA0805DFF8A081424502D14FF000088F
:102C900024E0DFF89881424502D14FF001081DE0A1
:102CA000DFF88C81424502D14FF0020816E0DFF8D0
:102CB0008481424502D14FF003080FE0DFF87881AC
:102CC000424502D14FF0040808E0DFF87081424528
:102CD00002D14FF0050801E04FF006084FEA837972
:102CE0004FEA197908FA09F848EA0505DFF8508132
:102CF0004FEA930948F82950D1F8048008F4801865
:102D0000B8F5801F0BD1DFF83C81D8F8008048EA85
:102D10000008DFF83091C9F800800AE075E0DFF8BC
:102D20002481D8F8008028EA0008DFF81891C9F853
:102D30000080D1F8048008F40018B8F5001F0ED107
:102D4000DFF8008108F10408D8F8008048EA00089C
:102D5000DFF8F09009F10409C9F800800DE0DFF810
:102D6000E48008F10408D8F8008028EA0008DFF8B9
:102D7000D49009F10409C9F80080D1F8048008F45E
:102D80000038B8F5003F0ED1DFF8B880A8F104088C
:102D9000D8F8008048EA0008DFF8A890A9F10409F3
:102DA000C9F800800DE0DFF89C80A8F10408D8F88D
:102DB000008028EA0008DFF88C90A9F10409C9F81E
:102DC0000080D1F8048008F48038B8F5803F0ED137
:102DD000DFF87080A8F10808D8F8008048EA0008F9
:102DE000DFF86090A9F10809C9F800800DE0DFF86C
:102DF0005480A8F10808D8F8008028EA0008DFF815
:102E00004490A9F10809C9F800805B1CD1F8008042
:102E100028FA03F8B8F1000F7FF47CAEBDE8F8871C
:102E2000000011100010024000080140000C014099
:102E3000001001400014014000180140001C014036
:102E40000800014008040140024693680B400BB1A2
:102E5000012000E0002070470AB1016101E00B048D
:102E600003617047014800687047000004000020BB
:102E700070B504460CB9012070BD4CF6CC402168F9
:102E8000086045F2555021680860D4E90010486098
:102E90002168A0688860FFF7E5FF05460BE0FFF7B3
:102EA000E1FF401B272806D92068C06800F0030016
:102EB00008B10320E0E72068C06800F003000028A4
:102EC000EDD14AF6AA20216808600020D4E7014627
:102ED0004AF6AA200A68106000207047034800687C
:102EE000034909780844014908607047040000203C
:102EF0000C00002070B504460E4800784FF47A713B
:102F0000B1FBF0F00C490968B1FBF0F5284600F080
:102F1000CFFB08B1012070BD102C07D20022214642
:102F2000501E00F01DF80548046001E00120F2E7A2
:102F30000020F0E70C000020000000200800002026
:102F400001460846002809DB00F01F0301229A40D1
:102F500043099B0003F1E023C3F8002100BF704741
:102F60002DE9F05F80460D461646002701F05CFB18
:102F7000074639462A46334601F00700C0F1070AE2
:102F8000BAF1040F02D94FF0040A01E0C0F1070AB8
:102F9000D14600F1040ABAF1070F02D24FF0000A3D
:102FA00001E0A0F1030AD4464FF0010A0AFA09FA37
:102FB000AAF1010A0AEA020A0AFA0CFA4FF0010B16
:102FC0000BFA0CFBABF1010B0BEA030B4AEA0B0407
:102FD0002146404601F030FBBDE8F09F00BF00F005
:102FE0000702064B19684FF6FF031940044B0B43C9
:102FF00043EA0221014B196000BF70470CED00E06D
:103000000000FA0570B504460D460CB9012070BDEC
:103010005A48006800F00700A8420ED257480068DE
:1030200020F007002843554908600846006800F072
:103030000700A84201D00120E9E7207800F0020053
:1030400002281DD1207800F00400042805D14C4846
:10305000406840F4E0604A494860207800F0080089
:10306000082805D14648406840F46050444948600B
:103070004348406820F0F000A16808434049486098
:10308000207800F0010078B36068012806D13C4840
:10309000006800F4003090B90120B8E760680228A9
:1030A00006D13748006800F0007040B90120AEE753
:1030B0003348006800F0020008B90120A7E7304853
:1030C000406820F00300616808432D494860FFF71D
:1030D000C9FE064609E0FFF7C5FE801B41F28831B4
:1030E000884202D9032092E707E02548406800F0B3
:1030F0000C006168B0EB810FEDD12048006800F052
:103100000700A8420ED91D48006820F00700284398
:103110001A4908600846006800F00700A84201D07C
:10312000012074E7207800F00400042807D1144837
:10313000406820F4E060E168084311494860207865
:1031400000F00800082808D10D48406820F46050BD
:10315000216940EAC1000A49486000F03FF8084987
:103160004968C1F30311074A515CC8400649086029
:1031700006480068FFF7BEFE002048E70020024036
:103180000010024014640008000000200800002025
:1031900001480068704700000000002000B5FFF7FC
:1031A000F7FF04494968C1F30221034A515CC84052
:1031B00000BD0000001002402464000800B5FFF7C5
:1031C000E7FF04494968C1F3C221034A515CC84082
:1031D00000BD0000001002402464000870B500210A
:1031E0000022002400230020134D696801F00C0523
:1031F000F5B1042D02D0082D19D101E00F4819E0D6
:103200000F4DC1F38346AB5D01F4803555B10A4DD6
:103210006D68C5F340450B4E725D084D5D43B5FBCF
:10322000F2F402E0084D03FB05F4204602E000BF83
:10323000024800BF00BF70BD0010024000127A00BB
:103240002C6400083C64000800093D00F8B5044601
:103250000CB90120F8BD207800F00100002878D0DA
:10326000F848406800F00C0004280CD0F54840688D
:1032700000F00C00082811D1F248406800F48030BA
:10328000B0F5803F0AD1EF48006800F40030002814
:103290005FD0606800285CD10120DBE700BF606878
:1032A000B0F5803F06D1E748006840F48030E5493A
:1032B000086028E0606858B9E248006820F480306F
:1032C000E04908600846006820F4802008601AE0A1
:1032D0006068B0F5A02F0BD1DA48006840F4802078
:1032E000D84908600846006840F4803008600AE069
:1032F000D448006820F48030D2490860084600684D
:1033000020F48020086000BF606888B1FFF7AAFD44
:10331000054606E0FFF7A6FD401B642801D90320FF
:1033200098E7C848006800F400300028F2D010E0A8
:10333000FFF798FD054606E0FFF794FD401B642863
:1033400001D9032086E7BF48006800F40030002858
:10335000F2D1207800F00200022857D1B948406825
:1033600000F00C0050B1B748406800F00C0008288D
:1033700018D1B448406800F4803098B9B14800686A
:1033800000F0020020B12069012801D0012061E78E
:10339000AC48006820F0F800616940EAC100A94922
:1033A000086033E02069E8B10120A7490860FFF711
:1033B00059FD054606E0FFF755FD401B022801D9DF
:1033C000032047E79F48006800F002000028F2D081
:1033D0009C48006820F0F800616940EAC100994902
:1033E000086013E0002098490860FFF73BFD0546A0
:1033F00006E0FFF737FD401B022801D9032029E72B
:103400009048006800F002000028F2D1207800F017
:10341000080008282DD1A069B8B101208B490860A7
:10342000FFF720FD054606E0FFF71CFD401B0228C4
:1034300001D903200EE78348406A00F0020000280B
:10344000F2D0012000F01CFD13E000207F4908604D
:10345000FFF708FD054606E0FFF704FD401B0228C4
:1034600001D90320F6E67748406A00F00200002800
:10347000F2D1207800F00400042873D100277148AD
:10348000C06900F0805070B900BF6E48C06940F05C
:1034900080506C49C8610846C06900F080500090B7
:1034A00000BF00BF01276A48006800F48070B0B90F
:1034B0006748006840F4807065490860FFF7D2FCF7
:1034C000054606E0FFF7CEFC401B642801D9032027
:1034D000C0E65F48006800F480700028F2D000BFAA
:1034E000E068012806D15748006A40F001005549BC
:1034F000086227E0E06858B95248006A20F00100ED
:10350000504908620846006A20F00400086219E089
:10351000E06805280BD14B48006A40F00400494997
:1035200008620846006A40F0010008620AE0454867
:10353000006A20F00100434908620846006A20F052
:103540000400086200BFE068A0B1FFF78BFC0546ED
:1035500009E0FFF787FC401B41F28831884202D91D
:10356000032077E622E03748006A00F002000028D6
:10357000EFD012E0FFF776FC054608E0FFF772FC9B
:10358000401B41F28831884201D9032062E62D4870
:10359000006A00F002000028F0D1012F05D129486F
:1035A000C06920F080502749C86100BFE069C8B3F6
:1035B0002448406800F00C00082860D0E069022828
:1035C00048D1002020490866FFF74CFC054606E07C
:1035D000FFF748FC401B022801D903203AE61948AE
:1035E000006800F000700028F2D1206AB0F5803F3A
:1035F00007D11448406820F40030A16808431149FD
:103600004860D4E9080108430E49496821F474115F
:1036100008430C49486001200B490866FFF722FC6B
:10362000054607E03DE0FFF71DFC401B022801D9DD
:1036300003200FE60348006800F000700028F2D075
:103640002FE000000010024000004242800442428D
:1036500000700040002014490866FFF703FC05468F
:1036600006E0FFF7FFFB401B022801D90320F1E52C
:103670000E48006800F000700028F2D111E0E06907
:10368000012800D1E6E50948466806F48031206A41
:10369000814204D106F47011606A814201D0012098
:1036A000D8E50020D6E500000000424200100240AC
:1036B00070B504462546681EB0F1807F01D3012015
:1036C0000FE0681E4FF0E02148610F214FF0FF30FE
:1036D00000F0B2FF00204FF0E02188610720086170
:1036E000002070BD10B504460CB9012010BDA069C2
:1036F00000B100E000BF94F8410028B9002084F830
:103700004000204600F02AF8242084F84100206878
:10371000C06820F400502168C860204600F018FD01
:103720002068006920F490402168086120684069A1
:1037300020F02A00216848612068C06840F40050E9
:103740002168C86000206064202084F8410084F86B
:1037500042000020606300BFC8E7000010B58AB0D7
:10376000044600BF3648C06940F480203449C8612F
:103770000846C06900F48020019000BF00BF00BF70
:103780000846806940F4804088610846806900F4FA
:103790008040019000BF00BF00BF0846806940F034
:1037A000040088610846806900F00400019000BFB1
:1037B00000BF00BF0846806940F0040088610846E9
:1037C000806900F00400019000BF00BF00BF084600
:1037D000806940F0080088610846806900F00800B0
:1037E000019000BF00BF48150690022007900120FD
:1037F00008900320099006A91248FFF785F94FF4B5
:10380000806006900020079006A90E48FFF77CF91B
:103810004FF4806002900220039001200490032066
:10382000059002A90848FFF76FF94FF40060029075
:103830000020039002A90448FFF766F90AB010BD02
:103840000010024000080140000C01402DE9F84F33
:1038500004460E46174699464FF0000A94F8410078
:1038600020284AD106B117B90120BDE8F88F002001
:103870006064212084F84100FFF7F4FA8246A784AF
:10388000E784A068B0F5805F04D1206910B90025F5
:10389000B04602E035464FF000081BE053460022D8
:1038A00080212046CDF8009000F0D0FC08B1032024
:1038B000DBE745B9B8F80000C0F3080021684860AC
:1038C00008F1020803E02878216848606D1CE08C4C
:1038D000401EE084E08C0028E0D1534600224021C5
:1038E0002046CDF8009000F0B1FC08B10320BCE701
:1038F000202084F841000020B7E70220B5E700BF90
:10390000FEE7000010B52348406A00F0005030B1D7
:1039100001202149087021A02649086022E01D48A5
:10392000406A00F0805018B123A02249086019E0D5
:103930001848406A00F0006018B123A01D490860D3
:1039400010E01448406A00F0806018B121A01949C5
:10395000086007E00F48406A00F0004010B120A066
:10396000144908600120224908602248406840F458
:103970008070204948602048204908600520486040
:1039800040F6FF711D488160FFF772FA01201C4963
:10399000087010BD00100240110000204957444734
:1039A000205741544348444F472054494D454F55B3
:1039B0005400000014000020736F66747761726514
:1039C0002072657365740000706F7765722D6F6E7D
:1039D000000000004E5253542070696E0000000039
:1039E0006C6F772D706F77657220726573657400E8
:1039F000E0044242002004E00030004000010020CA
:103A00001000002010B50348007810B10248FFF7FD
:103A10005EFA10BD1000002000010020014800687F
:103A2000704700001400002000B585B000BF244896
:103A3000806940F00800224988610846806900F0EA
:103A40000800009000BF00BF00BF0846806940F03A
:103A5000080088610846806900F00800009000BFF7
:103A600000BF00BF0846806940F008008861084632
:103A7000806900F00800009000BF00BF2020019086
:103A80000120029003900320049001A90D48FFF744
:103A90003BF80120019001A90A48FFF735F8022000
:103AA000019001A90748FFF72FF8202005491031A0
:103AB0000860012008600220086005B000BD000019
:103AC00000100240000C0140F0B591B007460D46D1
:103AD00016460FB105B116B9002011B0F0BD2B4646
:103AE0001CA2402101A800F071FD01A93846FCF795
:103AF00071FB04460CB90020EFE701A8FCF786FB38
:103B0000044400E0641C207840B120782028F9D0DB
:103B100020783A28F6D020780928F3D02078222877
:103B200000D1641C2078302802DB207839280ADD97
:103B300020782D2805D16078302802DB607839287C
:103B400001DD0020C9E72046FCF791FB3060012031
:103B5000C3E7000022257322000000002DE9F04792
:103B600090B08246884617469946BAF1000F06D0B3
:103B7000B8F1000F03D017B1B9F1000F03DC00203A
:103B800010B0BDE8F08743461DA24021684600F012
:103B90001DFD69465046FCF71DFB04460CB900208C
:103BA000EEE76846FCF732FB044400E0641C207832
:103BB00040B120782028F9D020783A28F6D0207813
:103BC0000928F3D02078222801D00020D8E7641CEF
:103BD000264600E0761C307810B130782228F9D1E2
:103BE000002502E0605D78556D1CA9F10100A84236
:103BF00002DD6019B042F5D3002078550120BFE7FF
:103C000022257322000000002DE9F04790B0824683
:103C10008846174699460026BAF1000F06D0B8F13B
:103C2000000F03D017B1B9F1010F03DC002010B071
:103C3000BDE8F08743462CA24021684600F0C6FC50
:103C400069465046FCF7C6FA04460CB90020EEE778
:103C50006846FCF7DBFA044400E0641C207840B1BD
:103C600020782028F9D020783A28F6D02078092822
:103C7000F3D02078222809D1641C254600E06D1C71
:103C80002878D0B128782228F9D116E0254600E01E
:103C90006D1C287888B128782C280ED028787D28AB
:103CA0000BD02878202808D028780D2805D028782F
:103CB0000A2802D028780928EAD1A54201D8002094
:103CC000B5E702E0A05DB855761CA9F10100B0424D
:103CD00002DDA019A842F5D30020B855002E01DD61
:103CE0000120A4E70020A2E72225732200000000A3
:103CF0002DE9F041DFF8B0804046B0F80008C0F38D
:103D00000E042A480078012801D0BDE8F081284837
:103D10000088A04202DD0020254908803EE0244AB8
:103D20001288A21A91B2224A128808EB020001F00E
:103D30003DFE074677B90B20844202DD221A92B27B
:103D400000E0002211461A4A1288914201DD184A09
:103D50001180DAE7A7EB080086B2A01B81B23846D3
:103D600002F0A8FA054615B911480680CDE74FF6CE
:103D7000FF70854204D106F10C000D4908800DE06A
:103D80000CA22946384601F033FE18B929463846B8
:103D900002F0FEF970190649088000BF0448008847
:103DA000A042BCDB00BFB0E70C0100208C0000206B
:103DB000A60000202274797065223A227265706C28
:103DC000792200002DE9F04107460C461848057895
:103DD0000FB1002C02DC0020BDE8F081154800780E
:103DE000854201D10020F7E7134901EB4520FCF79C
:103DF0000DFA86B2601E80B2B04201DA601E86B251
:103E00000D4800EB452132463846FCF7BFF900204B
:103E1000B85500BF00BF00BFBFF35F8F00BF00BF3A
:103E200000BF284602F0AEF9014908700120D3E72F
:103E3000A5000020A40000208416002000BFEFF39E
:103E40001081084672B606490978064A11700021A9
:103E5000054A1180014681F3108800BF70470000B9
:103E6000A4000020A5000020A60000200020014999
:103E700008807047A600002000BFFEE7704770472B
:103E800008B508490968C9084FF47A72B1FBF2F124
:103E90004143009100BF00BF00994A1E00920029D3
:103EA000F9D108BD0000002000B585B000BF424830
:103EB000C06940F400304049C8610846C06900F458
:103EC0000030009000BF00BF00BF00BF08468069FF
:103ED00040F0040088610846806900F0040000900A
:103EE00000BF00BF00BF0846806940F01000886135
:103EF0000846806900F01000009000BF00BF00BFBE
:103F00000846806940F0200088610846806900F01A
:103F10002000009000BF00BF00BF042001900220DD
:103F20000290002003900320049001A92348FEF78B
:103F3000EBFD0820019000200290039001A91F488A
:103F4000FEF7E2FD04200190012002900020039082
:103F50000320049001A91A48FEF7D6FD4FF4006033
:103F6000019001A91748FEF7CFFD02F0BBF81648F3
:103F7000164908604FF416504860002113488160CC
:103F8000C16001610C21416100218161FFF7AAFB41
:103F90000E480068C06840F020000C490968C860FD
:103FA000012211462620FEF7DBFF2620FEF7C8FF80
:103FB00000F032F805B000BD0010024000080140DA
:103FC00000100140001401400044004098140020FB
:103FD00000B500F021F800BD00487047E014002053
:103FE00001480088704700007400002010B50848A0
:103FF000008808B9002010BDFEF734FF05490968A4
:10400000401A052801D30120F5E70020F3E700005E
:10401000740000207800002000BFEFF310810846F4
:1040200072B60021034A1180014681F3108800BF57
:1040300070470000740000202DE9F04105460E464F
:10404000002705B10EB9BDE8F081FFF7E5FF02F0EA
:1040500063F8002404E0285D02F080F8601C84B25C
:10406000B442F8DB00E07F1C0548006800F0400027
:1040700010B904488742F6D302F034F800BFE2E7F3
:1040800000440040400D03007047000010B5FEF7EB
:1040900025FF0B480078012810D10A480088401CF1
:1040A000084908800846008841F28831884205D1D5
:1040B00000200449088001200349087010BD000059
:1040C0008C0000200E0000200D00002010B50648D6
:1040D00000684FF47A71B0FBF1F42046FFF7E8FA7C
:1040E00008B100BFFEE710BD0000002000B58FB092
:1040F00014210AA8FCF763F828216846FCF75FF84A
:1041000001200090000401900020029002200790FE
:10411000C10308914FF4E01109916846FFF796F842
:1041200008B100BFFEE70F200A9002200B9000208C
:104130000C900E904FF480600D9002210AA8FEF7BB
:1041400061FF08B100BFFEE70FB000BD704700007F
:1041500070B504462168096921F44051E2681143B1
:10416000226811612269A1681143626941EA02056E
:104170002168C96841F20C62914329432268D160E9
:104180002168496921F44071A26911432268516193
:104190002D4A2168914202D1FFF710F801E0FEF7A5
:1041A000FDFF00EBC00101EB001162689200B1FB62
:1041B000F2F100EBC00202EB001263689B00B2FB5D
:1041C000F3F26423B2FBF3F202EBC20303EB02123D
:1041D000A1EB8201322202EB01116422B1FBF2F168
:1041E00001F0F00100EBC00202EB001263689B00DB
:1041F000B2FBF3F26423B2FBF3F201EB021200EB29
:10420000C00101EB001163689B00B1FBF3F100EB0F
:10421000C00303EB00136668B600B3FBF6F3642635
:10422000B3FBF6F303EBC30606EB0313A1EB830129
:10423000322303EB01116423B1FBF3F101F00F0111
:1042400011442268916070BD003801402DE9F041B1
:1042500004460D4617469846069E34E0701C88B307
:104260002EB1FEF7FFFDA0EB0800B0422BD900BF36
:1042700000BF21680C3151E8001F21F4D070216883
:104280000C3141E80002002AF3D100BF00BF00BF9B
:104290002168143151E8001F21F001002168143118
:1042A00041E80002002AF3D100BF202084F8410039
:1042B00084F8420000BF002084F8400000BF0320C3
:1042C000BDE8F081FFE7206800682840A84201D1DE
:1042D000012000E00020B842C0D00020F0E700003C
:1042E00070B51D4800680168002201F0280000B385
:1042F000194C24686468E3B2184CB4F80048C4F35D
:104300000E00012201F0200494B140F2FF74A0429B
:104310000EDA124C2354441C104DB5F8005864F3C7
:104320000E050E4CA4F8005800252646441C3555B1
:1043300000BF01F0100068B112B90748006840687A
:104340000648B0F8000820F4004000F50040034B98
:10435000A3F8000870BD0000B80000200E0900207E
:1043600070B51048046804F02800D0B10D48001D55
:104370000068C5B204F0200090B1FEF773FD0A4951
:1043800008600A480088FF2807D208490888411CAD
:10439000064A118006490D5402E0002003490880B6
:1043A00000BF70BD00440040780000207400002071
:1043B000E014002070B5324800680468002504F05D
:1043C000280070B32E4A12685268D1B22D4AB2F852
:1043D0000028C2F30E00012504F0080222B12A4A87
:1043E0001268521C284B1A6004F02002C2B140F23D
:1043F000FF7290420FDA234A1154421C214BB3F84A
:10440000003862F30E031F4AA2F800380023164654
:10441000421CB35404E01C4A1268521C1A4B1A6026
:1044200000BF04F0100050B315B91548006840688B
:104430001448B0F8000820F4004000F5004011498D
:10444000A1F8000811A10F48FBF7C4FE08B1012034
:1044500000E000201049087010480078012801D1C0
:10446000FFF746FCFCF702FF48B90648B0F8000821
:10447000C0F30E00B0F5E06F01DBFCF7D5FE70BDB8
:10448000101100200C0100201C000020434C4F5351
:1044900045440D0A00000000250000208C0000208B
:1044A000002200E0521C036803F0800313B9034BA1
:1044B0009A42F7D3C1F3080343607047400D0300ED
:1044C0000FB42DE9F04186B006460D274FF00A08DB
:1044D0000EA801905EE00D9800785C281CD10D9824
:1044E000401C0D9000786E2809D072280FD13946F3
:1044F0003046FFF7D5FF0D98401C0D900BE041466C
:104500003046FFF7CDFF0D98401C0D9003E00D984D
:10451000401C0D9000BF3DE00D980078252832D159
:104520000D98401C0D900078642811D0732825D177
:10453000019810C8019004E021783046FFF7B0FFE1
:10454000641C20780028F7D10D98401C0D9019E0CC
:10455000019820C801900A2202A9284600F092FF83
:1045600002AC04E021783046FFF79AFF641C207803
:104570000028F7D10D98401C0D9003E00D98401CC9
:104580000D9000BF06E00D9810F8011B0D9030460D
:10459000FFF786FF0D98007800289CD106B0BDE893
:1045A000F0015DF814FB00BFFEE700000FB4054BFF
:1045B00010B503A9044A029800F066F810BC5DF833
:1045C00014FB000035540008B00000200FB47CB587
:1045D0000C0009AD01D0611E00E00021CDE9000111
:1045E000064B6A462946089800F04EF8002C02D087
:1045F000009A002111707CBC5DF814FBDF4A0008B2
:104600000FB4084B10B504A902AA039800F03CF8B7
:10461000044602A9002000F06DFA204610BC5DF8A7
:1046200014FB0000F54A000802480068C0F30220AD
:10463000704700000CED00E010B5002804DB0A070D
:10464000130E054A135406E00A07140E034A00F03D
:104650000F031B1FD45410BD00E400E018ED00E070
:1046600000487047B400002002E008C8121F08C1CB
:10467000002AFAD170477047002001E001C1121FE3
:10468000002AFBD1704700002DE9FF4F8DB00F4687
:104690000546002606E025280BD0DDE90F129047DD
:1046A0006D1C761C28780028F5D111B03046BDE885
:1046B000F08F0024A246A1460122E94900E004430C
:1046C00015F8013F203B02FA03F00842F7D12878A1
:1046D0002A2810D06FF02F022878A0F13001092984
:1046E00014D80AEB8A0102EB410144F0020400EB0A
:1046F000010A6D1CF0E701CF5FEA000A03D544F41C
:104700000054CAF1000A44F002046D1C28782E28D7
:1047100017D115F8010F44F004042A280ED06FF0C9
:104720002F022878A0F1300109290AD809EB890164
:1047300002EB410100EB01096D1CF2E757F8049B05
:104740006D1C28786C280FD006DC4C2817D0682800
:104750000DD06A2814D104E0742810D07A280FD123
:104760000DE044F400140AE044F4801401E044F441
:1047700040146978814202D104F580146D1C6D1CCF
:1047800028786E281ED00CDC632830D004DC00288A
:104790008BD0582811D19FE0642867D069280CD1AC
:1047A00064E073282DD004DC6F2872D0702804D107
:1047B00094E075286ED078286DD0DDE90F1290470F
:1047C000761C4BE1C4F30250022806D0032809D01E
:1047D000042801CF09D0066040E101CFF117C0E9FC
:1047E00000613BE101CF068038E1067036E117F841
:1047F000040B8DF8000000208DF80100EB4601202D
:1048000003E057F804BB4FF0FF3061074FF00001A1
:1048100002D40DE008F10101884649450FDA8045D0
:10482000F8DB1BF808100029F4D108E008F10101B9
:1048300088468142FADB1BF808100029F6D1DDE931
:104840000F23AAEB08008146214600F031F93044DD
:1048500000EB080604E0DDE90F121BF8010B90479E
:10486000B8F10108F7D221464846F2E00A21C4F324
:1048700002524FF0000B0891022A04D001CFC11759
:10488000032A09D00AE0FF1D27F00707F7E8020115
:1048900008E02CE01EE01FE000B2C117042A01D19D
:1048A00040B2C117021E71F1000206DA0023D0EBFC
:1048B000030063EB01012D2202E0220504D52B2227
:1048C0008DF82420012203E0E20701D02022F7E73F
:1048D000904653E00A210BE0102109E010214FF02F
:1048E000000B44F004044FF00809089103E008218C
:1048F0004FF0000B0891C4F30252022A04D001CFFA
:104900000021032A06D006E0FF1D27F00707F7E87D
:10491000020103E080B2042A00D1C0B24FF00008C7
:1049200022072BD52A78702A07D0DDF820C08CF01A
:10493000100C5CEA0B0C05D00EE040228DF8242010
:10494000012208E050EA010306D030238DF824301C
:104950008DF8252002229046089B83F0080353EA35
:104960000B030BD150EA010201D1620706D53022B8
:104970008DF824204FF00108A9F101092A78582A5E
:1049800004D038A20B9208AA0A920BE03AA2F9E7E7
:104990005B46089AFBF778FC0B9B9B5C0A9A521EBD
:1049A0000A92137050EA0102F2D10A98ADEB0000AE
:1049B00000F1200B600702D524F4803401E04FF0B1
:1049C0000109D94502DDA9EB0B0000E0002000EB56
:1049D0000B0141440890AAEB010AE00306D4DDE98B
:1049E0000F232146504600F063F806444FF00009BB
:1049F00008E009A911F80900DDE90F12904709F153
:104A00000109761CC145F4DBE0030CD5DDE90F2379
:104A10002146504600F04CF8064404E0DDE90F1250
:104A200030209047761C0899481E08900029F5DC34
:104A300008E00A980A990078491C0A91DDE90F12EA
:104A40009047761CBBF10001ABF1010BF1DC214674
:104A50005046DDE90F2300F019F806446D1C21E6ED
:104A60000928010030313233343536373839616244
:104A70006364656600000000303132333435363708
:104A80003839414243444546000000002DE9F041D9
:104A9000044600251E461746880404D405E039461E
:104AA0002020B0476D1C641EF9D52846BDE8F08172
:104AB0002DE9F041044600251E469046C80301D565
:104AC000302700E02027880404D505E04146384619
:104AD000B0476D1C641EF9D52846BDE8F0814A68D0
:104AE000002A06D00A68531C0B6010704868401EEC
:104AF000486070470A68531C0B6010707047F0B52F
:104B000003460C460020002115E0D51E854200DC3E
:104B100014E05D5C5C2D05D05D5C222D02D05D5CF7
:104B20002C2D03D15C270546401C67555F5C05466C
:104B3000401C6755491C5D5C002DE6D100BF002577
:104B40002554F0BD70B50446FEF78CF906462246A2
:104B50004FF48061012000F0A9FE05460AA1284615
:104B600000F0BEF90DB1002070BD214640F20140B9
:104B700000F07CFC0748048031464FF4806001F06F
:104B800099F90120F0E700007365745F706F776535
:104B9000720000003E00002070B5FEF763F9054684
:104BA000012240F21A41104600F080FE04460DA199
:104BB000204600F095F90CB1002070BD012140F2B3
:104BC0001B4000F053FC00F045F8294640F20B4032
:104BD00001F070F9294640F21A4001F06BF901200A
:104BE000EBE70000737461727400000070B5FEF7AB
:104BF00039F90546002240F21A41012000F056FE24
:104C0000044612A1204600F06BF90CB1002070BDE3
:104C1000002140F21B4000F029FC002140F2064038
:104C200000F024FC002140F2074000F01FFC00F0DF
:104C300011F8294640F20B4001F03CF9294640F2B8
:104C40001A4001F037F90120E1E7000073746F703A
:104C5000000000002DE9F04140F2EA3000F0F8FBDE
:104C6000064640F20B4000F0F3FB04464FF481602F
:104C700000F0EEFB05464FF4826000F0E9FB07B25E
:104C80003548068040F2EB3000F0E2FB3349088003
:104C90004FF4806000F0DCFB3149088040F20140B5
:104CA00000F0D6FB2F49088040F2054000F0D0FB11
:104CB0002D49086040F2064000F0CAFB2B4908600D
:104CC00040F2074000F0C4FB29490860642D01D977
:104CD000642000E0E8B22749087040F20C4000F080
:104CE000B7FB2549086040F20E4000F0B1FB2349B4
:104CF0000860A7F1280000B22149088040F21A405C
:104D000000F0A6FB1F4908801F48048040F21B40AA
:104D100000F09EFB1D4908801D48007830B9022034
:104D20001C49087001201C49086013E02CB10F4891
:104D3000006810B90E48006838B1002015490870A5
:104D40004FF480301449086004E0012011490870D4
:104D500011490860BDE8F081380000203A000020C9
:104D60003C0000203E00002094000020980000201D
:104D70009000002048000020400000204400002057
:104D80004A0000204C0000204E000020500000206F
:104D90007D0000209C000020100C01402DE9FC4704
:104DA000FFF782F800203049087030490870304918
:104DB000087030490860304908703049087030493F
:104DC0000870002505E000202E4941F82500681CE8
:104DD000C5B2082DF7DB01224FF416512A48FFF720
:104DE000E5FB00F09DF9044628A1204600F078F884
:104DF000002C2BD101201D49087000201C4908708F
:104E000000F076F9FFF726FF40F2074000F020FBA4
:104E1000064640F2064000F01BFB074640F2054004
:104E200000F016FB804640F2EB3000F011FB8146AB
:104E300040F2EA3000F00CFB824643464A465146B7
:104E400014A0CDE90076FFF7B1FB0AE0FEF70AF8FF
:104E500000F6B8300B490860012221461A48FFF7D6
:104E6000A5FBBDE8FC8700007C0000207D00002041
:104E70007E000020800000208400002085000020AB
:104E80008600002044160020806B000870726F625C
:104E9000650000005B4348475D2070726F626520CB
:104EA0004F4B202073746174653D257520666175D4
:104EB0006C743D257520553D257520493D2575208F
:104EC000503D25750D0A0000EC6B00080348007882
:104ED00008B1012070470020FCE700007D000020A1
:104EE00070B504460D46ECB90020204908702048F2
:104EF000007880B91F480078FF2804D21D48007848
:104F0000401C1C4908701B480078022806D3012069
:104F10001749087002E00020164908700120164960
:104F2000087070BD00201349087010480078FF28F1
:104F300004D20E480078401C0C4908700B480078D9
:104F4000032811D30A48007870B10020084908707E
:104F50000220094908700120084908602A460348D0
:104F6000017807A0FFF722FB00BFDAE77C000020F2
:104F70007D0000207E0000209C000020100C0140DD
:104F80005B4348475D206F66666C696E65206166AD
:104F9000746572202575202573206661696C7572B1
:104FA00065730D0A000000002DE9FF5FFDF75AFF51
:104FB00005463B48006838B139480068281AB0F502
:104FC000967F01D2BDE8FF9F3548056035480078DF
:104FD00048B93548006820B133480068281A00D520
:104FE000F0E7002406E0284600F0EAFE0446002C24
:104FF00000DAE7E72D4A32F814102D4A32F814008F
:1050000000F0F0FF06462BA13046FFF769FF002EA7
:1050100037D1FFF71FFEE0B20022294600F034FF2F
:10502000234830F8140040F20541884236D14FF44D
:10503000826000F00DFA00B2A0F128074FF4816001
:1050400000F006FA804640F2074000F001FA81467F
:1050500040F2064000F0FCF9824640F2054000F0C4
:10506000F7F9834640F2EA3000F0F2F953465A4627
:105070000146CDE90098CDE9027010A0FFF796FA3D
:105080000CE00848007820B905F6B83006490860F9
:1050900004E0E0B20022294600F0F6FE00BF91E7EE
:1050A000800000207D00002044160020806400085D
:1050B00070640008706F6C6C000000005B43484730
:1050C0005D20706F6C6C202073746174653D257574
:1050D00020553D257520493D257520503D257520DD
:1050E000736F633D257520543D25640D0A00000053
:1050F00010B501240CE0084A32F81410074A32F8BF
:10510000140000F06FFF08B9FFF7A4FD601CC4B2E3
:10511000082CF0DB10BD00008064000870640008FB
:1051200010B5022140F2EA3000F05CFF04460CB1F9
:10513000204610BDFFF78EFD0020FAE7F0B50346CC
:105140001546022901DC012000E000201B1A4FF463
:10515000C87093FBF0F404EBC40000EB0410A3EB65
:105160000012022902DD6FF0020000E0092008446D
:1051700000EB001000EBC000801C4FF0050C90FB12
:10518000FCF02844471E6420B2FBF0FC40F26D1096
:10519000504300EB9200A0EB0C00C619034800FB43
:1051A0000460DFF80CC0A0EB0C00F0BDB13A0200C7
:1051B0006CFA0A0010B5FFF789FE10BD00B599B072
:1051C000FDF750FE3C490968401A47F230518842C9
:1051D00001D219B000BDFDF745FE374908603748D8
:1051E00000683749096888420AD04FF40072334892
:1051F00001683448FFF7DAF9304800683049086040
:10520000FDF730FE30490968401A47F230518842B4
:1052100003D200202D490870DBE72DA2602101A8F0
:10522000FFF7D4F92B480078A8B94FF496632AA267
:1052300001A92BA0FCF7E8F868B12DA13148FAF7D5
:10524000C9FF40B930A12F48FAF7C4FF18B90020B0
:105250001E490870BDE71D480078401C1B490870B6
:105260000222084601782A48FFF7A0F9FCF7BAF9AC
:105270004FF49670FDF734FCFCF794FFA0B1FCF7F7
:1052800049FA88B1FCF7F6F970B1FCF75BFF58B149
:1052900000200E490870FEF7D1FD01201D4908705D
:1052A0001DA0FFF783F994E708480078022801DB86
:1052B00000F0B8FE00BF8CE728000020A800002006
:1052C00034000020146600082C0000202700002075
:1052D0004F4B0000250000204552524F5200000065
:1052E00041542B4D515454434F4E4E3F000000004B
:1052F0002B4D515454444953434F4E4E454354450E
:10530000440000000C010020434C4F534544000072
:105310003C6700088C0000205B4845414C54485DC8
:1053200020717569636B207265636F6E6E6563745F
:10533000204F4B2028555345524346472B434F4E51
:105340004E4346472B434F4E4E2B535542290D0A91
:10535000000000002DE9F04104460E4617460CB14E
:10536000207830B915A239463046FFF72FF9BDE84D
:10537000F0814FF00108002509E0605D302802DB74
:10538000605D392802DD4FF0000803E06D1C605DB0
:105390000028F2D100BFB8F1000F06D0234608A2C2
:1053A00039463046FFF712F905E0234605A2394693
:1053B0003046FFF70BF900BFD9E7000030000000CE
:1053C0002573000022257322000000002DE9F84318
:1053D00006460F4614461D46022D0FD16420B4FB2D
:1053E000F0F100FB1148B4FBF0F94B460CA2394632
:1053F0003046CDF80080FFF7E9F80EE00A20B4FB54
:10540000F0F100FB1148B4FBF0F94B4607A2394616
:105410003046CDF80080FFF7D9F8BDE8F8830000EA
:10542000256C752E2530326C75000000256C752EAC
:10543000256C750013B50C464FF47A73012269464A
:105440000248FEF703FA00981CBD0000B8000020D7
:105450000246A2F2EA3081B2322901D3002070471D
:10546000014830F81100FAE7E0150020A0F2EA3315
:105470009AB2322A02D2024B23F81210704700006F
:10548000E0150020F0B503460D46164600272946D4
:105490000A2E03D0002008702846F0BD33B9302012
:1054A00001F8010B002008702846F6E7002B03DA0C
:1054B0002D2001F8010B5B4242F210720DE093FBCC
:1054C000F2F404B937B104F1300001F8010B04FB28
:1054D000123301270A2092FBF0F2002AEFDC0020B1
:1054E00008702846D9E70000FEF7F0FDFEF7FEFD44
:1054F000FAF7FEFF0D48FFF759F8FEF703FAFEF73B
:105500008DFA044621460AA0FFF750F8FEF78CFA00
:10551000FBF724F8FFF742FCFCF732F8FDF78AF8B6
:1055200003E0FEF76FFAFCF7ABFFFAE72C65000823
:105530005B424F4F545D20726573657420726561E4
:10554000736F6E3A2025730D0A0000002DE9F041BB
:1055500005460C46042C03D26FF00600BDE8F0812E
:10556000A01E81B2284600F00EF80646A01E295C57
:10557000601E285C41EA0027BE4201D10020EDE711
:105580006FF00200EAE730B503460C464FF6FF71B4
:105590000BB9002030BD002212E0985C414000258C
:1055A0000AE001F0010020B14AF2010080EA610145
:1055B00000E04910681C85B2082DF2D3501C82B25D
:1055C000A242EADB0846E5E72DE9F04105460E4632
:1055D0001746294608A0FEF7E9FF002405E0315DE3
:1055E00007A0FEF7E3FF601C84B2BC42F7DB06A015
:1055F000FEF7DCFFBDE8F0815B4D422025735D00C6
:1056000020253032580000000D0A00002DE9F04737
:10561000A6B006460F461446984600200190B8F101
:10562000000F02D00CB1402C04D94FF0FF3026B04F
:10563000BDE8F0878DF8906003208DF89100381256
:105640008DF89200F8B28DF8930020128DF8940036
:10565000E0B28DF89500062124A8FFF794FF81465B
:1056600009F0FF008DF896004FEA29208DF8970089
:1056700001A8852302AA0821009024A800F05CF864
:105680008246BAF1000F01D05046D0E79DF80800DD
:10569000B04202D06FF00300C9E79DF809008328EB
:1056A00007D19DF80A101CA0FEF780FF6FF00500DF
:1056B000BDE79DF80900032802D06FF00400B6E7AB
:1056C000BDF8040005280DD39DF80A006106090EF7
:1056D000884207D1052000EB440080B2BDF80410D9
:1056E000884202DD6FF00600A1E700250FE00420EC
:1056F00000EB450002A9085C032101EB450102AA69
:10570000515C40EA012028F81500681C85B2A542CA
:10571000EDDB00208BE700005B4D425D2065786388
:10572000657074696F6E2066633D303320636F640B
:10573000653D25750D0A00002DE9F84F06460F4618
:1057400090461D46DDF828B04FF0000968E03A4663
:10575000314636A0FFF738FF39463046FEF76CFC7D
:10576000C82000F08DF88246BAF1000F05D009F18B
:1057700001012FA0FEF71AFF50E0FEF731FC0446AE
:10578000AC4200DD2C46FEF727FC22460146009085
:105790004046FAF7FBFCFEF71BFC224641462AA0D6
:1057A000FFF712FF7078032827D1BC4225D122468B
:1057B00031464046FAF73FFDF8B9C82000F060F8DE
:1057C0008246BAF1000F03D020A0FEF7EFFE25E0DD
:1057D000FEF706FC0446AC4200DD2C46FEF7FCFB5F
:1057E0002246014600904046FAF7D0FCFEF7F0FB57
:1057F0002246414614A0FFF7E7FE21464046FFF748
:10580000A5FE8246BAF1000F03D019A0FEF7CEFE26
:1058100004E0ABF800400020BDE8F88F09F1010971
:10582000B9F1000F93DD6FF00100F5E75458000067
:105830005B4D425D2074696D656F757420287472CC
:1058400079202564290D0A00525800005B4D425D05
:10585000206563686F206F6E6C792C206E6F2073EB
:105860006C617665207265706C790D0A000000002D
:105870005B4D425D20626164204352430D0A00008B
:1058800070B50446FDF7EEFA054606E0FEF7BAF8F5
:10589000FEF7ACFB08B1002070BDFDF7E3FA401B3A
:1058A000A042F3D36FF00100F6E700002DE9F041CC
:1058B00086B004460D461646002001908DF8104033
:1058C00006208DF8110028128DF81200E8B28DF82C
:1058D000130030128DF81400F0B28DF81500062177
:1058E00004A8FFF750FE0746F8B28DF816003812EC
:1058F0008DF8170001A8082302AA1946009004A8F1
:10590000FFF71AFF8046B8F1000F03D0404606B0FB
:10591000BDE8F0819DF80800A04202D06FF00300BE
:10592000F5E79DF80900862807D19DF80A1017A011
:10593000FEF73CFE6FF00500E9E79DF80900062838
:1059400003D1BDF80400082802D26FF00400DEE79E
:105950009DF80A009DF81210884211D19DF80B00A5
:105960009DF8131088420BD19DF80C009DF814107F
:10597000884205D19DF80D009DF81510884202D08F
:105980006FF00600C3E70020C1E700005B4D425DF9
:1059900020657863657074696F6E2066633D30368C
:1059A00020636F64653D25750D0A000070B50546DE
:1059B0000E460C2E01DA002070BD002409E02819E3
:1059C0000C2207A1FAF737FC08B92819F4E7601C84
:1059D00084B2A6F10C0080B2A042F0DA0020EBE71E
:1059E0002B4D51545453554252454356000000002C
:1059F0002DE9F04180460E4617463846FAF706FC78
:105A000084B20CB1A64202DA0020BDE8F081002584
:105A10000AE008EB050022463946FAF70CFC08B903
:105A20000120F2E7681C85B2301B80B2A842F0DA90
:105A30000020EAE703480088012801D102A070474E
:105A400002A0FCE74C000020763267006368670024
:105A500010B54FF49663002202A106A0FBF7D4FC18
:105A600010BD00004D515454434F4E4E3A302C312E
:105A70000000000041542B4D515454434F4E4E3FB3
:105A80000000000010B5B2B004460020234625A255
:105A9000C021009002A8FEF799FD40F2DC530022DD
:105AA00026A102A8FBF7B0FC38B10022214624A0B1
:105AB000FEF77CFD012032B010BD29A12D48FAF778
:105AC00089FB28B121462CA0FEF770FD0120F2E7EA
:105AD00034A12848FAF77EFBE8B94FF49670FCF73A
