:020000040800F2
:10000000982B002049010008F93C00087B370008C4
:10001000F53C0008EB030008EF4100080000000079
:10002000000000000000000000000000253D000866
:100030003D06000800000000FB3C0008293D0008C8
:100040006301000863010008630100086301000800
:1000500063010008630100086301000863010008F0
:1000600063010008630100086301000863010008E0
:1000700063010008630100086301000863010008D0
:1000800063010008630100086301000863010008C0
:1000900063010008630100086301000863010008B0
:1000A00063010008630100086301000863010008A0
:1000B0006301000863010008630100086301000890
:1000C0006301000863010008630100086301000880
:1000D000630100087D3F000863010008FD3F000840
:1000E0006301000863010008630100086301000860
:1000F0006301000863010008630100086301000850
:10010000630100086301000863010008630100083F
:10011000630100086301000863010008630100082F
:10012000630100086301000863010008630100081F
:10013000DFF810D000F0E6F800480047314A000828
:10014000AFF30080982B0020064880470648004700
:10015000FEE7FEE7FEE7FEE7FEE7FEE7FEE7FEE777
:10016000FEE7FEE7E93D00083101000840EA01032F
:100170009B0703D009E008C9121F08C0042AFAD25D
:1001800003E011F8013B00F8013B521EF9D2704721
:10019000D2B201E000F8012B491EFBD270470022C9
:1001A000F6E710B513460A4604461946FFF7F0FF76
:1001B000204610BD30B505462A460B4612F8010B05
:1001C00013F8014B08B1A042F8D01CB1002802D0AE
:1001D0006D1CF1E7284630BDCAB2401E10F8011F61
:1001E0008A4202D00029F9D100207047421C10F841
:1001F000011B0029FBD1801A704710B5002200E0D6
:10020000521C835C8C5CA34201D1002BF8D1D8B284
:10021000E1B2401A10BD30B504460020034600E0AC
:100220005B1C934203D2E05CCD5C401BF8D030BD38
:1002300030B505460020034600E05B1C934205D222
:10024000EC5CC85C201A01D1002CF6D130BD70B531
:10025000064604F029F8046805460A2200213046C3
:1002600000F018F82C6070BD30B50B460146002038
:100270002022012409E021FA02F59D4205D303FA68
:1002800002F5491B04FA02F52844151EA2F10102E9
:10029000F1DC30BD2DE9F04791460F46804604461B
:1002A000002614F8015B2DB100F03EF80068405DB7
:1002B000C007F6D12B2D02D02D2D18D0641E4A4632
:1002C0003946204600F034F827B13968A14201D1FF
:1002D000C7F8008071054FF002040BD5404200289A
:1002E00003DD03F0E1FF0460A007BDE8F08746F4FA
:1002F0008066E4E70028F8DA03F0D6FF04606FF0C8
:100300000040F2E7064C074D06E0E06840F00103CC
:1003100094E8070098471034AC42F6D3FFF70CFF7F
:100320003C5E00085C5E00080048704734530008DB
:100330002DE9F05F82460078002715468B460AF1CA
:100340000104B946302801D09DB113E014F8010B27
:100350000127782803D0582801D045B10AE00DB113
:10036000102D07D10027102514F8010B02E00825F5
:1003700000E00A250026B0460EE005FB080005FB5C
:1003800006F1012701EB10461FFA80F8B6F5803F11
:1003900000D3B94614F8010B294600F018F80028DC
:1003A000EBDABBF1000F05D00FB1641E00E054463C
:1003B000CBF80040B9F1000F06D003F075FF022121
:1003C0000160C81EBDE8F09F48EA0640FAE73A28F7
:1003D00000D2303820F02002412A01D3A2F13700A8
:1003E000884201D34FF0FF30704700BFFEE70000A6
:1003F0000748006840F08070054908600020054902
:1004000048600846006840F001000860704700003E
:10041000FCED00E0001000E001484068704700007B
:10042000001000E031B50024FFF7E2FF104800683B
:100430001049B0FBF1F0009900FB01F500BFFFF798
:10044000EBFF034611E0FFF7E7FF02469A420CD0AC
:100450009A4202D9D01A044403E0C3F1FF30104499
:1004600004441346AC4200D300E0ECE700BF38BDC3
:100470000000002040420F0010B5084808490860FD
:100480004FF4E1304860002105488160C16001619E
:1004900081610C21416103F063F810BD0038014017
:1004A0009400002000B585B000BF0C48806940F082
:1004B00020000A4988610846806900F02000009009
:1004C00000BF00BF40200190012002900320049053
:1004D00001A9034802F056FA05B000BD0010024021
:1004E0000014014010B5FFF7DDFF01224021024852
:1004F00002F0F0FB10BD0000001401401FB54020C9
:10050000009000200190012002906946014802F00D
:1005100039FA1FBD001401401FB540200090012092
:100520000190032003906946014802F02BFA1FBD99
:100530000014014070B50025002424E000BF4021D4
:10054000134802F0BFFB0028F9D02820FFF76AFF0C
:1005500040210F4802F0B6FB01280DD100BF402119
:100560000B4802F0AFFB0128F9D0C4F107010120CC
:100570008840C0B2054304E0C4F10701012088406F
:100580008543601CC4B2082CD8DB284670BD00002F
:100590000014014010B50446FFF7BEFF00224021C1
:1005A000254802F097FB44F25060FFF73BFF012221
:1005B0004021214802F08EFB1E20FFF733FFFFF79A
:1005C0009DFF40211C4802F07DFB78BB00BF40210D
:1005D000194802F077FB0028F9D000BF40211648E7
:1005E00002F070FB0128F9D0FFF7A4FF2070FFF79D
:1005F000A1FF6070FFF79EFFA070FFF79BFFE07008
:10060000FFF798FF2071FFF787FF012240210A487A
:1006100002F060FB207861780844A1780844E17812
:1006200008442179884202D1002010BD01E0012058
:10063000FBE70120F9E700000014014070470000CB
:1006400010B51648007898B91548B0F900003C2854
:100650000EDB012011490870C9201249088010489A
:10066000B0F9003010A2C92114A000F0B3FA14E0D0
:100670000A48007888B10A48B0F9000037280CDC35
:10068000002006490870074908800548B0F9003085
:100690000CA2C92112A000F09DFA10BD610000203B
:1006A0003E000020400000206F7665722074656D6A
:1006B000706572617475726500000000616C617232
:1006C0006D0000006F7665722074656D70657261F3
:1006D0007475726520636C6561726564000000006A
:1006E000696E666F0000000010B592B004462021CC
:1006F0000AA8FFF754FD202102A8FFF750FD0020B3
:10070000019020230AAA44A1204603F0BBF910B9A6
:1007100000208DF82800202302AA40A1204603F0E3
:100720005BF928B93FA003F065FD002012B010BDB1
:1007300047A102A8FFF761FD90B900204649087063
:1007400003F078FF4FF480304449086044A003F080
:1007500051FD4EA3002201210AA800F023F9E5E78C
:100760004CA102A8FFF749FDC0B901203A49087021
:1007700000204A4908604A49086040F69800494903
:10078000086001203549086047A003F033FD50A3FD
:10079000002201210AA800F005F9C7E74EA102A82E
:1007A000FFF72BFD00282BD101AA50A1204603F012
:1007B000C9F828B10198002802DB0198FA2809DD60
:1007C0004CA003F017FD57A3022200210AA800F055
:1007D000E9F8ABE7019800EB80004000554908605C
:1007E0001D48007808B903F025FF53A0019903F0D4
:1007F00001FD5BA3002201210AA800F0D3F895E7D0
:1008000002A95AA003F0F6FC61A3012200210AA864
:1008100000F0C8F88AE70000696400006163746949
:100820006F6E00000D0A5B45454720434D445D2037
:100830006E6F2022616374696F6E22206669656C39
:1008400064202D2064726F707065640D0A000000D2
:10085000737461727400000078000020100C014075
:100860000D0A5B45454720434D445D20737461721A
:1008700074202D3E206368617267696E6720284C82
:10088000454432204F4E290D0A00000073746172F6
:100890007465640073746F70000000006C000020C9
:1008A00074000020700000200D0A5B45454720437E
:1008B0004D445D2073746F70202D3E2069646C651B
:1008C00020284C454432204F4646290D0A0000009E
:1008D00073746F70706564007365745F63686172D0
:1008E00067655F706F7765720000000076616C75F8
:1008F000650000000D0A5B45454720434D445D20DF
:100900007365745F6368617267655F706F77657246
:100910002076616C756520696E76616C69640D0A7C
:1009200000000000696E76616C69642076616C7508
:1009300065000000440000200D0A5B454547204348
:100940004D445D207365745F6368617267655F70B5
:100950006F776572203D202564206B570D0A0000DB
:10096000706F776572207365740000000D0A5B4537
:10097000454720434D445D20756E737570706F72EE
:1009800074656420616374696F6E3D25730D0A00A0
:10099000756E737570706F727465642061637469CD
:1009A0006F6E00002DE9F0418EB007460C461546EB
:1009B0001E46282204A9384603F08AFF00F0F4FA04
:1009C00080460EB1304600E012A00CB112A100E04A
:1009D00012A104AB13A2CDE90208CDE900154FF432
:1009E000A0711E4803F016FC002301221B491CA025
:1009F00001F0B8F838B9194922A003F0FBFB002038
:100A00000EB0BDE8F081154926A003F0F3FB0120EC
:100A1000F6E70000000000006F6B00006572726F67
:100A2000720000007B226964223A25732C227265D1
:100A300073756C74223A222573222C22636F6465CD
:100A4000223A25642C226D7367223A222573222CC8
:100A5000227473223A256C757D0000003413002047
:100A60006565672F7369746530312F677730303172
:100A70002F636861726765722F63683030312F6150
:100A8000636B00005B4545472041434B5D2070751B
:100A9000626C697368204641494C45443A2025738D
:100AA0000D0A00005B4545472041434B5D202573FF
:100AB0000D0A000030B599B00123274810210268C3
:100AC00015A803F041FF022324481021026811A851
:100AD00003F03AFF01232248102102680DA803F019
:100AE00033FF02231F481021026809A803F02CFFDE
:100AF00000F05AFA044604F0CFFA05461A48B0F955
:100B000000001A49097809AACDE90604CDE90421B3
:100B10000DAA11A815A9164B1B88CDE90031CDE906
:100B200002022B46134A4FF4A071134803F072FBE4
:100B300001231A46104911A001F014F830B90E49EA
:100B400018A003F057FB002019B030BD0A491DA0C2
:100B500003F050FB0120F7E7700000207400002034
:100B60006C000020380000203E0000203C000020E7
:100B700040000020F8570008341300206565672FF7
:100B80007369746530312F67773030312F63686156
:100B9000726765722F63683030312F7374617475BA
:100BA000730000005B454547204445565D20707545
:100BB000626C697368204641494C45443A2025736C
:100BC0000D0A00005B454547204445565D202573CE
:100BD0000D0A00002DE9FF4104460D4616461F464A
:100BE00000F0E2F980460EB1304600E012A0CDE9F7
:100BF0000278CDE900500CB1204600E00FA003467A
:100C000010A24FF4A0711F4803F004FB002301223F
:100C10001C491DA000F0A6FF38B91A4924A003F012
:100C2000E9FA002004B0BDE8F081164928A003F0DD
:100C3000E1FA0120F6E7000000000000696E666F2F
:100C4000000000007B226C6576656C223A222573D9
:100C5000222C22636F6465223A25642C226D73670F
:100C6000223A222573222C2274656D70657261749C
:100C7000757265223A25642C227473223A256C75AC
:100C80007D000000341300206565672F736974656B
:100C900030312F67773030312F636861726765724A
:100CA0002F63683030312F6576656E740000000068
:100CB0005B454547204556545D207075626C6973ED
:100CC00068204641494C45443A2025730D0A0000EE
:100CD0005B454547204556545D2025730D0A0000AD
:100CE00070B58AB0142105A804F08EF800F05CF904
:100CF000064601F0F5FF4FF47A71B0FBF1F404F011
:100D0000BFF805469DF8140008B105A800E011A041
:100D1000CDE90346CDE9010510A015A3174A4FF40C
:100D2000A0710090164803F075FA01231A46144981
:100D300014A000F017FF30B911491CA003F05AFAB3
:100D400000200AB070BD0E4920A003F053FA012024
:100D5000F7E70000302E302E302E300053544D3344
:100D600032463130332B455350383236360000008E
:100D70004545472D312E302E300000009058000898
:100D8000341300206565672F7369746530312F67F0
:100D9000773030312F676174657761792F677730ED
:100DA00030312F7374617475730000005B454547E3
:100DB0002047575D207075626C6973682046414911
:100DC0004C45443A2025730D0A0000005B45454719
:100DD0002047575D2025730D0A00000000B5A1B023
:100DE0000DA011A314A28021009001A803F012FA13
:100DF0004FF4FA63002217A101A800F035FA20B9D8
:100E000015A003F0F7F921B000BD03A206A122A0AE
:100E100003F0F0F900BFF6E7636E2E706F6F6C2E73
:100E20006E74702E6F7267006E74702E616C6979CB
:100E3000756E2E636F6D000041542B434950534E25
:100E400054504346473D312C302C222573222C220E
:100E5000257322004F4B00005B45454720534E54FD
:100E6000505D20434950534E5450434647207265CD
:100E70006A6563746564202D2074732077696C6CD7
:100E80002066616C6C206261636B20746F207570EA
:100E900074696D650D0A00005B45454720534E544B
:100EA000505D20636F6E6669677572656420287493
:100EB0007A3D302F5554432C2025732C202573293F
:100EC0000D0A000008B50020009001F009FF11494B
:100ED00008604FF4FA6300220FA110A000F0C4F9DB
:100EE00008B9002008BD6946104803F0EFFE08B9B4
:100EF0000020F7E70E490098086001F0F1FE0D4967
:100F0000086001200C4908700CA0009903F072F9E8
:100F10000120E7E7500000204F4B000041542B43D5
:100F20004950534E545054494D453F00E80000206D
:100F3000480000204C000020540000205B4545473D
:100F400020534E54505D2074696D652073796E6333
:100F500065642C2065706F63683D256C750D0A0013
:100F600010B501F0BDFE04460B48007848B90B48A7
:100F70000068201A4EF66021884201D3FFF7A2FFD5
:100F800010BD07480068201A0649884201D3FFF7C0
:100F900099FF00BFF4E7000054000020500000203B
:100FA0004C0000200097490110B501F099FE04465D
:100FB0000948007820B94FF47A70B4FBF0F010BD06
:100FC00006480068201A4FF47A71B0FBF1F004492A
:100FD00009680844F3E70000540000204C0000209A
:100FE0004800002070B501F07BFE04461E480068F2
:100FF00010B91D48046070BD1B480068251A1A48C6
:1010000004601A48007800B1F5E719480068A8B1F3
:1010100018490968164A126802FB05101649B0FB08
:10102000F1F1164A12681144144A11601249B0FBDA
:10103000F1F201FB12010F4A116000BF1048007865
:10104000401CC0B20E49087006280ADB0020087058
:101050000C480078642804DA0A480078401C0949E2
:10106000087000BFC7E7000058000020780000208B
:101070006C0000205C000020407E0500380000204D
:10108000600000203C00002010B500BFEFF310808E
:10109000044672B602F06AFD0B48B0F800086FF320
:1010A0000E000949A1F800080846B0F8000820F42D
:1010B0000040A1F800080020087002F015FE20464C
:1010C00080F3108800BF10BDE800002003480078BE
:1010D00008B1012070470020FCE700001800002044
:1010E0002DE9F05F05460F4690461C460A9E01F02A
:1010F000F7FD82464FF6FF7B00202070307000BF66
:101100001948B0F80008C0F30E09D94520D0CB46E5
:1011100045B129461448FFF74DF808B1012002E017
:10112000002000E00020207047B139460E48FFF74C
:1011300041F808B1012002E0002000E000203070FA
:10114000207808B9307818B1142001F007FC07E0C6
:1011500002F096FB01F0C4FDA0EB0A004045CFD39E
:1011600000BFBDE8F09F0000E800002010B500249B
:1011700001229103124801F0ADFD12A003F03AF8EC
:101180004FF4FA6001F0EAFB15E0214613A003F0EA
:1011900031F84FF4FA73002219A11AA000F064F894
:1011A00028B1214618A003F025F8012010BD01F058
:1011B00083F8601CC4B20A2CE7DB0020F6E70000CD
:1011C000002001400D0A4154EFBFBDEFBFBDEFBF8E
:1011D000BDEFBFBD2E2E2E2E2E0D0A000D0A41543E
:1011E000EFBFBDEFBFBDEFBFBDD4B4EFBFBDEFBF1D
:1011F000BDEFBFBD2025642E2E2E2E2E2E0D0A00F3
:101200004F4B0000415400000D0A4154EFBFBDEFA9
:10121000BFBDEFBFBDEFBFBDEFBFBDEFBFBDEFBFF8
:10122000BDEFBFBDEFBFBDC9B9EFBFBD2025642E67
:101230002E2E2E2E2E0D0A00FEB504460D46164605
:1012400001200849087001A802AB324629460090E7
:101250002046FFF745FF0020024908709DF808006E
:10126000FEBD000018000020FEB506460C461546DF
:101270001F46002002900190FFF706FF0120184949
:101280000870324617A1194802F03EFF2CB925B963
:101290000020134908700120FEBD01A802AB3A46A8
:1012A000294600902046FFF71BFF00200C490870DC
:1012B0000F4910A002F09EFF54B14DB19DF80800F7
:1012C00010B99DF8040008B10120E5E70020E3E72C
:1012D00014B19DF80800DFE79DF80400DCE700008A
:1012E0001800002025730D0A00000000004800408F
:1012F000E80000205B41542052585D202573000017
:1013000000B58BB006A101A802F09EFF4FF4FA735E
:10131000002207A101A8FFF7A7FF0BB000BD000046
:1013200041542B4357444843503D312C3100000079
:101330004F4B000010B586B004460CB1012000E010
:101340000020024606A101A802F07EFF4FF4FA73C6
:10135000002207A101A8FFF787FF06B010BD00001B
:1013600041542B4349504D55583D25640000000021
:101370004F4B000000B585B000BF1748806940F4AE
:101380008070154988610846806900F4807000907B
:1013900000BF00BF4FF400500190012002900320D5
:1013A000049001A90D4801F0EDFA00BF0A488069D8
:1013B00040F48070084988610846806900F48070B4
:1013C000009000BF00BF4FF48040019001A9034886
:1013D00001F0D8FA05B000BD001002400020014025
:1013E00010B5FFF7C7FF01F081FA0122910304480D
:1013F00001F070FC01225103014801F06BFC10BDAB
:101400000020014030B59FB004460D462B462246D1
:1014100006A101A802F018FF41F28833002208A1BA
:1014200001A8FFF721FF1FB030BD000041542B433E
:10143000574A41503D222573222C22257322000059
:101440004F4B000010B54FF4966308A209A10AA003
:10145000FFF70AFF20B10CA002F0CCFE012010BD66
:101460000EA002F0C7FE0020F9E700004552524FDF
:10147000520000004F4B000041542B4D5154544337
:101480004C45414E3D3000005B4D51545420434C7F
:1014900045414E5D20646F6E650D0A005B4D5154F1
:1014A0005420434C45414E5D206E6F206578706C32
:1014B0006963697420636C65616E2061636B2C20C5
:1014C000636F6E74696E756520616E797761790DF1
:1014D0000A00000000B5B1B040F25B730DA211A18B
:1014E00001A802F0B1FE4FF47A63002213A101A813
:1014F000FFF7BAFE30B912A1144802F07BFE0020BB
:1015000031B000BD40F25B7202A111A002F072FE88
:101510000120F5E73139322E3136382E382E393761
:101520000000000041542B4D515454434F4E4E3D4A
:10153000302C222573222C25642C30004F4B0000C8
:1015400050494C452D3030310000000080590008D2
:101550005B4D51545420434F4E4E5D204F4B206302
:101560006F6E6E656374656420746F2025733A2511
:10157000640D0A0000B5C5B04FF400722B492CA0D1
:1015800003F07AF830A002F035FE0120274A3EA38E
:10159000CDE90120009303903C2345A2010205A858
:1015A00002F038FE4FF4966300224BA105A8FFF726
:1015B0005BFE38B134A23C2148A002F01BFE0120A2
:1015C00045B000BD53A002F015FE61A002F012FE6E
:1015D0003C226FA105A802F037FE4FF4966300226B
:1015E0003DA105A8FFF740FE28B13C2170A002F004
:1015F00001FE0120E4E77EA002F0FCFD3C228AA16E
:1016000005A802F021FE4FF49663002232A105A83E
:10161000FFF72AFE28B13C218BA002F0EBFD012050
:10162000CEE7964802F0E6FD0120C9E7941F0020AE
:101630007B226F6E6C696E65223A66616C73652CF5
:10164000227473223A307D000D0A5B4D51545420B0
:10165000434F4E4E4346475D205052494D415259EB
:101660003A20372D706172616D20636C65616E3D4B
:1016700030202B204C57542028646F6320C2A7329F
:101680002FC2A735290D0A006565672F7369746538
:1016900030312F67773030312F676174657761792A
:1016A0002F67773030312F737461747573000000C9
:1016B00041542B4D515454434F4E4E4346473D30B9
:1016C0002C25752C302C222573222C222573222CBC
:1016D00025642C25640000004F4B00005B4D5154E5
:1016E0005420434F4E4E4346475D204F4B20286BBE
:1016F000613D25757320636C65616E3D656E616249
:101700006C65642C204C5754202D3E202573290DE8
:101710000A0000005B4D51545420434F4E4E434647
:10172000475D204C57542076617269616E74207257
:10173000656A6563746564202D3E207265747279F4
:1017400020776974686F7574204C57540D0A000037
:101750000D0A5B4D51545420434F4E4E4346475D56
:10176000205052494D4152593A206F66666963696B
:10177000616C20372D706172616D20636C65616EE4
:101780003D302028646F6320C2A732290D0A000073
:1017900041542B4D515454434F4E4E4346473D30D8
:1017A0002C25752C302C22222C22222C302C30007F
:1017B0005B4D51545420434F4E4E4346475D204F9E
:1017C0004B20286F6666696369616C20372D7061F4
:1017D00072616D2C206B613D25757320636C6561B2
:1017E0006E3D656E61626C6564290D0A0000000043
:1017F0005B4D51545420434F4E4E4346475D204667
:10180000414C4C4241434B3A20372D706172616D1F
:1018100020616C7465726E61746520636C65616EC5
:101820003D310D0A0000000041542B4D51545443EA
:101830004F4E4E4346473D302C25752C312C2222ED
:101840002C22222C302C30005B4D51545420434F1D
:101850004E4E4346475D204F4B2028372D70617216
:10186000616D20616C7420636C65616E3D312C206C
:101870006B613D257573290D0A000000E0580008D2
:1018800010B5A8B00446A0216846FEF788FC14B93C
:10189000002028B010BD1A48007850B10020194926
:1018A0000870012018490870184802F0A3FC0020B5
:1018B000EFE7A0226946204603F08AFC18B92046CB
:1018C00000F026FAE5E712A16846FEF796FC18B983
:1018D0002046FEF709FFDCE716A16846FEF78DFCFF
:1018E00020B11BA16846FEF788FC18B9204600F01D
:1018F0000FFACEE769461DA002F07CFC0020C8E785
:101900002500002068000020780000205C5B0008B3
:101910006565672F7369746530312F6777303031B3
:101920002F636861726765722F63683030312F638F
:101930006D6400002F6465766963652F50494C45DE
:101940002D3030312F636F6E74726F6C00000000A9
:101950002F6465766963652F50494C452D303031D1
:101960002F636F6E74726F6C6C0000000D0A5B4D1C
:101970005154542052585D20756E68616E646C65D8
:101980006420746F7069633D2573202D2064726F2D
:10199000707065640D0A000030B58BB004460D46CA
:1019A000202103A8FEF7FBFB1E48007830B11D4B39
:1019B0001DA2202103A802F02DFC0BE01B480068AB
:1019C000401C1A490860084619A22021036803A890
:1019D00002F020FC03A80DB1294600E015A1234622
:1019E000164ACDE900104FF48071154802F012FC40
:1019F00000230122124913A000F0B4F848B90020D6
:101A0000084908700E4916A002F0F4FB00200BB044
:101A100030BD00200349087009491AA002F0EAFB12
:101A20000120F4E774140020257300007C000020DE
:101A3000256C75007375636365737300A85D00089A
:101A4000942200202F6465766963652F50494C45C8
:101A50002D3030312F636F6E74726F6C0000000098
:101A60005B4D515454205245504C595D20464149DC
:101A70004C4544207061796C6F61643A2025730D88
:101A80000A0000005B4D515454205245504C595DA2
:101A9000204F4B207061796C6F61643A2025730D83
:101AA0000A0000000EB51248007812490968124A6F
:101AB0001268CDE9002102901048114A4FF480715C
:101AC0000368104802F0A6FB01231A460D490EA038
:101AD00000F048F828B90B4911A002F08BFB002058
:101AE0000EBD084918A002F085FB0120F8E70000B0
:101AF0007800002074000020700000206C0000209E
:101B0000EC5D0008942100202F6465766963652FE1
:101B100050494C452D3030312F737461747573000A
:101B20005B4D515454205055422053544154555309
:101B30005D204641494C4544207061796C6F616479
:101B40003A2025730D0A00005B4D51545420505526
:101B500042205354415455535D204F4B2025730D63
:101B60000A0000002DE9FE430546894616461F4639
:101B70004846FEF73BFB80464FF400722E4948462C
:101B800002F07AFD2C482B462CA24FF440718DE8D0
:101B9000C100324802F03EFB0446002C0DDDFF2C54
:101BA0000BDCB4F5407F08DA40F6B83300222CA1F4
:101BB0002A48FFF759FBBDE8FE832A48007838B968
:101BC00001202849087002022146274802F012FB32
:101BD0002B4626A24FF440712048CDE9008602979B
:101BE00002F018FB00231A4619461C48FFF73CFB7D
:101BF00040F6B83225A127A0FFF71EFB30B94246B8
:101C0000294625A002F0F6FA0020D4E71FFA88F151
:101C1000484600F02FFC4FF4FA522BA12EA0FFF7FC
:101C20000BFB30B9424629462EA002F0E3FA002011
:101C3000C1E70120BFE70000941F002041542B4D55
:101C40005154545055423D302C222573222C2225CC
:101C500073222C25642C256400000000941C0020B5
:101C60004F4B000088000020B45C000841542B4D0D
:101C70005154545055425241573D302C2225732225
:101C80002C25642C25642C25640000004552524FFD
:101C9000520000003E0000005B4D5154542050554E
:101CA000425241575D206E6F20273E272070726F91
:101CB0006D70742028746F7069633D2573206C65A6
:101CC0006E3D2564290D0A002B4D51545450554248
:101CD0003A4641494C0000002B4D51545450554256
:101CE0003A4F4B005B4D515454205055425241578E
:101CF0005D204641494C45442028746F7069633D1E
:101D00002573206C656E3D2564290D0A00000000D6
:101D100030B599B004462546202111A8FEF73FFAB8
:101D2000202109A8FEF73BFA202101A8FEF737FA87
:101D30004FF0FF30009015B9002019B030BD494870
:101D4000007850B1002048490870012047490870C8
:101D5000474802F04FFA0020EFE746A12846FEF779
:101D600029FA20B146A12846FEF724FA08B9002036
:101D7000E3E7202311AA44A1284601F02DFE60B11B
:101D8000202309AA42A1284601F026FE28B16A466E
:101D900041A1284601F0D6FD20B941A002F02AFA5F
:101DA0000020CAE74EA111A8FEF727FA20B94EA1DC
:101DB00009A8FEF722FA20B14DA002F01BFA00207C
:101DC000BBE7202301AA5AA1284601F05BFE30B1EF
:101DD00001AB58A22021584802F01CFA02E0002072
:101DE00055490870009860B10098022809D05348FE
:101DF000009902F0FFF952A10098FFF7CDFD0120F4
:101E00009BE70098A8B90020184908704120514963
:101E1000086040F6A2005049086040F686304F49FD
:101E200008604FF480304E4908604EA002F0E2F99D
:101E300011E001200D49087000204649086047491B
:101E4000086040F698004449086001204449086051
:101E5000514802F0CFF951A10098FFF79DFD0120F4
:101E60006BE70000250000206800002078000020BB
:101E70000C5B000822636F6D6D616E6422000000D0
:101E8000226F6E6F66662200747970650000000034
:101E90006E616D650000000076616C756500000084
:101EA0000D0A5B4D51545420524543565D206D69D7
:101EB0007373696E67206669656C6473202F206296
:101EC000616420666F726D6174202D2073696C658A
:101ED0006E746C792064726F707065642E0D0A00E8
:101EE000636F6D6D616E64006F6E6F6666000000FB
:101EF0000D0A5B4D51545420524543565D20747970
:101F000070652F6E616D6520213D20636F6D6D6181
:101F10006E642F6F6E6F6666202D2073696C656E20
:101F2000746C792064726F707065642E0D0A000005
:101F3000696400002573000074140020045D00082B
:101F40006661696C5F696E76616C69645F76616C0D
:101F5000756500006C0000207000002074000020F7
:101F6000100C01400D0A5B4D51545420434D445D0B
:101F7000206F6E6F66663D30202D3E2053544152D7
:101F800054206368617267696E6720284C4544324B
:101F9000204F4E290D0A00003C59000873756363F9
:101FA0006573730070B50325002417E0002C0CDD69
:101FB000962000F0D3FC0BA10F48FEF7FBF820B1F0
:101FC0000E4802F017F9002070BD0D4951F82400A9
:101FD00002F0BCFD08B90020F6E7641C032CE5DB29
:101FE0000120F1E72B4D515454444953434F4E4E79
:101FF0004543544544000000E8000020105C000800
:10200000A452000800B5E1B02BA1314802F0F2F86B
:1020100030A032A328A233A1009001A802F014F945
:102020004FF4966300223AA101A8FFF71DF928B1E9
:1020300038A002F0DFF8012061B000BD404802F096
:10204000D9F81DA23FA101A802F0FEF84FF47A735F
:1020500000222FA101A8FFF707F920B93FA002F045
:10206000C9F80020E8E71DA247A101A802F0ECF89A
:102070004FF47A73002226A101A8FFF7F5F820B9E2
:1020800047A002F0B7F80020D6E712A24FA101A89E
:1020900002F0DAF84FF47A7300221DA101A8FFF7CD
:1020A000E3F820B94FA002F0A5F80020C4E758A03B
:1020B00002F0A0F80120BFE773696D2D70696C65AF
:1020C0002D50494C452D3030312D617400000000F9
:1020D000B45A000831323334353600006368617217
:1020E0006765000041542B4D51545455534552439C
:1020F00046473D302C312C222573222C2225732279
:102100002C222573222C302C302C2222000000009F
:102110004F4B00005B4D515454205553455243469C
:10212000475D204F4B2028382D706172616D207003
:1021300072696D6172792070617468290D0A0000FE
:10214000A85B000841542B4D515454434C49454E13
:102150005449443D302C2225732200005B4D5154DC
:10216000542046414C4C4241434B5D2041542B4D41
:10217000515454434C49454E544944204641494CDE
:102180004544210D0A00000041542B4D5154545533
:102190005345524E414D453D302C222573220000BF
:1021A0005B4D5154542046414C4C4241434B5D20C1
:1021B00041542B4D515454555345524E414D452099
:1021C0004641494C4544210D0A00000041542B4D25
:1021D00051545450415353574F52443D302C2225B3
:1021E000732200005B4D5154542046414C4C4241F7
:1021F000434B5D2041542B4D515454504153535740
:102200004F5244204641494C4544210D0A000000EC
:102210005B4D51545420555345524346475D204F22
:102220004B2028332D636F6D6D616E642066616C89
:102230006C6261636B2070617468290D0A00000094
:1022400010B5044624B1012C0AD0022C18D10FE09D
:1022500040F6C4130BA20EA10EA0FFF705F810BDA7
:1022600040F6C41307A20AA10DA0FEF7FDFFF6E792
:1022700040F6C41303A206A10CA0FEF7F5FFEEE79B
:102280000020ECE76E6F206368616E6765000000F8
:102290004F4B000041542B43574D4F44453D3100B7
:1022A00041542B43574D4F44453D320041542B433D
:1022B000574D4F44453D330010B500224FF4804147
:1022C000064800F007FD4FF4FA7000F047FB0122CA
:1022D0009103024800F0FEFC10BD00000020014008
:1022E0001CB53F48007880B1042402E03D48FFF768
:1022F000C7FA201EA4F1010406DD4FF4007139482D
:1023000001F09EFC0028F1D100BF02F015FAFEF7A3
:1023100027FE3548007810B13148007800B91CBD5F
:102320000020314908703148FEF734F988B9304847
:1023300001782E48C078CDE900012C488378427896
:1023400001782CA001F056FF284880783849088091
:1023500002E0384801F04EFFFEF744FE0124FEF78C
:10236000A9FB00B90024FFF79DFB00B900247CB154
:1023700000203149087000F0B3FC30490860304853
:102380000068D0B12E4801682E4801F033FF14E0F8
:1023900029480078401C2849087003220846017823
:1023A00029A001F027FF24480078032805DB00203E
:1023B0000B49087002F0B0FDB1E7FEF741F900F0FB
:1023C0008FFC2B490968401A4EF66021884205D3DC
:1023D00000F086FC26490860FEF782FC00BF9EE7FD
:1023E00068000020341100200D0000202000002093
:1023F000780000200D0A5B44485431315D20487557
:102400006D693D25642E25642025255248202054E1
:10241000656D703D25642E25642043207C206F6E01
:102420006F66665F73746174653D25750D0A000003
:102430003E0000206C560008260000202C000020E2
:102440001C000020D85300085B5055424C495348AB
:102450005D204641494C454420636F6E736563754A
:10246000746976652025752F25750D0A000000001A
:102470003000002010B5024600200CE000BF0B4BDE
:102480001B6803F08003002BF9D0135C074C241D5C
:102490002360431C98B28842F0DB00BF034B1B68EB
:1024A00003F04003002BF9D010BD000000480040AD
:1024B00038B540F25B7066A369A26CA100906D48CC
:1024C00001F098FE6CA001F095FE012251037248C4
:1024D00000F000FC71A001F08DFE002422E0641CDD
:1024E0000A2C0DDB7A4801F085FE08E07948006887
:1024F00080F0200077490860C82000F02FFAF5E747
:1025000000224FF48041644800F0E4FB782000F0A2
:1025100025FA01229103604800F0DCFB4FF4FA70C9
:1025200000F01CFAFEF722FE0028D8D06AA001F0C5
:1025300061FE00BF0020FEF7FDFE0028FAD072A069
:1025400001F058FE00BF0020FFF77AFE0028FAD005
:1025500078A001F04FFE00BFFEF7D2FE0028FBD0AE
:102560007CA001F047FE00BF88A140A0FEF74AFF13
:102570000028F9D088A001F03DFE00BFFFF742FD22
:102580000028FBD0914801F035FEFEF7F3FF90A044
:1025900001F030FE00BFFEF79DFF0028FBD00021B8
:1025A00094A001F027FE22E0A2A001F023FEFEF796
:1025B00049FF4FF4967000F0D1F903E04FF49670A4
:1025C00000F0CCF9FFF71EFD0028F7D0FEF7D2FF90
:1025D000962000F0C3F903E04FF4967000F0BEF9C6
:1025E000FEF778FF0028F7D0962000F0B7F9FFF744
:1025F000D9FC0028D8D001F05FFB01209D4908706C
:1026000000F06EFB9C49086000F06AFB9B49086083
:102610009BA001F0EFFDFEF7E1FB40F2DC5000F083
:102620009DF9FEF74FFC10B9A34801F0E3FD00F05F
:1026300057FBA2490860FEF753FBA1A001F0DAFDA9
:10264000A94801F0D7FD20202249091D086038BDA6
:102650003139322E3136382E382E3937000000000D
:1026600050494C452D3030310000000066656966E8
:1026700065690000B85600080D0A456E61626C6518
:1026800020455350383236362043485F5044202E80
:102690002E2E2E2E2E0D0A00002001400D0A415430
:1026A00020636F6D6D756E69636174696F6E207400
:1026B0006573742028757020746F20313020726526
:1026C0007472696573292E2E2E2E2E2E0D0A00008F
:1026D000885500080C0C01400D0A536574204349CD
:1026E000504D55583D30202873696E676C65206CDD
:1026F000696E6B20666F72204D515454292E2E2E18
:102700002E2E2E0D0A0000000D0A53657420576905
:102710004669206D6F6465203D2053544120286335
:102720006C69656E74206D6F6465292E2E2E2E2EB9
:102730002E0D0A000D0A456E61626C652044484307
:10274000502043555252454E54202E2E2E2E2E2EC2
:102750000D0A00000D0A436F6E6E656374205769A1
:1027600046692028636865636B20535349442F7082
:1027700061737377642F322E3447206F6E6C79212A
:1027800029202E2E2E2E2E2E0D0A00006C696A692D
:10279000616C696E670000000D0A4D51545420555C
:1027A0005345524346472028436C69656E7449443B
:1027B0002F757365726E616D652F70617373776FBE
:1027C0007264292E2E2E2E2E2E0D0A00685400081B
:1027D0000D0A4D51545420434F4E4E4543542074DE
:1027E0006F2062726F6B6572202E2E2E2E2E2E0D94
:1027F0000A0000000D0A4D515454205355425343D2
:10280000524942452028646F75626C652D4C3A2010
:10281000636F6E74726F6C202B20636F6E74726FB7
:102820006C6C2C20516F533D2564292E2E2E2E2E9C
:102830002E0D0A005B535441525455505D205355A0
:1028400042207374616765206661696C65642E203F
:1028500052656275696C64204D515454206C6179E5
:102860006572206265666F72652072657472792E7A
:102870000D0A000068000020280000202C00002025
:102880000D0A534E54502074696D652073796E6340
:1028900020287473206669656C64206E65656473B6
:1028A00020556E6978207365636F6E6473292E2ED0
:1028B0002E2E2E2E0D0A00007C570008300000201E
:1028C0000D0A455350383236362046554C4C20437D
:1028D0004841494E20434F4E4649475552454420B2
:1028E0004F4B0D0A000000000055000810B51248BB
:1028F000124908604FF4E130486000210F488160C0
:10290000C16001610C2141610021816100F028FE5C
:102910000A480068C06840F0200008490968C8609B
:1029200006480068C06840F0100004490968C860A3
:1029300000F006F810BD000000480040EC10002038
:1029400010B5052000F088FA00220121272000F0B0
:1029500045FA272000F032FA10BD000070B5044699
:1029600000F0BEF906462546681C10B10448007800
:10297000054400BF00F0B4F9801BA842FAD370BD33
:102980000C0000202DE9F847024600239C467BE11D
:102990004FF0010808FA03F4D1F8008008EA0400B7
:1029A000A0427DD1DFF8F4A2D1F80480A8EB0A0997
:1029B000D0453AD014DCB8F1030F50D009DCB8F19F
:1029C000000F31D0B8F1010F1CD0B8F1020F49D17E
:1029D00020E0B8F1110F18D0B8F1120F42D11EE06B
:1029E000B9F5881F25D006DCB9F5803F20D0B9F5B0
:1029F000801F37D11AE0B9F5001F18D0B9F5041FB0
:102A000030D117E0D1F80CC02DE0D1F80C8008F1DE
:102A1000040C28E0D1F80C8008F1080C23E0D1F870
:102A20000C8008F10C0C1EE000BF00BF00BF00BF0F
:102A300000BF00BFD1F80880B8F1000F02D14FF0FD
:102A4000040C0BE0D1F80880B8F1010F03D14FF06E
:102A5000080C146102E04FF0080C546103E04FF0E1
:102A6000000C00E000BF00BFFF2801D8904601E045
:102A700002F104084646FF2802D84FEA830803E023
:102A8000A3F108084FEA88084746D6F800804FF0BF
:102A90000F0909FA07F928EA09080CFA07F900E012
:102AA0007AE048EA0908C6F80080D1F8048008F006
:102AB0008058B8F1805F6FD100BFDFF8E481D8F8AB
:102AC000188048F00108DFF8D891C9F81880C84686
:102AD000D8F8188008F00108CDF8008000BF00BFCA
:102AE0004FEAB9384FEA930958F829504FEA8378EA
:102AF0004FEA18794FF00F0808FA09F825EA080597
:102B0000DFF8A081424502D14FF0000824E0DFF851
:102B10009881424502D14FF001081DE0DFF88C8119
:102B2000424502D14FF0020816E0DFF884814245A9
:102B300002D14FF003080FE0DFF87881424502D15F
:102B40004FF0040808E0DFF87081424502D14FF0F1
:102B5000050801E04FF006084FEA83794FEA19793A
:102B600008FA09F848EA0505DFF850814FEA9309A9
:102B700048F82950D1F8048008F48018B8F5801F6F
:102B80000BD1DFF83C81D8F8008048EA0008DFF874
:102B90003091C9F800800AE075E0DFF82481D8F8A8
:102BA000008028EA0008DFF81891C9F80080D1F801
:102BB000048008F40018B8F5001F0ED1DFF800817A
:102BC00008F10408D8F8008048EA0008DFF8F0901F
:102BD00009F10409C9F800800DE0DFF8E48008F18C
:102BE0000408D8F8008028EA0008DFF8D49009F13A
:102BF0000409C9F80080D1F8048008F40038B8F559
:102C0000003F0ED1DFF8B880A8F10408D8F80080A2
:102C100048EA0008DFF8A890A9F10409C9F8008083
:102C20000DE0DFF89C80A8F10408D8F8008028EABD
:102C30000008DFF88C90A9F10409C9F80080D1F8E8
:102C4000048008F48038B8F5803F0ED1DFF870803A
:102C5000A8F10808D8F8008048EA0008DFF860907A
:102C6000A9F10809C9F800800DE0DFF85480A8F147
:102C70000808D8F8008028EA0008DFF84490A9F195
:102C80000809C9F800805B1CD1F8008028FA03F815
:102C9000B8F1000F7FF47CAEBDE8F887000011109A
:102CA0000010024000080140000C014000100140EB
:102CB0000014014000180140001C014008000140C0
:102CC00008040140024693680B400BB1012000E06C
:102CD000002070470AB1016101E00B0403617047F5
:102CE00001480068704700000400002070B50446E9
:102CF0000CB9012070BD4CF6CC402168086045F24B
:102D0000555021680860D4E9001048602168A06827
:102D10008860FFF7E5FF05460BE0FFF7E1FF401B8A
:102D2000272806D92068C06800F0030008B10320F6
:102D3000E0E72068C06800F003000028EDD14AF603
:102D4000AA20216808600020D4E701464AF6AA209C
:102D50000A6810600020704703480068034909783A
:102D60000844014908607047040000200C0000205E
:102D700070B504460E4800784FF47A71B1FBF0F05C
:102D80000C490968B1FBF0F5284600F0CFFB08B10B
:102D9000012070BD102C07D200222146501E00F0E9
:102DA0001DF80548046001E00120F2E70020F0E78B
:102DB0000C0000200000002008000020014608460A
:102DC000002809DB00F01F0301229A4043099B0001
:102DD00003F1E023C3F8002100BF70472DE9F05F45
:102DE00080460D461646002701F042FA074639464E
:102DF0002A46334601F00700C0F1070ABAF1040F72
:102E000002D94FF0040A01E0C0F1070AD14600F1EF
:102E1000040ABAF1070F02D24FF0000A01E0A0F154
:102E2000030AD4464FF0010A0AFA09FAAAF1010A84
:102E30000AEA020A0AFA0CFA4FF0010B0BFA0CFB31
:102E4000ABF1010B0BEA030B4AEA0B0421464046A7
:102E500001F016FABDE8F09F00BF00F00702064B34
:102E600019684FF6FF031940044B0B4343EA022154
:102E7000014B196000BF70470CED00E00000FA053F
:102E800070B504460D460CB9012070BD5A48006863
:102E900000F00700A8420ED25748006820F0070053
:102EA0002843554908600846006800F00700A8421A
:102EB00001D00120E9E7207800F0020002281DD1AE
:102EC000207800F00400042805D14C48406840F404
:102ED000E0604A494860207800F00800082805D1E1
:102EE0004648406840F46050444948604348406860
:102EF00020F0F000A168084340494860207800F0C5
:102F0000010078B36068012806D13C48006800F4ED
:102F1000003090B90120B8E76068022806D1374830
:102F2000006800F0007040B90120AEE73348006847
:102F300000F0020008B90120A7E73048406820F0FF
:102F40000300616808432D494860FFF7C9FE064643
:102F500009E0FFF7C5FE801B41F28831884202D9A3
:102F6000032092E707E02548406800F00C00616804
:102F7000B0EB810FEDD12048006800F00700A842B7
:102F80000ED91D48006820F0070028431A49086040
:102F90000846006800F00700A84201D0012074E74D
:102FA000207800F00400042807D11448406820F479
:102FB000E060E168084311494860207800F00800AB
:102FC000082808D10D48406820F46050216940EA83
:102FD000C1000A49486000F03FF808494968C1F358
:102FE0000311074A515CC84006490860064800685A
:102FF000FFF7BEFE002048E700200240001002401C
:103000004852000800000020080000200148006825
:10301000704700000000002000B5FFF7F7FF0449EB
:103020004968C1F30221034A515CC84000BD000059
:10303000001002405852000800B5FFF7E7FF0449AE
:103040004968C1F3C221034A515CC84000BD000079
:10305000001002405852000870B5002100220024E0
:1030600000230020134D696801F00C05F5B1042D13
:1030700002D0082D19D101E00F4819E00F4DC1F31E
:103080008346AB5D01F4803555B10A4D6D68C5F3DB
:1030900040450B4E725D084D5D43B5FBF2F402E016
:1030A000084D03FB05F4204602E000BF024800BFC4
:1030B00000BF70BD0010024000127A00605200088C
:1030C0007052000800093D00F8B504460CB9012013
:1030D000F8BD207800F00100002878D0F84840685A
:1030E00000F00C0004280CD0F548406800F00C00FB
:1030F000082811D1F248406800F48030B0F5803FD4
:103100000AD1EF48006800F4003000285FD0606802
:1031100000285CD10120DBE700BF6068B0F5803F8C
:1031200006D1E748006840F48030E549086028E0AF
:10313000606858B9E248006820F48030E0490860CF
:103140000846006820F4802008601AE06068B0F546
:10315000A02F0BD1DA48006840F48020D8490860DD
:103160000846006840F4803008600AE0D4480068EF
:1031700020F48030D24908600846006820F480209E
:10318000086000BF606888B1FFF7AAFD054606E049
:10319000FFF7A6FD401B642801D9032098E7C84823
:1031A000006800F400300028F2D010E0FFF798FD2E
:1031B000054606E0FFF794FD401B642801D9032073
:1031C00086E7BF48006800F400300028F2D120787C
:1031D00000F00200022857D1B948406800F00C0006
:1031E00050B1B748406800F00C00082818D1B44826
:1031F000406800F4803098B9B148006800F00200DF
:1032000020B12069012801D0012061E7AC480068A5
:1032100020F0F800616940EAC100A949086033E084
:103220002069E8B10120A7490860FFF759FD05466C
:1032300006E0FFF755FD401B022801D9032047E7B0
:103240009F48006800F002000028F2D09C48006807
:1032500020F0F800616940EAC1009949086013E074
:10326000002098490860FFF73BFD054606E0FFF7A0
:1032700037FD401B022801D9032029E79048006848
:1032800000F002000028F2D1207800F008000828A1
:103290002DD1A069B8B101208B490860FFF720FD4E
:1032A000054606E0FFF71CFD401B022801D903205C
:1032B0000EE78348406A00F002000028F2D00120A7
:1032C00000F01CFD13E000207F490860FFF708FDB7
:1032D000054606E0FFF704FD401B022801D9032044
:1032E000F6E67748406A00F002000028F2D1207824
:1032F00000F00400042873D100277148C06900F071
:10330000805070B900BF6E48C06940F080506C4971
:10331000C8610846C06900F08050009000BF00BF3F
:1033200001276A48006800F48070B0B967480068F7
:1033300040F4807065490860FFF7D2FC054606E05E
:10334000FFF7CEFC401B642801D90320C0E65F488C
:10335000006800F480700028F2D000BFE068012807
:1033600006D15748006A40F001005549086227E03D
:10337000E06858B95248006A20F0010050490862DC
:103380000846006A20F00400086219E0E068052899
:103390000BD14B48006A40F00400494908620846D6
:1033A000006A40F0010008620AE04548006A20F027
:1033B0000100434908620846006A20F004000862E0
:1033C00000BFE068A0B1FFF78BFC054609E0FFF7FE
:1033D00087FC401B41F28831884202D9032077E6FE
:1033E00022E03748006A00F002000028EFD012E027
:1033F000FFF776FC054608E0FFF772FC401B41F240
:103400008831884201D9032062E62D48006A00F025
:1034100002000028F0D1012F05D12948C06920F011
:1034200080502749C86100BFE069C8B3244840689C
:1034300000F00C00082860D0E069022848D1002084
:1034400020490866FFF74CFC054606E0FFF748FCFC
:10345000401B022801D903203AE61948006800F011
:1034600000700028F2D1206AB0F5803F07D11448DF
:10347000406820F40030A168084311494860D4E94D
:10348000080108430E49496821F4741108430C49A6
:10349000486001200B490866FFF722FC054607E05B
:1034A0003DE0FFF71DFC401B022801D903200FE679
:1034B0000348006800F000700028F2D02FE0000000
:1034C000001002400000424280044242007000406E
:1034D000002014490866FFF703FC054606E0FFF7E5
:1034E000FFFB401B022801D90320F1E50E480068CC
:1034F00000F000700028F2D111E0E069012800D14D
:10350000E6E50948466806F48031206A814204D124
:1035100006F47011606A814201D00120D8E50020D4
:10352000D6E50000000042420010024070B504469B
:103530002546681EB0F1807F01D301200FE0681E90
:103540004FF0E02148610F214FF0FF3000F098FE6E
:1035500000204FF0E021886107200861002070BD45
:1035600010B504460CB9012010BDA06900B100E0FF
:1035700000BF94F8410028B9002084F8400020469C
:1035800000F02AF8242084F841002068C06820F464
:1035900000502168C860204600F028FC20680069BF
:1035A00020F49040216808612068406920F02A00DA
:1035B000216848612068C06840F400502168C860F4
:1035C00000206064202084F8410084F8420000203C
:1035D000606300BFC8E7000010B58AB0044600BFB2
:1035E0003648C06940F480203449C8610846C06943
:1035F00000F48020019000BF00BF00BF0846806932
:1036000040F4804088610846806900F48040019061
:1036100000BF00BF00BF0846806940F00400886119
:103620000846806900F00400019000BF00BF00BFA1
:103630000846806940F0040088610846806900F00F
:103640000400019000BF00BF00BF0846806940F041
:10365000080088610846806900F00800019000BFFA
:1036600000BF481506900220079001200890032013
:10367000099006A91248FFF785F94FF4806006907B
:103680000020079006A90E48FFF77CF94FF48060F0
:10369000029002200390012004900320059002A9CB
:1036A0000848FFF76FF94FF4006002900020039084
:1036B00002A90448FFF766F90AB010BD00100240E5
:1036C00000080140000C01402DE9F84F04460E4669
:1036D000174699464FF0000A94F8410020284AD135
:1036E00006B117B90120BDE8F88F002060642120E1
:1036F00084F84100FFF7F4FA8246A784E784A068C3
:10370000B0F5805F04D1206910B90025B04602E011
:1037100035464FF000081BE053460022802120462A
:10372000CDF8009000F0E0FB08B10320DBE745B9DD
:10373000B8F80000C0F308002168486008F10208EA
:1037400003E02878216848606D1CE08C401EE0840E
:10375000E08C0028E0D15346002240212046CDF8DD
:10376000009000F0C1FB08B10320BCE7202084F8E2
:1037700041000020B7E70220B5E700BFFEE70000E8
:1037800010B52348406A00F0005030B101202149B3
:10379000087021A02649086022E01D48406A00F018
:1037A000805018B123A02249086019E01848406AE7
:1037B00000F0006018B123A01D49086010E0144813
:1037C000406A00F0806018B121A01949086007E044
:1037D0000F48406A00F0004010B120A01449086072
:1037E0000120224908602248406840F48070204946
:1037F00048602048204908600520486040F6FF7175
:103800001D488160FFF772FA01201C49087010BD45
:1038100000100240110000204957444720574154EE
:103820004348444F472054494D454F5554000000EC
:1038300014000020736F667477617265207265737F
:1038400065740000706F7765722D6F6E0000000068
:103850004E5253542070696E000000006C6F772D3B
:10386000706F77657220726573657400E004424280
:10387000002004E000300040DC00002010000020A8
:1038800010B50348007810B10248FFF75EFA10BD8A
:1038900010000020DC000020014800687047000094
:1038A0001400002000B585B000BF2448806940F0B6
:1038B0000800224988610846806900F008000090ED
:1038C00000BF00BF00BF0846806940F00800886163
:1038D0000846806900F00800009000BF00BF00BFEC
:1038E0000846806940F0080088610846806900F059
:1038F0000800009000BF00BF20200190012002902E
:1039000003900320049001A90D48FFF73BF8012024
:10391000019001A90A48FFF735F80220019001A99A
:103920000748FFF72FF820200549103108600120D3
:1039300008600220086005B000BD000000100240D1
:10394000000C0140F0B591B007460D4616460FB188
:1039500005B116B9002011B0F0BD2B461CA24021C4
:1039600001A800F057FC01A93846FCF723FC0446E7
:103970000CB90020EFE701A8FCF738FC044400E094
:10398000641C207840B120782028F9D020783A288B
:10399000F6D020780928F3D02078222800D1641CA2
:1039A0002078302802DB207839280ADD20782D287D
:1039B00005D16078302802DB6078392801DD0020ED
:1039C000C9E72046FCF743FC30600120C3E7000054
:1039D00022257322000000002DE9F04790B08246B6
:1039E000884617469946BAF1000F06D0B8F1000F85
:1039F00003D017B1B9F1000F03DC002010B0BDE80F
:103A0000F08743461DA24021684600F003FC69464A
:103A10005046FCF7CFFB04460CB90020EEE76846A1
:103A2000FCF7E4FB044400E0641C207840B12078FB
:103A30002028F9D020783A28F6D020780928F3D029
:103A40002078222801D00020D8E7641C264600E018
:103A5000761C307810B130782228F9D1002502E0A8
:103A6000605D78556D1CA9F10100A84202DD601966
:103A7000B042F5D3002078550120BFE722257322FC
:103A8000000000002DE9F04790B0824688461746B6
:103A900099460026BAF1000F06D0B8F1000F03D006
:103AA00017B1B9F1010F03DC002010B0BDE8F087B9
:103AB00043462CA24021684600F0ACFB69465046C4
:103AC000FCF778FB04460CB90020EEE76846FCF7EB
:103AD0008DFB044400E0641C207840B1207820284D
:103AE000F9D020783A28F6D020780928F3D0207829
:103AF000222809D1641C254600E06D1C2878D0B12D
:103B000028782228F9D116E0254600E06D1C287897
:103B100088B128782C280ED028787D280BD02878DA
:103B2000202808D028780D2805D028780A2802D027
:103B300028780928EAD1A54201D80020B5E702E09B
:103B4000A05DB855761CA9F10100B04202DDA019B4
:103B5000A842F5D30020B855002E01DD0120A4E7CE
:103B60000020A2E722257322000000002DE9F04189
:103B7000DFF8B0804046B0F80008C0F30E042A48D1
:103B80000078012801D0BDE8F08128480088A042D3
:103B900002DD0020254908803EE0244A1288A21A4E
:103BA00091B2224A128808EB020000F071FF07462A
:103BB00077B90B20844202DD221A92B200E0002283
:103BC00011461A4A1288914201DD184A1180DAE73B
:103BD000A7EB080086B2A01B81B2384601F084FA38
:103BE000054615B911480680CDE74FF6FF708542AE
:103BF00004D106F10C000D4908800DE00CA2294605
:103C0000384600F067FF18B92946384601F0EAF94E
:103C100070190649088000BF04480088A042BCDB38
:103C200000BFB0E7E800002068000020820000200C
:103C30002274797065223A227265706C79220000D4
:103C40002DE9F04107460C46184805780FB1002CC5
:103C500002DC0020BDE8F08115480078854201D1E2
:103C60000020F7E7134901EB4520FCF7BFFA86B2C5
:103C7000601E80B2B04201DA601E86B20D4800EBD1
:103C8000452132463846FCF771FA0020B85500BF8E
:103C900000BF00BFBFF35F8F00BF00BF00BF28465B
:103CA00001F09AF9014908700120D3E78100002052
:103CB000800000209414002000BFEFF3108108461C
:103CC00072B606490978064A11700021054A11802A
:103CD000014681F3108800BF70470000800000207B
:103CE00081000020820000200020014908807047E8
:103CF0008200002000BFFEE77047704708B5084902
:103D00000968C9084FF47A72B1FBF2F1414300919E
:103D100000BF00BF00994A1E00920029F9D108BDDA
:103D2000000000207047000010B5FFF715F80B48A1
:103D30000078012810D10A480088401C08490880F2
:103D40000846008841F28831884205D100200449A4
:103D5000088001200349087010BD000068000020A1
:103D60000E0000200D00002010B5064800684FF43A
:103D70007A71B0FBF1F42046FFF7D8FB08B100BF21
:103D8000FEE710BD0000002000B58FB014210AA886
:103D9000FCF705FA28216846FCF701FA012000909B
:103DA000000401900020029002200790C1030891B6
:103DB0004FF4E01109916846FFF786F908B100BF9A
:103DC000FEE70F200A9002200B9000200C900E902E
:103DD0004FF480600D9002210AA8FFF751F808B156
:103DE00000BFFEE70FB000BD7047000070B504468D
:103DF0002168096921F44051E26811432268116188
:103E00002269A1681143626941EA02052168C96813
:103E100041F20C62914329432268D16021684969CB
:103E200021F44071A2691143226851612D4A216831
:103E3000914202D1FFF700F901E0FFF7EDF800EB46
:103E4000C00101EB001162689200B1FBF2F100EBDE
:103E5000C00202EB001263689B00B2FBF3F2642322
:103E6000B2FBF3F202EBC20303EB0212A1EB8201FD
:103E7000322202EB01116422B1FBF2F101F0F001F8
:103E800000EBC00202EB001263689B00B2FBF3F28E
:103E90006423B2FBF3F201EB021200EBC00101EB71
:103EA000001163689B00B1FBF3F100EBC00303EB6F
:103EB00000136668B600B3FBF6F36426B3FBF6F3B3
:103EC00003EBC30606EB0313A1EB8301322303EBE1
:103ED00001116423B1FBF3F101F00F0111442268D9
:103EE000916070BD003801402DE9F04104460D4657
:103EF00017469846069E34E0701C88B32EB1FEF734
:103F0000EFFEA0EB0800B0422BD900BF00BF216834
:103F10000C3151E8001F21F4D07021680C3141E8C8
:103F20000002002AF3D100BF00BF00BF2168143196
:103F300051E8001F21F001002168143141E800021E
:103F4000002AF3D100BF202084F8410084F8420009
:103F500000BF002084F8400000BF0320BDE8F081CE
:103F6000FFE7206800682840A84201D1012000E056
:103F70000020B842C0D00020F0E7000070B51D4816
:103F800000680168002201F0280000B3194C246881
:103F90006468E3B2184CB4F80048C4F30E00012280
:103FA00001F0200494B140F2FF74A0420EDA124CEA
:103FB0002354441C104DB5F8005864F30E050E4C04
:103FC000A4F8005800252646441C355500BF01F0D2
:103FD000100068B112B90748006840680648B0F898
:103FE000000820F4004000F50040034BA3F800084F
:103FF00070BD000094000020EA08002070B532482F
:1040000000680468002504F0280070B32E4A126886
:104010005268D1B22D4AB2F80028C2F30E00012531
:1040200004F0080222B12A4A1268521C284B1A6076
:1040300004F02002C2B140F2FF7290420FDA234A2C
:104040001154421C214BB3F8003862F30E031F4A8F
:10405000A2F8003800231646421CB35404E01C4A60
:104060001268521C1A4B1A6000BF04F0100050B3C3
:1040700015B91548006840681448B0F8000820F4E5
:10408000004000F500401149A1F8000811A10F48B7
:10409000FCF790F808B1012000E0002010490870FA
:1040A00010480078012801D1FFF760FDFDF70EF8F8
:1040B00048B90648B0F80008C0F30E00B0F5E06F4C
:1040C00001DBFCF7E1FF70BDEC100020E8000020F0
:1040D0001C000020434C4F5345440D0A00000000D3
:1040E0002500002068000020002200E0521C036828
:1040F00003F0800313B9034B9A42F7D3C1F30803CB
:1041000043607047400D03000FB42DE9F04186B0C5
:1041100006460D274FF00A080EA801905EE00D98A4
:1041200000785C281CD10D98401C0D9000786E28FA
:1041300009D072280FD139463046FFF7D5FF0D98C8
:10414000401C0D900BE041463046FFF7CDFF0D9827
:10415000401C0D9003E00D98401C0D9000BF3DE009
:104160000D980078252832D10D98401C0D900078CC
:10417000642811D0732825D1019810C8019004E05B
:1041800021783046FFF7B0FF641C20780028F7D173
:104190000D98401C0D9019E0019820C801900A224A
:1041A00002A9284600F012FC02AC04E02178304657
:1041B000FFF79AFF641C20780028F7D10D98401C67
:1041C0000D9003E00D98401C0D9000BF06E00D9887
:1041D00010F8011B0D903046FFF786FF0D98007810
:1041E00000289CD106B0BDE8F0015DF814FB00BFCB
:1041F000FEE700000FB4054B10B503A9044A02986E
:1042000000F066F810BC5DF814FB0000B14900082E
:104210008C0000200FB47CB50C0009AD01D0611EEC
:1042200000E00021CDE90001064B6A4629460898C6
:1042300000F04EF8002C02D0009A002111707CBCD6
:104240005DF814FB134600080FB4084B10B504A921
:1042500002AA039800F03CF8044602A9002000F0EE
:10426000E3F9204610BC5DF814FB00002946000865
:1042700002480068C0F30220704700000CED00E027
:1042800010B5002804DB0A07130E054A135406E094
:104290000A07140E034A00F00F031B1FD45410BD6D
:1042A00000E400E018ED00E00048704790000020B6
:1042B00002E008C8121F08C1002AFAD170477047EF
:1042C000002001E001C1121F002AFBD1704700004D
:1042D0002DE9FF4F8BB088460546002606E02528CD
:1042E0000BD0DDE90D1290476D1C761C2878002854
:1042F000F5D10FB03046BDE8F08F0024A146A246AC
:104300000122AE4900E0044315F8013F203B02FAC8
:1043100003F00842F7D128782A2810D06FF02F0236
:104320002878A0F13001092915D809EB890102EBA1
:10433000410144F0020400EB01096D1CF0E758F85C
:10434000041B5FEA010903D544F40054C9F10009D4
:1043500044F002046D1C28782E2817D115F8010F9F
:1043600044F004042A280ED06FF02F022878A0F120
:10437000300109290AD80AEB8A0102EB410100EB5E
:10438000010A6D1CF2E758F804AB6D1C28786C2804
:104390000FD006DC4C2817D068280DD06A2814D11D
:1043A00004E0742810D07A280FD10DE044F40014F2
:1043B0000AE044F4801401E044F440146978814236
:1043C00002D104F580146D1C6D1C2878692865D015
:1043D00006DC00288DD0632827D0642806D15DE054
:1043E0006E2808D073282AD0752877D0DDE90D1201
:1043F0009047761CE0E0C4F30250022809D003285D
:104400000DD0D8F8001004280DD00E6008F1040873
:10441000D2E0D8F80010F217C1E90062F6E7D8F848
:1044200000100E80F2E70E70F0E718F8041B8DF80C
:10443000001000208DF80100EB46012003E058F841
:1044400004BB4FF0FF3061074FF0000701D40AE0D2
:104450007F1C57450DDA8742FADB1BF8071000294D
:10446000F6D106E07F1C8742FCDB1BF80710002911
:10447000F8D1DDE90D23A9EB07008146214600F0C4
:10448000B1F83044C61904E0DDE90D121BF8010B48
:1044900090477F1EF8D22146484688E058F8040B22
:1044A000C4F302514FF00A0B032900D100B20429D2
:1044B00000D140B2002802DA40422D2102E021055D
:1044C00005D52B218DF82410012104E006E0E10739
:1044D00010D02021F6E708AF089113E058F8040B3C
:1044E000C4F302514FF00A0B032900D180B2042912
:1044F00000D1C0B20021EEE75946FBF7B5FE3031DE
:1045000007F8011D0028F7D1ADEB070000F1200BE3
:10451000600702D524F4803401E04FF0010ADA4547
:1045200002DDAAEB0B0000E00020824600EB0B014D
:1045300008980144A9EB01000A90E00306D4DDE9E4
:104540000D2321460A9800F04DF806444FF000096B
:1045500008E009A911F80900DDE90D12904709F1F9
:104560000109761C08998945F3DBE0030CD5DDE9E8
:104570000D2321460A9800F035F8064404E0DDE9F1
:104580000D1230209047761CBAF10001AAF1010A01
:10459000F5DC05E0DDE90D1217F8010B9047761CFC
:1045A000BBF10001ABF1010BF4DC0A982146DDE917
:1045B0000D2300F005F806446D1C97E6092801005C
:1045C0002DE9F041044600251E461746880404D410
:1045D00005E039462020B0476D1C641EF9D52846F9
:1045E000BDE8F0812DE9F041044600251E469046C5
:1045F000C80301D5302700E02027880404D505E052
:1046000041463846B0476D1C641EF9D52846BDE8C2
:10461000F0814A68002A06D00A68531C0B601070AB
:104620004868401E486070470A68531C0B60107051
:104630007047000040F6A2000A4908600A48006876
:104640000A4908600748006840B1074800680849FF
:10465000484304490968B0FBF1F000E00020054937
:104660000860704770000020440000206C000020AB
:10467000A086010074000020F0B503460C4600201F
:10468000002115E0D51E854200DC14E05D5C5C2D48
:1046900005D05D5C222D02D05D5C2C2D03D15C2702
:1046A0000546401C67555F5C0546401C6755491C24
:1046B0005D5C002DE6D100BF00252554F0BD000053
:1046C000F0B503461546022901DC012000E0002078
:1046D0001B1A4FF4C87093FBF0F404EBC40000EB1A
:1046E0000410A3EB0012022902DD6FF0020000E0CB
:1046F0000920084400EB001000EBC000801C4FF0C4
:10470000050C90FBFCF02844471E6420B2FBF0FC33
:1047100040F26D10504300EB9200A0EB0C00C61964
:10472000034800FB0460DFF80CC0A0EB0C00F0BDF8
:10473000B13A02006CFA0A0000B599B0FEF7D0FA5F
:104740003C490968401A47F23051884201D219B0F9
:1047500000BDFEF7C5FA3749086037480068374999
:10476000096888420AD04FF400723348016834481F
:10477000FFF740FD3048006830490860FEF7B0FAA6
:1047800030490968401A47F23051884203D200206C
:104790002D490870DBE72DA2602101A8FFF73AFD43
:1047A0002B480078A8B94FF496632AA201A92BA040
:1047B000FCF75AFD68B12DA13148FBF7FBFC40B96D
:1047C00030A12F48FBF7F6FC18B900201E490870ED
:1047D000BDE71D480078401C1B49087002220846AE
:1047E00001782A48FFF706FDFCF72CFE4FF496707F
:1047F000FEF7B4F8FDF706FCA0B1FCF7BBFE88B1EC
:10480000FCF768FE70B1FDF7CDFB58B100200E49F2
:104810000870FFF751FA01201D4908701DA0FFF72D
:10482000E9FC94E708480078022801DB00F074FBFB
:1048300000BF8CE728000020840000203400002006
:104840001C5400082C000020270000204F4B0000C3
:10485000250000204552524F5200000041542B4D7C
:10486000515454434F4E4E3F000000002B4D5154C5
:1048700054444953434F4E4E454354454400000071
:10488000E8000020434C4F534544000044550008C5
:10489000680000205B4845414C54485D20717569B3
:1048A000636B207265636F6E6E656374204F4B207F
:1048B00028555345524346472B434F4E4E43464798
:1048C0002B434F4E4E2B535542290D0A000000003A
:1048D0002DE9F04104460E4617460CB1207830B958
:1048E00015A239463046FFF795FCBDE8F0814FF040
:1048F0000108002509E0605D302802DB605D392891
:1049000002DD4FF0000803E06D1C605D0028F2D16D
:1049100000BFB8F1000F06D0234608A23946304642
:10492000FFF778FC05E0234605A239463046FFF73D
:1049300071FC00BFD9E700003000000025730000C3
:1049400022257322000000002DE9F84306460F4699
:1049500014461D46022D0FD16420B4FBF0F100FB7C
:104960001148B4FBF0F94B460CA239463046CDF85D
:104970000080FFF74FFC0EE00A20B4FBF0F100FBD3
:104980001148B4FBF0F94B4607A239463046CDF842
:104990000080FFF73FFCBDE8F8830000256C752E12
:1049A0002530326C75000000256C752E256C750065
:1049B00013B50C464FF47A73012269460248FEF79C
:1049C00083FE00981CBD000094000020F0B5034653
:1049D0000D461646002729460A2E03D000200870EF
:1049E0002846F0BD33B9302001F8010B00200870D3
:1049F0002846F6E7002B03DA2D2001F8010B5B4275
:104A000042F210720DE093FBF2F404B937B104F1F5
:104A1000300001F8010B04FB123301270A2092FB3E
:104A2000F0F2002AEFDC002008702846D9E70000E9
:104A3000FFF79AF9FFF7A8F9FBF71EFD0C48FFF7FF
:104A4000D9FBFEF79DFEFEF727FF0446214609A08D
:104A5000FFF7D0FBFEF726FFFBF744FDFCF7C0FC99
:104A6000FDF726FD03E0FEF70BFFFDF739FCFAE743
:104A7000385300085B424F4F545D20726573657474
:104A800020726561736F6E3A2025730D0A00000075
:104A900070B505460E460C2E01DA002070BD0024CC
:104AA00009E028190C2207A1FBF7B5FB08B9281962
:104AB000F4E7601C84B2A6F10C0080B2A042F0DAE8
:104AC0000020EBE72B4D5154545355425245435669
:104AD000000000002DE9F04180460E46174638469A
:104AE000FBF784FB84B20CB1A64202DA0020BDE8D9
:104AF000F08100250AE008EB050022463946FBF765
:104B00008AFB08B90120F2E7681C85B2301B80B22D
:104B1000A842F0DA0020EAE710B54FF496630022CD
:104B200002A106A0FCF7A0FB10BD00004D5154549B
:104B3000434F4E4E3A302C310000000041542B4D73
:104B4000515454434F4E4E3F0000000010B5B2B0D8
:104B500004460020234625A2C021009002A8FFF7AA
:104B600059FB40F2DC53002226A102A8FCF77CFB93
:104B700038B10022214624A0FFF73CFB012032B0CF
:104B800010BD29A12D48FBF715FB28B121462CA00B
:104B9000FFF730FB0120F2E734A12848FBF70AFBBE
:104BA000E8B94FF49670FDF7D9FEFFF7B5FFB0B145
:104BB00021463348FFF71EFB4FF49670FDF7CEFEFB
:104BC00040F2DC5300220FA102A8FCF74DFB30B1EC
:104BD000002221462BA0FFF70DFB0120CFE7214645
:104BE00032A0FFF707FB0020C9E7000041542B4D1E
:104BF0005154545355423D302C222573222C2564A8
:104C0000000000004F4B00005B4D515454205355A1
:104C1000425D204F4B20746F7069633D2573207196
:104C20006F733D25640D0A00414C524541445920A3
:104C3000535542534352494245000000E8000020CA
:104C40005B4D515454205355425D20616C72656137
:104C50006479207375627363726962656420746F2E
:104C60007069633D25730D0A000000002B4D5154FF
:104C700054444953434F4E4E45435445440000006D
:104C80005C5C00085B4D515454205355425D2052EA
:104C900045545259204F4B20746F7069633D257302
:104CA00020716F733D25640D0A0000005B4D515467
:104CB00054205355425D204641494C454420746F71
:104CC0007069633D25730D0A000000002DE9F34F64
:104CD00081B08A4646A10198FBF76CFA00904FF02C
:104CE000FF3B009810B90020BDE8FE8F00980D3002
:104CF000009002E00098401C009000980078202866
:104D0000F8D002E00098401C00900098007818B19C
:104D1000009800782028F5D102E00098401C00900F
:104D2000009800782028F8D000240BE0344850F890
:104D3000241003220098FBF77BFA10B904F1010B51
:104D400002E0641C0C2CF1DB00BFBBF1000F01DAA8
:104D50000020C9E70098C01C0090684600F07CF96C
:104D60000746684600F078F90546009800783A282A
:104D700001D00020B8E70098401C0090684600F081
:104D80006BF90646009800783A2801D00020ABE77E
:104D90000098401C0090684600F05EF98046684626
:104DA00000F05AF98146012F0ADB002D08DB002EA6
:104DB00006DBB8F1000F03DB40F2E770814501DA52
:104DC000002091E73A4659464846FFF779FC0D49DD
:104DD0004843C5EB4511C1EB052100EB0110C6EBC3
:104DE000061100EB81004044CAF8000001207BE777
:104DF0002B434950534E545054494D453A000000FE
:104E000074520008805101002DE9F04106460F461A
:104E100000250020307040F2DC5300220FA110A0CA
:104E2000FCF722FA08B9BDE8F08110A11348FBF79E
:104E3000C1F9044604B9F6E70C3402E0605D705530
:104E40006D1C781EA84204DD605D10B1605D2228F3
:104E5000F4D10020705500BFE5E700004F4B000083
:104E600041542B4349505354413F00002B43495078
:104E70005354413A69703A2200000000E8000020D3
:104E800070B54FF4FA6300221CA11DA0FCF7ECF9E9
:104E900008B9002070BD1DA11E48FBF78BF9044620
:104EA0000CB90020F6E7E41D002512E0222120467F
:104EB000FBF792F904460CB90020EBE7641C2221B1
:104EC0002046FBF789F904460CB90020E2E7641C90
:104ED0006D1C022DEADB20782C2800D1641C00E038
:104EE000641C207810B120782C28F9D120782C2847
:104EF00000D1641C2046FBF7AAF9CBE74F4B00001A
:104F000041542B43574A41503F0000002B43574A1E
:104F100041503A00E800002010B51948FFF76AF93F
:104F200000224FF400511748FDF7D4FE4FF4001053
:104F3000154908604FF41670FDF710FD2020124946
:104F40000860FCF74DFA00201049087010490870FD
:104F50001049087001201049087000200F490860AE
:104F60000F49086040F698000E4908600120064984
:104F70000860FDF79DFA0CA0FFF73CF910BD00009A
:104F8000BC54000800200140100C01402600002005
:104F90002700002025000020780000206C00002061
:104FA00074000020700000203E3E3E205B524543CE
:104FB0004F4E4E4543545D2046554C4C204348418E
:104FC000494E2072656275696C6420444F4E4520DD
:104FD0004F4B0D0A0D0A00000146481C00F003006B
:104FE000704700002DE9F04106460C46164805784A
:104FF0002846FFF7F1FF074634B1B4F5007F03DA26
:1050000012480078874206D111480068401C1049B8
:105010000860BDE8F0810F4901EB4520224631468A
:10502000FBF7A4F800200B4901EB4521085500BF10
:1050300000BF00BFBFF35F8F00BF00BF00BF0248CB
:10504000077000BFE5E7000080000020810000201D
:10505000840000209414002030B50246116800241A
:10506000002300E0491C08782028FBD007E00878DE
:10507000303804EB840500EB4504491C5B1C0878C0
:10508000302802DB08783928F1DD11600BB12046A9
:1050900030BD4FF0FF30FBE70848008808B108A09A
:1050A00070470948007810B1022804D101E007A038
:1050B000F6E709A0F4E70AA0F2E7000040000020AC
:1050C0006661756C7400000078000020636861728E
:1050D00067696E67000000006F66666C696E650048
:1050E00069646C650000000070B503460A460C2137
:1050F00000240025914201DB002070BD585C3A2855
:1051000002D04FF6FF70F8E7481C81B201E0481C5E
:1051100081B2914202DA585C2C28F8D1914201DB2D
:105120000020EAE7481C81B2914201DB0020E4E75D
:10513000585C222802D04FF6FF70DEE7481C81B28F
:1051400001E0481C81B2914202DA585C2228F8D171
:10515000914201DB0020D0E7481C81B2914201DB83
:105160000020CAE7585C2C2802D04FF6FF70C4E735
:10517000481C81B20EE0585C303804EB840600EB2A
:105180004604B4F5007F02D34FF6FF70B5E7481C24
:1051900081B26D1C914205DA585C302802DB585C04
:1051A0003928E8DD914201DB0020A6E715B1585C03
:1051B0002C2802D04FF6FF709FE7481C81B20819D7
:1051C000904201D9002098E7081980B295E70000C5
:1051D0002DE9F04781460F46904617A14846FAF759
:1051E000E9FF0546002415B90020BDE8F08722211B
:1051F0002846FAF7F1FF05460DB90020F5E76D1CCA
:1052000022212846FAF7E8FF06460EB90020ECE70F
:1052100002E0285D3855641CA8F10100A04202DDBF
:105220002819B042F5D300203855002C01DD0120AB
:10523000DBE70020D9E700002B4D51545453554271
:10524000524543560000000000000000000000002E
:10525000010203040607080900000000010203041C
:1052600002030405060708090A0B0C0D0E0F1010A7
:1052700001020000D8570008C8570008E45700088A
:10528000E8570008F4570008DC570008D457000816
:10529000D0570008E0570008EC570008F057000806
:1052A000CC5700084C5D00088C5D0008705D00085C
:1052B0000040404040404040404041414141414029
:1052C00040404040404040404040404040404040DE
:1052D000400502020202020202020202020202026D
:1052E0000220202020202020202020020202020272
:1052F00002029090909090901010101010101010CA
:1053000010101010101010101010101002020202D5
:105310000202888888888888080808080808080819
:105320000808080808080808080808080202020215
:1053300040000000B15200080D0A2D2D2D204368B9
:10534000617267696E672050696C65204D515454D5
:105350002044656D6F202853544D3332463130332D
:105360005A45202B2045535038323636204D515463
:10537000542D415420314D4229202D2D2D0D0A450B
:1053800064697420455350383236362F6273705F2B
:10539000657370383236365F746573742E682074A6
:1053A0006F206368616E67653A20576946692053CC
:1053B0005349442C206465766963652049442C2058
:1053C0004D5154542062726F6B65722E0D0A0000AD
:1053D000756E6B6E6F776E005B5741524E5D205558
:1053E00053415254332052582064726F7070656478
:1053F00020256C7520627974652873292073696E85
:10540000636520626F6F7420284154206275666660
:1054100065722066756C6C290D0A00005B48454179
:105420004C54485D20646F776E6C696E6B206672B9
:10543000616D65732064726F707065643A20256CCD
:1054400075202871756575652066756C6C206F72A6
:10545000206672616D65203E3D202564206279746E
:105460006573290D0A0000000D0A4D515454204364
:105470004F4E4E43464720286578706C69636974C7
:10548000206B656570616C6976653D3630732063AD
:105490006C65616E3D747275652070657220646F15
:1054A0006320C2A7322C20332066616C6C6261637A
:1054B0006B2073796E746178290D0A000D0A0D0A4C
:1054C0003E3E3E205B5245434F4E4E4543545D2089
:1054D0005761746368646F67207472696767657287
:1054E00065642046554C4C20434841494E20726526
:1054F0006275696C64202E2E2E2E2E2E0D0A000051
:105500004177616974696E67204D515454206F6E04
:105510006F666620636F6D6D616E647320287661BF
:105520006C75653D30207374617274202F20766134
:105530006C75653D322073746F70292E2E2E2E2EC1
:105540002E0D0A000D0A5B4845414C54485D204D24
:10555000515454204E4F54204F4E4C494E452E200E
:105560006661696C3D25752F25752E205472792052
:10557000717569636B207265636F6E6E6563742EFF
:105580002E2E0D0A000000000D0A5B464154414CCE
:105590005D2041542074657374204641494C454454
:1055A0002031302074696D65732120436865636B19
:1055B0006C6973743A0D0A20203129204553503804
:1055C000323636203350206A756D706572732057FD
:1055D0005F52582F575F54582F575F335633207000
:1055E0006C756767656420636F72726563746C794C
:1055F0003F0D0A20203229204553503832363620BC
:10560000666C61736865642077697468204D5154D5
:10561000542D4154206669726D776172652028416E
:10562000542B474D52203E3D20322E322E78293FBA
:105630000D0A2020332920332E3356207261696CE5
:1056400020737461626C653F2041646420313030A6
:1056500075462B302E317546206465636F75706C0E
:10566000696E6720636170732E0D0A000D0A5B5727
:1056700041524E5D2044485431312073616D706C4D
:1056800065204641494C45442E20557365206C6188
:10569000737420636163686564206D65746572204E
:1056A00076616C75657320666F72207265706F72BB
:1056B000742E0D0A000000000D0A0D0A3D3D3D3D0F
:1056C0003D3D3D3D3D3D3D3D3D3D3D3D3D3D204321
:1056D00048415247494E472050494C45204D51546E
:1056E000542053544152545550203D3D3D3D3D3D85
:1056F0003D3D3D3D3D3D3D3D3D3D3D3D0D0A0D0AA0
:105700005B5769466920535349445D203A2025730D
:105710000D0A5B4465766963652049445D203A2043
:1057200025730D0A5B42726F6B65725D202020202D
:105730003A2025733A25640D0A3D3D3D3D3D3D3DF2
:105740003D3D3D3D3D3D3D3D3D3D3D3D3D3D3D3D89
:105750003D3D3D3D3D3D3D3D3D3D3D3D3D3D3D3D79
:105760003D3D3D3D3D3D3D3D3D3D3D3D3D3D3D3D69
:105770003D3D3D3D3D3D3D0D0A0000005B4545473B
:1057800020534E54505D206E6F742073796E6365A4
:105790006420796574202D2074732066616C6C73AD
:1057A000206261636B20746F20757074696D652C65
:1057B0002077696C6C2072657472792065766572E9
:1057C00079203630730D0A00466562004465630037
:1057D000417567004A756C004A616E004A756E003B
:1057E000536570004D617200417072004F63740028
:1057F0004E6F76004D6179007B226F6E6C696E652D
:10580000223A747275652C227374617465223A228F
:105810002573222C226661756C745F636F64652248
:105820003A25752C22766F6C74616765223A257370
:105830002C2263757272656E74223A25732C227065
:105840006F776572223A25732C22656E65726779CF
:105850005F636861726765223A25732C22736F63F8
:10586000223A25752C2274656D70657261747572AB
:1058700065223A25642C226D6F6465223A22617597
:10588000746F222C227473223A256C757D000000FF
:105890007B226F6E6C696E65223A747275652C227C
:1058A0006677223A222573222C226877223A222513
:1058B00073222C226970223A222573222C227273C1
:1058C0007369223A25642C22757074696D65223AD9
:1058D000256C752C227473223A256C757D000000AE
:1058E0000D0A5B5741524E5D20434F4E4E43464793
:1058F000204641494C4544202D3E2066616C6C6930
:105900006E67206261636B20746F206465666175E9
:105910006C747320286B613D363020636C65616E5A
:105920003D747275652039352525206D6174636875
:1059300020C2A732292E0D0A0D0A00000D0A5B4D68
:1059400051545420434D445D206F6E6F66663D3266
:10595000202D3E2053544F50206368617267696E5A
:10596000672C206261636B20746F2069646C652012
:10597000284C454432204F4646290D0A00000000BD
:105980005B4D51545420434F4E4E5D204641494C8F
:1059900045442120436865636B6C6973743A0D0A52
:1059A000202031292053616D652057694669204CBC
:1059B000414E2061732050433F20426F617264204A
:1059C0006D7573742070696E67203139322E3136EF
:1059D000382E382E39370D0A202032292050432006
:1059E000546573742D4E6574436F6E6E6563746990
:1059F0006F6E203139322E3136382E382E3937201D
:105A00002D506F72742031383833203D3D2054635F
:105A10007054657374537563636565646564203A97
:105A200020547275650D0A2020332920454D5158A8
:105A300020617574683A20757365723D63686172A0
:105A40006765202F20706173733D313233343536F2
:105A500020286F7220616E6F6E796D6F757320658F
:105A60006E61626C6564290D0A2020342920436C24
:105A700069656E74494420756E6971756520286E7C
:105A80006F206F7468657220646576696365206154
:105A90006C726561647920636F6E6E6563746564B2
:105AA0002061732073696D2D70696C652D257329D4
:105AB0000D0A00000D0A5B4D5154542055534552B8
:105AC0004346475D20382D706172616D2056322E3D
:105AD000322E782073796E74617820617474656DEC
