:020000040800F2
:10000000181D002049010008112D0008432B00088D
:100010000D2D000817040008CF3200080000000072
:100020000000000000000000000000003D2D00085E
:100030006906000800000000132D0008412D00088B
:100040006301000863010008630100086301000800
:1000500063010008630100086301000863010008F0
:1000600063010008630100086301000863010008E0
:1000700063010008630100086301000863010008D0
:1000800063010008630100086301000863010008C0
:1000900063010008630100086301000863010008B0
:1000A00063010008630100086301000863010008A0
:1000B0006301000863010008630100086301000890
:1000C0006301000863010008630100086301000880
:1000D00063010008952F000863010008153000082F
:1000E0006301000863010008630100086301000860
:1000F0006301000863010008630100086301000850
:10010000630100086301000863010008630100083F
:10011000630100086301000863010008630100082F
:10012000630100086301000863010008630100081F
:10013000DFF810D000F0ECF800480047393A00082A
:10014000AFF30080181D002006488047064800478E
:10015000FEE7FEE7FEE7FEE7FEE7FEE7FEE7FEE777
:10016000FEE7FEE7012E000831010008202A04DB2B
:10017000203A21FA02F00021704721FA02F3D04020
:10018000C2F12002914008431946704740EA01033A
:100190009B0703D009E008C9121F08C0042AFAD23D
:1001A00003E011F8013B00F8013B521EF9D2704701
:1001B000D2B201E000F8012B491EFBD270470022A9
:1001C000F6E710B513460A4604461946FFF7F0FF56
:1001D000204610BD30B505462A460B4612F8010BE5
:1001E00013F8014B08B1A042F8D01CB1002802D08E
:1001F0006D1CF1E7284630BD421C10F8011B002998
:10020000FBD1801A704710B5002200E0521C835CBD
:100210008C5CA34201D1002BF8D1D8B2E1B2401AD4
:1002200010BD70B5064603F0AFF8046805460A2213
:100230000021304600F033F82C6070BD2DE9F05FEE
:100240000546002092469B46884606468146402445
:100250001BE02846414647462246FFF787FF5346A4
:100260005A46C01A914110D311461846224600F052
:1002700061F82D1A67EB01084F4622460120002144
:1002800000F058F817EB00094E41201EA4F10104BC
:10029000DFDC484631462A464346BDE8F09F2DE95B
:1002A000F04791460F4680460446002614F8015B4D
:1002B0002DB100F04FF80068405DC007F6D12B2D3E
:1002C00002D02D2D18D0641E4A463946204600F033
:1002D00045F827B13968A14201D1C7F800807105FE
:1002E0004FF002040BD54042002803DD03F04CF828
:1002F0000460A007BDE8F08746F48066E4E70028C4
:10030000F8DA03F041F804606FF00040F2E7000013
:10031000064C074D06E0E06840F0010394E8070052
:1003200098471034AC42F6D3FFF706FF1845000893
:1003300038450008202A04DB203A00FA02F10020A8
:1003400070479140C2F1200320FA03F31943904013
:100350007047000000487047543C00082DE9F05FEA
:1003600082460078002715468B460AF10104B946FB
:10037000302801D09DB113E014F8010B0127782833
:1003800003D0582801D045B10AE00DB1102D07D196
:100390000027102514F8010B02E0082500E00A25CB
:1003A0000026B0460EE005FB080005FB06F101271C
:1003B00001EB10461FFA80F8B6F5803F00D3B9462E
:1003C00014F8010B294600F018F80028EBDABBF10D
:1003D000000F05D00FB1641E00E05446CBF800407A
:1003E000B9F1000F06D002F0CFFF02210160C81E54
:1003F000BDE8F09F48EA0640FAE73A2800D23038D4
:1004000020F02002412A01D3A2F13700884201D313
:100410004FF0FF30704700BFFEE70000074800685C
:1004200040F0807005490860002005494860084692
:10043000006840F00100086070470000FCED00E03B
:10044000001000E00148406870470000001000E024
:1004500031B50024FFF7E2FF104800681049B0FBF7
:10046000F1F0009900FB01F500BFFFF7EBFF034639
:1004700011E0FFF7E7FF02469A420CD09A4202D9F8
:10048000D01A044403E0C3F1FF301044044413467F
:10049000AC4200D300E0ECE700BF38BD0000002014
:1004A00040420F0010B50848084908604FF4E13099
:1004B0004860002105488160C160016181610C21B3
:1004C000416102F031FA10BD0038014054000020B3
:1004D00000B585B000BF0C48806940F020000A4993
:1004E00088610846806900F02000009000BF00BFCE
:1004F00040200190012002900320049001A90348AC
:1005000001F024FC05B000BD0010024000140140C1
:1005100010B5FFF7DDFF01224021024801F0BEFDCA
:1005200010BD0000001401401FB5402000900020C5
:100530000190012002906946014801F007FC1FBDAF
:10054000001401401FB540200090012001900320BD
:1005500003906946014801F0F9FB1FBD00140140FA
:1005600070B50025002424E000BF4021134801F0AD
:100570008DFD0028F9D02820FFF76AFF40210F48A1
:1005800001F084FD01280DD100BF40210B4801F08E
:100590007DFD0128F9D0C4F1070101208840C0B2D7
:1005A000054304E0C4F10701012088408543601C35
:1005B000C4B2082CD8DB284670BD000000140140EE
:1005C00010B50446FFF7BEFF00224021254801F088
:1005D00065FD44F25060FFF73BFF012240212148B6
:1005E00001F05CFD1E20FFF733FFFFF79DFF402168
:1005F0001C4801F04BFD78BB00BF4021194801F0B9
:1006000045FD0028F9D000BF4021164801F03EFD0D
:100610000128F9D0FFF7A4FF2070FFF7A1FF607059
:10062000FFF79EFFA070FFF79BFFE070FFF798FFBA
:100630002071FFF787FF012240210A4801F02EFDBB
:10064000207861780844A1780844E1780844217949
:10065000884202D1002010BD01E00120FBE701200B
:10066000F9E70000001401407047000000BFEFF3FD
:100670001081084672B60B49B1F800186FF30E01ED
:10068000084AA2F800181146B1F8001821F40041F8
:10069000A2F8001800211170014681F3108800BFF4
:1006A00070470000A80000200348007808B101202E
:1006B00070470020FCE700001800002010B500245F
:1006C00001229103124801F0E9FC12A002F002FE9F
:1006D0004FF4FA6001F026FB15E0214613A002F06A
:1006E000F9FD4FF4FA73002219A11AA000F04CF89A
:1006F00028B1214618A002F0EDFD012010BD01F047
:1007000027F8601CC4B20A2CE7DB0020F6E70000E3
:10071000002001400D0A4154EFBFBDEFBFBDEFBF48
:10072000BDEFBFBD2E2E2E2E2E0D0A000D0A4154F8
:10073000EFBFBDEFBFBDEFBFBDD4B4EFBFBDEFBFD7
:10074000BDEFBFBD2025642E2E2E2E2E2E0D0A00AD
:100750004F4B0000415400000D0A4154EFBFBDEF64
:10076000BFBDEFBFBDEFBFBDEFBFBDEFBFBDEFBFB3
:10077000BDEFBFBDEFBFBDC9B9EFBFBD2025642E22
:100780002E2E2E2E2E0D0A002DE9F84F81460C46F6
:1007900015469A460026002700200090FFF766FFC6
:1007A00001202C4908704A462BA12D4802F01CFD5F
:1007B00034B92DB90020274908700120BDE8F88F11
:1007C00001F072FC804600BF2648B0F80008C0F374
:1007D0000E0B009883451FD0CDF800B044B12146E0
:1007E0002048FFF7F7FC08B1012002E0002000E0FC
:1007F0000020064645B129461A48FFF7EBFC08B130
:10080000012002E0002000E00020074606B91FB1E9
:10081000142001F087FA07E002F016FA01F044FC18
:10082000A0EB08005045CFD300BF00200949087055
:100830000C490DA002F04EFD34B12DB106B90FB137
:100840000120BBE70020B9E70CB13046B6E73846D7
:10085000B4E700001800002025730D0A0000000016
:1008600000480040A80000205B41542052585D2001
:100870002573000000B58BB006A101A802F054FD5D
:100880004FF4FA73002207A101A8FFF77DFF0BB018
:1008900000BD000041542B4357444843503D312C88
:1008A000310000004F4B000010B586B004460CB17B
:1008B000012000E00020024606A101A802F034FD5C
:1008C0004FF4FA73002207A101A8FFF75DFF06B0FD
:1008D00010BD000041542B4349504D55583D2564EF
:1008E000000000004F4B000000B585B000BF174866
:1008F000806940F48070154988610846806900F479
:100900008070009000BF00BF4FF4005001900120A4
:1009100002900320049001A90D4801F017FA00BFCE
:100920000A48806940F480700849886108468069F7
:1009300000F48070009000BF00BF4FF48040019031
:1009400001A9034801F002FA05B000BD0010024001
:100950000020014010B5FFF7C7FF01F0ABF90122FD
:100960009103044801F09AFB01225103014801F070
:1009700095FB10BD0020014030B59FB004460D46E8
:100980002B46224606A101A802F0CEFC41F2883394
:10099000002208A101A8FFF7F7FE1FB030BD00003C
:1009A00041542B43574A41503D222573222C222586
:1009B000732200004F4B000010B54FF4966308A25D
:1009C00009A10AA0FFF7E0FE20B10CA002F082FC12
:1009D000012010BD0EA002F07DFC0020F9E7000010
:1009E0004552524F520000004F4B000041542B4DD6
:1009F000515454434C45414E3D3000005B4D5154E1
:100A00005420434C45414E5D20646F6E650D0A00D5
:100A10005B4D51545420434C45414E5D206E6F2038
:100A20006578706C6963697420636C65616E2061C0
:100A3000636B2C20636F6E74696E756520616E79CF
:100A40007761790D0A00000000B5B1B040F25B7328
:100A50000DA211A101A802F067FC4FF47A630022F5
:100A600013A101A8FFF790FE30B912A1144802F0BB
:100A700031FC002031B000BD40F25B7202A111A038
:100A800002F028FC0120F5E73139322E3136382EBC
:100A9000382E39370000000041542B4D5154544337
:100AA0004F4E4E3D302C222573222C25642C3000D5
:100AB0004F4B000050494C452D30303100000000B4
:100AC000F04000085B4D51545420434F4E4E5D2082
:100AD0004F4B20636F6E6E656374656420746F2086
:100AE00025733A25640D0A0000B5C1B018A002F0C4
:100AF000F1FB3C2226A101A802F016FC4FF49663FC
:100B000000222BA101A8FFF73FFE30B13C2129A014
:100B100002F0E0FB012041B000BD36A002F0DAFB9C
:100B20003C2242A101A802F0FFFB4FF49663002291
:100B30001FA101A8FFF728FE28B13C2143A002F025
:100B4000C9FB0120E7E74E4802F0C4FB0120E2E7C1
:100B50000D0A5B4D51545420434F4E4E4346475D62
:100B6000205052494D4152593A206F666669636977
:100B7000616C20372D706172616D20636C65616EF0
:100B80003D302028646F6320C2A732290D0A00007F
:100B900041542B4D515454434F4E4E4346473D30E4
:100BA0002C25752C302C22222C22222C302C30008B
:100BB0004F4B00005B4D51545420434F4E4E434623
:100BC000475D204F4B20286F6666696369616C2022
:100BD000372D706172616D2C206B613D257573201E
:100BE000636C65616E3D656E61626C6564290D0ABA
:100BF000000000005B4D51545420434F4E4E43467D
:100C0000475D2046414C4C4241434B3A20372D70C2
:100C10006172616D20616C7465726E6174652063D0
:100C20006C65616E3D310D0A0000000041542B4D92
:100C3000515454434F4E4E4346473D302C25752C5E
:100C4000312C22222C22222C302C30005B4D51548E
:100C50005420434F4E4E4346475D204F4B2028378C
:100C60002D706172616D20616C7420636C65616EC2
:100C70003D312C206B613D257573290D0A00000064
:100C800050400008F0B5ADF22C5D06460F4620211D
:100C900083A8FFF794FA3B48007830B1394B3AA269
:100CA000202183A802F026FB0BE038480068401C96
:100CB00036490860084636A22021036883A802F05E
:100CC00019FB83A80FB1394600E032A13346334AFD
:100CD000CDE900104FF480718BA802F00BFB0025CA
:100CE000002421E08BA8005D5C2804D15C2228460A
:100CF0006D1C03A90A548BA8005D222804D15C2234
:100D000028466D1C03A90A548BA8005D2C2804D129
:100D10005C2228466D1C03A90A548BA8025D284654
:100D20006D1C03A90A54641C8BA8005D10B1B5F5B5
:100D3000FE7FD7DD002003A94855012018A31FA27C
:100D4000CDE900104102CBA802F0D4FA40F2DC5306
:100D5000002221A1CBA8FFF717FD50B900200949B7
:100D600008708BA91DA002F0B5FA00200DF22C5DD1
:100D7000F0BD0020034908708BA921A002F0AAFA57
:100D80000120F3E7F418002025730000480000203C
:100D9000256C750073756363657373008444000884
:100DA0002F6465766963652F50494C452D3030318D
:100DB0002F636F6E74726F6C0000000041542B4DF6
:100DC0005154545055423D302C222573222C22255B
:100DD00073222C25642C30004F4B00005B4D515486
:100DE00054205245504C595D204641494C454420C1
:100DF0007061796C6F61643A2025730D0A00000000
:100E00005B4D515454205245504C595D204F4B205E
:100E10007061796C6F61643A2025730D0A000000DF
:100E200030B5ADF20C5D3048007830490968304A81
:100E30001268CDE9002102902E482F4A4FF48071AC
:100E4000036883A802F056FA0025002421E083A855
:100E5000005D5C2804D15C2228466D1C03A90A545D
:100E600083A8005D222804D15C2228466D1C03A9BA
:100E70000A5483A8005D2C2804D15C2228466D1CEE
:100E800003A90A5483A8025D28466D1C03A90A54CD
:100E9000641C83A8005D10B1B5F5FE7FD7DD00208E
:100EA00003A94855012003AACDE9002013A319A2E4
:100EB00041020290C3A802F01DFA40F2DC53002266
:100EC0001CA1C3A8FFF760FC38B983A91AA002F0DF
:100ED00001FA00200DF20C5D30BD83A920A002F0C4
:100EE000F9F90120F6E7000044000020400000204E
:100EF0003C00002038000020C84400082F646576BC
:100F00006963652F50494C452D3030312F73746122
:100F10007475730041542B4D5154545055423D301B
:100F20002C222573222C222573222C25642C256447
:100F3000000000004F4B00005B4D515454205055B1
:100F400042205354415455535D204641494C454439
:100F5000207061796C6F61643A2025730D0A00007E
:100F60005B4D5154542050554220535441545553D5
:100F70005D204F4B2025730D0A00000010B59AB07C
:100F800002F0A4FD0446202112A8FFF718F9202141
:100F90000AA8FFF714F9202102A8FFF710F94FF073
:100FA000FF3001904948007858B100204849087046
:100FB000012048490870484802F08CF900201AB016
:100FC00010BD46A12046FFF705F920B146A12046F5
:100FD000FFF700F908B90020F1E7202312AA44A185
:100FE000204602F049FC60B120230AAA42A1204613
:100FF00002F042FC28B101AA41A1204602F0F2FB16
:1010000020B941A002F066F90020D8E74EA112A84D
:10101000FFF7F9F820B94EA10AA8FFF7F4F820B1BC
:101020004DA002F057F90020C9E7202302AA5AA1D7
:10103000204602F077FC30B102AB58A2202158487C
:1010400002F058F902E0002055490870019860B19B
:101050000198022809D05348019902F03BF952A1A6
:101060000198FFF70FFE0120A9E70198A8B9002019
:101070001849087041205149086040F6A2005049C3
:10108000086040F686304F4908604FF480304E4982
:1010900008604EA002F01EF911E001200D49087011
:1010A0000020464908604749086040F698004449D6
:1010B0000860012044490860514802F00BF951A131
:1010C0000198FFF7DFFD012079E7000025000020EF
:1010D00034000020440000207C42000822636F6D31
:1010E0006D616E6422000000226F6E6F66662200E2
:1010F00074797065000000006E616D65000000008D
:1011000076616C75650000000D0A5B4D51545420EA
:10111000524543565D206D697373696E6720666939
:10112000656C6473202F2062616420666F726D614C
:1011300074202D2073696C656E746C792064726FF5
:10114000707065642E0D0A00636F6D6D616E6400D2
:101150006F6E6F66660000000D0A5B4D515454209F
:10116000524543565D20747970652F6E616D652020
:10117000213D20636F6D6D616E642F6F6E6F6666CB
:10118000202D2073696C656E746C792064726F70A9
:101190007065642E0D0A000069640000257300006C
:1011A000F41800203C4400086661696C5F696E7643
:1011B000616C69645F76616C7565000038000020C1
:1011C0003C00002040000020100C01400D0A5B4D47
:1011D00051545420434D445D206F6E6F66663D3020
:1011E000202D3E2053544152542063686172676938
:1011F0006E6720284C454432204F4E290D0A0000CE
:10120000AC400008737563636573730000B5B1B0DB
:10121000002344A24AA101A802F086F840F2DC5360
:1012200000224DA101A8FFF7AFFA002828D14BA159
:101230004F48FEF7CFFF00281BD14FF4967000F007
:1012400071FD02F029FCA0B14A4802F043F84FF4C6
:10125000967000F067FD40F2DC5300223EA101A829
:10126000FFF792FA28B100222EA143A002F032F833
:1012700019E02CA14BA002F02DF8002031B000BDE8
:10128000002228A14FA002F025F8962000F04AFD88
:1012900032A13748FEF79EFF20B1534802F01AF8FA
:1012A0000020EBE700BF002350A225A101A802F017
:1012B0003BF840F2DC53002227A101A8FFF764FAB3
:1012C000002827D125A12A48FEF784FFE0B94FF472
:1012D000967000F027FD02F0DFFBA8B14A4801F04C
:1012E000F9FF4FF4967000F01DFD40F2DC53002230
:1012F00019A101A8FFF748FA30B100223BA143A091
:1013000001F0E8FF0120B9E738A14BA001F0E2FFAE
:101310000020B3E7002235A157A001F0DBFF012038
:10132000ACE700002F6465766963652F50494C4532
:101330002D3030312F636F6E74726F6C00000000BF
:1013400041542B4D5154545355423D302C2225735A
:10135000222C2564000000004F4B00002B4D5154FF
:1013600054444953434F4E4E4543544544000000B6
:10137000A8000020944300085B4D5154542053555D
:10138000425D205245545259204F4B283129207438
:101390006F7069633D257320716F733D25640D0A7D
:1013A000000000005B4D515454205355425D2046CF
:1013B00041494C454420746F7069633D25730D0AA3
:1013C000000000005B4D515454205355425D204FA6
:1013D0004B28312920746F7069633D257320716F2C
:1013E000733D25640D0A0000344300082F646576C0
:1013F0006963652F50494C452D3030312F636F6E36
:1014000074726F6C6C000000E84300085B4D51542F
:1014100054205355425D205245545259204F4B2879
:10142000322920746F7069633D257320716F733D9D
:1014300025640D0A000000005B4D515454205355A3
:10144000425D204641494C454420746F7069633DBC
:1014500025732028646F75626C652D4C2072657150
:101460007569726564206279207370656320C2A714
:10147000342E32290D0A00005B4D5154542053552F
:10148000425D204F4B28322920746F7069633D25DF
:101490007320716F733D25640D0A000000B5E1B043
:1014A0002BA1314801F016FF30A032A328A233A1AE
:1014B000009001A801F038FF4FF4966300223AA192
:1014C00001A8FFF761F928B138A001F003FF01205E
:1014D00061B000BD404801F0FDFE1DA23FA101A882
:1014E00001F022FF4FF47A7300222FA101A8FFF729
:1014F0004BF920B93FA001F0EDFE0020E8E71DA266
:1015000047A101A801F010FF4FF47A73002226A131
:1015100001A8FFF739F920B947A001F0DBFE002050
:10152000D6E712A24FA101A801F0FEFE4FF47A7394
:1015300000221DA101A8FFF727F920B94FA001F053
:10154000C9FE0020C4E758A001F0C4FE0120BFE797
:1015500073696D2D70696C652D50494C452D303087
:10156000312D617400000000244200083132333410
:1015700035360000636861726765000041542B4D89
:10158000515454555345524346473D302C312C223B
:101590002573222C222573222C222573222C302CF9
:1015A000302C2222000000004F4B00005B4D5154B4
:1015B0005420555345524346475D204F4B20283811
:1015C0002D706172616D207072696D617279207029
:1015D000617468290D0A0000CC42000841542B4D6B
:1015E000515454434C49454E5449443D302C2225D6
:1015F000732200005B4D5154542046414C4C4241F3
:10160000434B5D2041542B4D515454434C49454E5E
:10161000544944204641494C4544210D0A000000EC
:1016200041542B4D515454555345524E414D453D17
:10163000302C2225732200005B4D5154542046412A
:101640004C4C4241434B5D2041542B4D5154545519
:101650005345524E414D45204641494C4544210D8C
:101660000A00000041542B4D5154545041535357DC
:101670004F52443D302C2225732200005B4D5154C3
:10168000542046414C4C4241434B5D2041542B4D2C
:1016900051545450415353574F5244204641494CA2
:1016A0004544210D0A0000005B4D51545420555310
:1016B00045524346475D204F4B2028332D636F6DC5
:1016C0006D616E642066616C6C6261636B20706139
:1016D0007468290D0A00000010B5044624B1012CDD
:1016E0000AD0022C18D10FE040F6C4130BA20EA1B1
:1016F0000EA0FFF749F810BD40F6C41307A20AA1D7
:101700000DA0FFF741F8F6E740F6C41303A206A1C7
:101710000CA0FFF739F8EEE70020ECE76E6F2063CE
:1017200068616E67650000004F4B000041542B4319
:10173000574D4F44453D310041542B43574D4F4485
:10174000453D320041542B43574D4F44453D3300F6
:1017500010B500224FF48041064800F09FFC4FF482
:10176000FA7000F0DFFA01229103024800F096FCC3
:1017700010BD0000002001401CB535480078E0B1E4
:1017800034480078C8B134480088002815DD00BF0F
:10179000EFF31080044672B600202E490870FEF761
:1017A00065FF204680F3108800BFFFF7E7FB0020AD
:1017B000294908802949087000BF01F01FFF284807
:1017C000007810B12248007800B91CBD00202449DF
:1017D00008702448FEF7F4FE68B9234801782148D0
:1017E000C078CDE900011F488378427801781FA0B6
:1017F00001F070FD02E02C4801F06CFDFFF710FBDA
:1018000078B100202949087000F04EFC2849086092
:1018100028480068C8B127480168274801F05AFDE8
:1018200013E022480078401C204908700322084633
:10183000017822A001F04EFD1C480078032804DB4B
:1018400000200349087002F04FF900BFBDE7000017
:10185000340000204500002046000020F410002045
:101860000D00002020000020440000200D0A5B44F1
:10187000485431315D2048756D693D25642E2564DD
:101880002025255248202054656D703D25642E2565
:10189000642043207C206F6E6F66665F7374617492
:1018A000653D25750D0A0000403F00082600002018
:1018B0002C0000201C000020F83C00085B50554222
:1018C0004C4953485D204641494C454420636F6E66
:1018D00073656375746976652025752F25750D0A06
:1018E0000000000038B540F25B705BA35EA261A10E
:1018F0000090624801F0EEFC61A001F0EBFC0122D7
:101900005103674800F0CAFB66A001F0E3FC002425
:1019100022E0641C0A2C0DDB6F4801F0DBFC08E0C0
:101920006E48006880F020006C490860C82000F014
:10193000F9F9F5E700224FF48041594800F0AEFB79
:10194000782000F0EFF901229103554800F0A6FB42
:101950004FF4FA7000F0E6F9FEF7B0FE0028D8D098
:101960005FA001F0B7FC00BF0020FEF79DFF00283C
:10197000FAD067A001F0AEFC00BF0020FFF7ACFE7C
:101980000028FAD06DA001F0A5FC00BFFEF772FFA1
:101990000028FBD071A001F09DFC00BF7DA135A007
:1019A000FEF7EAFF0028F9D07DA001F093FC00BF0C
:1019B000FFF774FD0028FBD0864801F08BFCFFF791
:1019C00093F885A001F086FC00BFFFF73DF80028E2
:1019D000FBD0002189A001F07DFC22E097A001F05E
:1019E00079FCFEF7E9FF4FF4967000F09BF903E0F5
:1019F0004FF4967000F096F9FFF750FD0028F7D0ED
:101A0000FFF772F8962000F08DF903E04FF496701E
:101A100000F088F9FFF718F80028F7D0962000F0BA
:101A200081F9FFF7F3FB0028D8D001209349087013
:101A300000F03AFB9249086000F036FB91490860DB
:101A400091A001F047FC9A4801F044FC2020234972
:101A5000091D086038BD00003139322E3136382E6C
:101A6000382E39370000000050494C452D303031B8
:101A70000000000066656966656900008C3F00082B
:101A80000D0A456E61626C6520455350383236361A
:101A90002043485F5044202E2E2E2E2E2E0D0A005D
:101AA000002001400D0A415420636F6D6D756E6911
:101AB000636174696F6E207465737420287570207B
:101AC000746F2031302072657472696573292E2E0F
:101AD0002E2E2E2E0D0A00005C3E00080C0C01403C
:101AE0000D0A536574204349504D55583D30202808
:101AF00073696E676C65206C696E6B20666F72200F
:101B00004D515454292E2E2E2E2E2E0D0A0000003B
:101B10000D0A5365742057694669206D6F6465200E
:101B20003D205354412028636C69656E74206D6FAD
:101B30006465292E2E2E2E2E2E0D0A000D0A456EBE
:101B400061626C6520444843502043555252454ED3
:101B500054202E2E2E2E2E2E0D0A00000D0A436F1D
:101B60006E6E6563742057694669202863686563F3
:101B70006B20535349442F7061737377642F322E57
:101B80003447206F6E6C792129202E2E2E2E2E2E7A
:101B90000D0A00006C696A69616C696E670000007B
:101BA0000D0A4D5154542055534552434647202861
:101BB000436C69656E7449442F757365726E616D0F
:101BC000652F70617373776F7264292E2E2E2E2EFF
:101BD0002E0D0A003C3D00080D0A4D51545420437F
:101BE0004F4E4E45435420746F2062726F6B657286
:101BF000202E2E2E2E2E2E0D0A0000000D0A4D51E5
:101C00005454205355425343524942452028646F4F
:101C100075626C652D4C3A20636F6E74726F6C2028
:101C20002B20636F6E74726F6C6C2C20516F533D60
:101C30002564292E2E2E2E2E2E0D0A005B53544184
:101C4000525455505D20535542207374616765208E
:101C50006661696C65642E2052656275696C6420EA
:101C60004D515454206C61796572206265666F72C3
:101C7000652072657472792E0D0A00003400002010
:101C8000280000202C0000200D0A45535038323621
:101C9000362046554C4C20434841494E20434F4E38
:101CA00046494755524544204F4B0D0A000000005D
:101CB000D43D000810B51248124908604FF4E130D5
:101CC000486000210F488160C16001610C214161C1
:101CD0000021816100F028FE0A480068C06840F0D9
:101CE000200008490968C86006480068C06840F0DC
:101CF000100004490968C86000F006F810BD000033
:101D000000480040AC10002010B5052000F088FA13
:101D100000220121272000F045FA272000F032FAA6
:101D200010BD000070B5044600F0BEF90646254619
:101D3000681C10B104480078054400BF00F0B4F9F5
:101D4000801BA842FAD370BD0C0000202DE9F84793
:101D5000024600239C467BE14FF0010808FA03F499
:101D6000D1F8008008EA0400A0427DD1DFF8F4A297
:101D7000D1F80480A8EB0A09D0453AD014DCB8F1B8
:101D8000030F50D009DCB8F1000F31D0B8F1010FCA
:101D90001CD0B8F1020F49D120E0B8F1110F18D0D2
:101DA000B8F1120F42D11EE0B9F5881F25D006DC2C
:101DB000B9F5803F20D0B9F5801F37D11AE0B9F5C9
:101DC000001F18D0B9F5041F30D117E0D1F80CC0AE
:101DD0002DE0D1F80C8008F1040C28E0D1F80C803B
:101DE00008F1080C23E0D1F80C8008F10C0C1EE07F
:101DF00000BF00BF00BF00BF00BF00BFD1F8088018
:101E0000B8F1000F02D14FF0040C0BE0D1F80880BC
:101E1000B8F1010F03D14FF0080C146102E04FF04C
:101E2000080C546103E04FF0000C00E000BF00BF5D
:101E3000FF2801D8904601E002F104084646FF2839
:101E400002D84FEA830803E0A3F108084FEA8808A4
:101E50004746D6F800804FF00F0909FA07F928EA3B
:101E600009080CFA07F900E07AE048EA0908C6F820
:101E70000080D1F8048008F08058B8F1805F6FD1FD
:101E800000BFDFF8E481D8F8188048F00108DFF8D7
:101E9000D891C9F81880C846D8F8188008F0010809
:101EA000CDF8008000BF00BF4FEAB9384FEA930970
:101EB00058F829504FEA83784FEA18794FF00F0805
:101EC00008FA09F825EA0805DFF8A081424502D1A1
:101ED0004FF0000824E0DFF89881424502D14FF02E
:101EE00001081DE0DFF88C81424502D14FF0020865
:101EF00016E0DFF88481424502D14FF003080FE07D
:101F0000DFF87881424502D14FF0040808E0DFF89D
:101F10007081424502D14FF0050801E04FF00608FC
:101F20004FEA83794FEA197908FA09F848EA050572
:101F3000DFF850814FEA930948F82950D1F804801E
:101F400008F48018B8F5801F0BD1DFF83C81D8F871
:101F5000008048EA0008DFF83091C9F800800AE004
:101F600075E0DFF82481D8F8008028EA0008DFF85F
:101F70001891C9F80080D1F8048008F40018B8F569
:101F8000001F0ED1DFF8008108F10408D8F80080A6
:101F900048EA0008DFF8F09009F10409C9F8008068
:101FA0000DE0DFF8E48008F10408D8F8008028EAA2
:101FB0000008DFF8D49009F10409C9F80080D1F8CD
:101FC000048008F40038B8F5003F0ED1DFF8B8807F
:101FD000A8F10408D8F8008048EA0008DFF8A890C3
:101FE000A9F10409C9F800800DE0DFF89C80A8F190
:101FF0000408D8F8008028EA0008DFF88C90A9F1DE
:102000000409C9F80080D1F8048008F48038B8F5D4
:10201000803F0ED1DFF87080A8F10808D8F8008062
:1020200048EA0008DFF86090A9F10809C9F80080C3
:102030000DE0DFF85480A8F10808D8F8008028EAFD
:102040000008DFF84490A9F10809C9F800805B1C7A
:10205000D1F8008028FA03F8B8F1000F7FF47CAEC5
:10206000BDE8F88700001110001002400008014090
:10207000000C014000100140001401400018014014
:10208000001C01400800014008040140024693681A
:102090000B400BB1012000E0002070470AB1016144
:1020A00001E00B04036170470148006870470000BD
:1020B0000400002070B504460CB9012070BD4CF638
:1020C000CC402168086045F2555021680860D4E989
:1020D000001048602168A0688860FFF7E5FF0546AA
:1020E0000BE0FFF7E1FF401B272806D92068C068F6
:1020F00000F0030008B10320E0E72068C06800F0AA
:1021000003000028EDD14AF6AA20216808600020CB
:10211000D4E701464AF6AA200A68106000207047FA
:10212000034800680349097808440149086070477A
:10213000040000200C00002070B504460E48007812
:102140004FF47A71B1FBF0F00C490968B1FBF0F57E
:10215000284600F0CFFB08B1012070BD102C07D23B
:1021600000222146501E00F01DF80548046001E0E1
:102170000120F2E70020F0E70C0000200000002022
:102180000800002001460846002809DB00F01F0374
:1021900001229A4043099B0003F1E023C3F8002188
:1021A00000BF70472DE9F05F80460D4616460027B8
:1021B00001F0CEF8074639462A46334601F00700BB
:1021C000C0F1070ABAF1040F02D94FF0040A01E086
:1021D000C0F1070AD14600F1040ABAF1070F02D292
:1021E0004FF0000A01E0A0F1030AD4464FF0010AC3
:1021F0000AFA09FAAAF1010A0AEA020A0AFA0CFA28
:102200004FF0010B0BFA0CFBABF1010B0BEA030BCC
:102210004AEA0B042146404601F0A2F8BDE8F09FCF
:1022200000BF00F00702064B19684FF6FF03194084
:10223000044B0B4343EA0221014B196000BF704776
:102240000CED00E00000FA0570B504460D460CB92F
:10225000012070BD5A48006800F00700A8420ED265
:102260005748006820F00700284355490860084691
:10227000006800F00700A84201D00120E9E72078BB
:1022800000F0020002281DD1207800F0040004288C
:1022900005D14C48406840F4E0604A4948602078E5
:1022A00000F00800082805D14648406840F4605016
:1022B000444948604348406820F0F000A168084362
:1022C00040494860207800F0010078B36068012838
:1022D00006D13C48006800F4003090B90120B8E70E
:1022E0006068022806D13748006800F0007040B9E5
:1022F0000120AEE73348006800F0020008B9012071
:10230000A7E73048406820F00300616808432D4982
:102310004860FFF7C9FE064609E0FFF7C5FE801BCF
:1023200041F28831884202D9032092E707E025482C
:10233000406800F00C006168B0EB810FEDD12048DF
:10234000006800F00700A8420ED91D48006820F080
:10235000070028431A4908600846006800F0070093
:10236000A84201D0012074E7207800F0040004287E
:1023700007D11448406820F4E060E168084311493F
:102380004860207800F00800082808D10D4840680F
:1023900020F46050216940EAC1000A49486000F019
:1023A0003FF808494968C1F30311074A515CC84026
:1023B0000649086006480068FFF7BEFE002048E7AF
:1023C0000020024000100240A83B0008000000204E
:1023D000080000200148006870470000000000204D
:1023E00000B5FFF7F7FF04494968C1F30221034A2A
:1023F000515CC84000BD000000100240B83B00081E
:1024000000B5FFF7E7FF04494968C1F3C221034A59
:10241000515CC84000BD000000100240B83B0008FD
:1024200070B500210022002400230020134D6968AC
:1024300001F00C05F5B1042D02D0082D19D101E0F1
:102440000F4819E00F4DC1F38346AB5D01F48035B1
:1024500055B10A4D6D68C5F340450B4E725D084D90
:102460005D43B5FBF2F402E0084D03FB05F42046A2
:1024700002E000BF024800BF00BF70BD0010024074
:1024800000127A00C03B0008D03B000800093D0064
:10249000F8B504460CB90120F8BD207800F0010021
:1024A000002878D0F848406800F00C0004280CD0D0
:1024B000F548406800F00C00082811D1F248406847
:1024C00000F48030B0F5803F0AD1EF48006800F496
:1024D000003000285FD0606800285CD10120DBE775
:1024E00000BF6068B0F5803F06D1E748006840F45F
:1024F0008030E549086028E0606858B9E248006823
:1025000020F48030E04908600846006820F480200C
:1025100008601AE06068B0F5A02F0BD1DA480068B7
:1025200040F48020D84908600846006840F48030B4
:1025300008600AE0D448006820F48030D24908607E
:102540000846006820F48020086000BF606888B1F9
:10255000FFF7AAFD054606E0FFF7A6FD401B64282D
:1025600001D9032098E7C848006800F4003000282B
:10257000F2D010E0FFF798FD054606E0FFF794FD66
:10258000401B642801D9032086E7BF48006800F497
:1025900000300028F2D1207800F00200022857D144
:1025A000B948406800F00C0050B1B748406800F0EE
:1025B0000C00082818D1B448406800F4803098B95D
:1025C000B148006800F0020020B12069012801D064
:1025D000012061E7AC48006820F0F800616940EA3A
:1025E000C100A949086033E02069E8B10120A7498A
:1025F0000860FFF759FD054606E0FFF755FD401B53
:10260000022801D9032047E79F48006800F0020034
:102610000028F2D09C48006820F0F800616940EA88
:10262000C1009949086013E0002098490860FFF74D
:102630003BFD054606E0FFF737FD401B022801D9A8
:10264000032029E79048006800F002000028F2D13A
:10265000207800F0080008282DD1A069B8B1012029
:102660008B490860FFF720FD054606E0FFF71CFDDB
:10267000401B022801D903200EE78348406A00F07E
:1026800002000028F2D0012000F044FB13E00020FB
:102690007F490860FFF708FD054606E0FFF704FDE7
:1026A000401B022801D90320F6E67748406A00F073
:1026B00002000028F2D1207800F00400042873D131
:1026C00000277148C06900F0805070B900BF6E48A3
:1026D000C06940F080506C49C8610846C06900F08C
:1026E0008050009000BF00BF01276A48006800F4D6
:1026F0008070B0B96748006840F480706549086030
:10270000FFF7D2FC054606E0FFF7CEFC401B64282D
:1027100001D90320C0E65F48006800F480700028FB
:10272000F2D000BFE068012806D15748006A40F0A7
:1027300001005549086227E0E06858B95248006A2C
:1027400020F00100504908620846006A20F00400A9
:10275000086219E0E06805280BD14B48006A40F098
:102760000400494908620846006A40F00100086216
:102770000AE04548006A20F0010043490862084623
:10278000006A20F00400086200BFE068A0B1FFF713
:102790008BFC054609E0FFF787FC401B41F28831BE
:1027A000884202D9032077E622E03748006A00F029
:1027B00002000028EFD012E0FFF776FC054608E0A3
:1027C000FFF772FC401B41F28831884201D9032097
:1027D00062E62D48006A00F002000028F0D1012FC7
:1027E00005D12948C06920F080502749C86100BF41
:1027F000E069C8B32448406800F00C00082860D0A5
:10280000E069022848D1002020490866FFF74CFC07
:10281000054606E0FFF748FC401B022801D90320CB
:102820003AE61948006800F000700028F2D1206AEA
:10283000B0F5803F07D11448406820F40030A1680B
:10284000084311494860D4E9080108430E49496822
:1028500021F4741108430C49486001200B490866B3
:10286000FFF722FC054607E03DE0FFF71DFC401B9B
:10287000022801D903200FE60348006800F0007029
:102880000028F2D02FE00000001002400000424279
:102890008004424200700040002014490866FFF79F
:1028A00003FC054606E0FFF7FFFB401B022801D9A9
:1028B0000320F1E50E48006800F000700028F2D116
:1028C00011E0E069012800D1E6E50948466806F410
:1028D0008031206A814204D106F47011606A81421D
:1028E00001D00120D8E50020D6E5000000004242DA
:1028F0000010024070B504462546681EB0F1807F86
:1029000001D301200FE0681E4FF0E02148610F2144
:102910004FF0FF3000F024FD00204FF0E0218861EF
:1029200007200861002070BD10B504460CB90120D5
:1029300010BDA06900B100E000BF94F8410028B9C3
:10294000002084F84000204600F02AF8242084F873
:1029500041002068C06820F400502168C86020460B
:1029600000F050FA2068006920F490402168086166
:102970002068406920F02A00216848612068C0680A
:1029800040F400502168C86000206064202084F872
:10299000410084F842000020606300BFC8E70000E7
:1029A00010B58AB0044600BF3648C06940F48020A4
:1029B0003449C8610846C06900F48020019000BF16
:1029C00000BF00BF0846806940F480408861084627
:1029D000806900F48040019000BF00BF00BF08463E
:1029E000806940F0040088610846806900F00400B6
:1029F000019000BF00BF00BF0846806940F004009E
:102A000088610846806900F00400019000BF00BFA3
:102A100000BF0846806940F0080088610846806968
:102A200000F00800019000BF00BF4815069002208A
:102A30000790012008900320099006A91248FFF78B
:102A400085F94FF4806006900020079006A90E4893
:102A5000FFF77CF94FF48060029002200390012080
:102A600004900320059002A90848FFF76FF94FF47E
:102A7000006002900020039002A90448FFF766F965
:102A80000AB010BD0010024000080140000C0140D7
:102A90002DE9F84F04460E46174699464FF0000AB6
:102AA00094F8410020284AD106B117B90120BDE8A9
:102AB000F88F00206064212084F84100FFF7F4FAC9
:102AC0008246A784E784A068B0F5805F04D12069BE
:102AD00010B90025B04602E035464FF000081BE073
:102AE0005346002280212046CDF8009000F008FADD
:102AF00008B10320DBE745B9B8F80000C0F30800CF
:102B00002168486008F1020803E0287821684860DD
:102B10006D1CE08C401EE084E08C0028E0D1534620
:102B2000002240212046CDF8009000F0E9F908B1DC
:102B30000320BCE7202084F841000020B7E70220F2
:102B4000B5E700BFFEE7000010B52348406A00F07B
:102B5000005030B101202149087021A026490860A9
:102B600022E01D48406A00F0805018B123A022499D
:102B7000086019E01848406A00F0006018B123A00E
:102B80001D49086010E01448406A00F0806018B1E8
:102B900021A01949086007E00F48406A00F0004092
:102BA00010B120A014490860012022490860224881
:102BB000406840F4807020494860204820490860FF
:102BC0000520486040F6FF711D488160FFF772FAEA
:102BD00001201C49087010BD0010024011000020A7
:102BE00049574447205741544348444F472054498C
:102BF0004D454F555400000014000020736F66745B
:102C0000776172652072657365740000706F776517
:102C1000722D6F6E000000004E5253542070696E8A
:102C2000000000006C6F772D706F77657220726501
:102C300073657400E0044242002004E0003000406C
:102C40009C0000201000002010B50348007810B14F
:102C50000248FFF75EFA10BD100000209C00002023
:102C600001480068704700001400002000B585B0DE
:102C700000BF2448806940F0080022498861084666
:102C8000806900F00800009000BF00BF00BF084648
:102C9000806940F0080088610846806900F00800FB
:102CA000009000BF00BF00BF0846806940F00800E8
:102CB00088610846806900F00800009000BF00BFEE
:102CC000202001900120029003900320049001A98C
:102CD0000D48FFF73BF80120019001A90A48FFF7D2
:102CE00035F80220019001A90748FFF72FF82020AE
:102CF000054910310860012008600220086005B015
:102D000000BD000000100240000C014000BFFEE7C3
:102D10007047704708B508490968C9084FF47A72C6
:102D2000B1FBF2F14143009100BF00BF00994A1E80
:102D300000920029F9D108BD000000207047000072
:102D400010B5FFF7EDF90B480078012810D10A48BB
:102D50000088401C084908800846008841F28831F4
:102D6000884205D1002004490880012003490870E9
:102D700010BD0000340000200E0000200D000020D7
:102D800010B5064800684FF47A71B0FBF1F42046A4
:102D9000FFF7B0FD08B100BFFEE710BD0000002046
:102DA00000B58FB014210AA8FDF709FA282168465A
:102DB000FDF705FA01200090000401900020029028
:102DC00002200790C10308914FF4E0110991684671
:102DD000FFF75EFB08B100BFFEE70F200A9002205C
:102DE0000B9000200C900E904FF480600D9002210B
:102DF0000AA8FFF729FA08B100BFFEE70FB000BD2F
:102E00007047000070B504462168096921F44051FB
:102E1000E2681143226811612269A1681143626965
:102E200041EA02052168C96841F20C6291432943D5
:102E30002268D1602168496921F44071A269114377
:102E4000226851612D4A2168914202D1FFF7D8FAD8
:102E500001E0FFF7C5FA00EBC00101EB0011626869
:102E60009200B1FBF2F100EBC00202EB00126368CA
:102E70009B00B2FBF3F26423B2FBF3F202EBC2035A
:102E800003EB0212A1EB8201322202EB0111642258
:102E9000B1FBF2F101F0F00100EBC00202EB001215
:102EA00063689B00B2FBF3F26423B2FBF3F201EB25
:102EB000021200EBC00101EB001163689B00B1FB43
:102EC000F3F100EBC00303EB00136668B600B3FB3D
:102ED000F6F36426B3FBF6F303EBC30606EB03132A
:102EE000A1EB8301322303EB01116423B1FBF3F166
:102EF00001F00F0111442268916070BD003801405B
:102F00002DE9F04104460D4617469846069E34E0EA
:102F1000701C88B32EB1FFF7C7F8A0EB0800B042D1
:102F20002BD900BF00BF21680C3151E8001F21F4EC
:102F3000D07021680C3141E80002002AF3D100BFB3
:102F400000BF00BF2168143151E8001F21F00100CB
:102F50002168143141E80002002AF3D100BF20208B
:102F600084F8410084F8420000BF002084F840004B
:102F700000BF0320BDE8F081FFE72068006828401B
:102F8000A84201D1012000E00020B842C0D00020BA
:102F9000F0E7000070B51D4800680168002201F0EC
:102FA000280000B3194C24686468E3B2184CB4F8E4
:102FB0000048C4F30E00012201F0200494B140F255
:102FC000FF74A0420EDA124C2354441C104DB5F885
:102FD000005864F30E050E4CA4F800580025264650
:102FE000441C355500BF01F0100068B112B9074804
:102FF000006840680648B0F8000820F4004000F57A
:103000000040034BA3F8000870BD000054000020EE
:10301000AA0800202DE9F041534800680468002701
:1030200004F0280070B3504A12685268D1B24F4A77
:10303000B2F80028C2F30E00012704F0080222B102
:103040004B4A1268521C4A4B1A6004F02002C2B16B
:1030500040F2FF7290420FDA444A1154421C434B33
:10306000B3F8003862F30E03404AA2F80038002398
:103070001546421CAB5404E03D4A1268521C3C4BBE
:103080001A6000BF04F0100000286AD017B9364853
:10309000006840683548B0F8000820F4004000F5AA
:1030A00000403249A1F8000832A13048FDF792F8FB
:1030B00008B1012000E00020314908703148007853
:1030C000012832D130A1294800F0A0FC0546324841
:1030D000007848BB45B331A12846FDF77BF818B30B
:1030E00033A12846FDF776F8F0B12048281A1FFAD8
:1030F00080F81E48B0F80008C0F30E00A0EB0800EE
:1031000086B2B6F5006F01DB40F2FF763246294603
:103110002B48FDF73BF800202949885529480680AF
:1031200001201D49087000BF00BFFDF7BDFAC0B9FE
:103130000E48B0F80008C0F30E00B0F5E06F10DBE9
:103140000A48B0F800086FF30E000849A1F800081B
:103150000846B0F8000820F40040A1F8000800205C
:103160000870BDE8F0810000AC100020A80000202D
:103170001C000020434C4F5345440D0A0000000042
:1031800025000020340000202B4D5154545355424B
:10319000524543560000000045000020227479701B
:1031A00065223A22636F6D6D616E6422000000003B
:1031B000226E616D65223A226F6E6F666622000094
:1031C000F410002046000020002200E0521C03689A
:1031D00003F0800313B9034B9A42F7D3C1F30803FA
:1031E00043607047400D03000FB42DE9F04186B0F5
:1031F00006460D274FF00A080EA801905EE00D98D4
:1032000000785C281CD10D98401C0D9000786E2829
:1032100009D072280FD139463046FFF7D5FF0D98F7
:10322000401C0D900BE041463046FFF7CDFF0D9856
:10323000401C0D9003E00D98401C0D9000BF3DE038
:103240000D980078252832D10D98401C0D900078FB
:10325000642811D0732825D1019810C8019004E08A
:1032600021783046FFF7B0FF641C20780028F7D1A2
:103270000D98401C0D9019E0019820C801900A2279
:1032800002A9284600F07CFA02AC04E0217830461E
:10329000FFF79AFF641C20780028F7D10D98401C96
:1032A0000D9003E00D98401C0D9000BF06E00D98B6
:1032B00010F8011B0D903046FFF786FF0D9800783F
:1032C00000289CD106B0BDE8F0015DF814FB00BFFA
:1032D000FEE700000FB4054B10B503A9044A02989D
:1032E00000F066F810BC5DF814FB000065370008BC
:1032F0004C0000200FB47CB50C0009AD01D0611E5C
:1033000000E00021CDE90001064B6A4629460898F5
:1033100000F04EF8002C02D0009A002111707CBC05
:103320005DF814FBDD3500080FB4084B10B504A997
:1033300002AA039800F03CF8044602A9002000F01D
:1033400058F9204610BC5DF814FB0000F335000866
:1033500002480068C0F30220704700000CED00E056
:1033600010B5002804DB0A07130E054A135406E0C3
:103370000A07140E034A00F00F031B1FD45410BD9C
:1033800000E400E018ED00E0004870475000002025
:1033900002E008C8121F08C1002AFAD1704770471E
:1033A000002001E001C1121F002AFBD1704700007C
:1033B0002DE9FF4F8BB09A460F460446002606E0E3
:1033C00025280BD052460D999047641C761C207816
:1033D0000028F5D10FB03046BDE8F08F0025A94692
:1033E00001227D4900E0054314F8013F203B02FA29
:1033F00003F00842F7D120782E2817D114F8010FD6
:1034000045F004052A280ED06FF02F022078A0F195
:10341000300109290AD809EB890102EB410100EBCF
:103420000109641CF2E757F8049B641C20786C289F
:103430000DD004DC4C2812D06A2811D104E0742885
:103440000DD07A280CD10AE045F4001507E0617828
:1034500045F48015814202D1641C05F58015641C79
:10346000207869283ED006DC0028B3D063280BD032
:10347000642804D136E0732810D075285CD05246F9
:103480000D999047761CA5E017F8040B8DF8000005
:1034900000208DF80100E846012003E057F8048B76
:1034A0004FF0FF3069074FF0000501D40AE06D1CB2
:1034B0004D450DDA8542FADB18F805100029F6D1E2
:1034C00006E06D1C8542FCDB18F805100029F8D1D8
:1034D0002E4404E018F8010B52460D9990476D1EDA
:1034E000F8D277E000200A90C5F302504FF00A0BA3
:1034F00002280CD001CFC117021E71F100020CDAB4
:103500000023D0EB030063EB01012D2208E0FF1D37
:1035100027F00707F7E80201EEE72A0504D52B227A
:103520008DF82420012203E0EA070FD02022F7E7DC
:103530000DF12008089218E000200A90C5F302500F
:103540004FF00A0B022803D001CF00210022EFE741
:10355000FF1D27F00707F7E80201F7E75A460A9B25
:10356000FCF76CFE303208F8012D50EA0102F5D16B
:10357000ADEB080000F1200B680701D44FF0010902
:10358000D94502DDA9EB0B0000E0002081460025B3
:1035900006E009A85246405D0D9990476D1C761CC7
:1035A00008988542F5DB04E0302052460D9990479B
:1035B000761CB9F10001A9F10109F5DC05E018F864
:1035C000010B52460D999047761CBBF10001ABF1FF
:1035D000010BF4DC641CFAE6092801004A68002AA1
:1035E00006D00A68531C0B6010704868401E486083
:1035F00070470A68531C0B601070704700B599B093
:10360000FEF752FD33490968401A47F230518842AB
:1036100001D219B000BDFEF747FD2E490860FEF744
:1036200043FD2D490968401A47F23051884203D2C0
:1036300000202A490870ECE729A2602101A8FFF7C1
:1036400059FE28480078A8B94FF4966326A201A92C
:1036500027A0FDF799F868B129A12E48FCF7BAFD1B
:1036600040B92DA12B48FCF7B5FD18B900201B4926
:103670000870CEE719480078401C184908700222EB
:10368000084601782648FFF725FEFDF795F94FF427
:103690009670FEF747FBFDF701FF90B1FDF724FAA6
:1036A00078B1FDF7D1F960B1FDF7B0FD48B1002068
:1036B0000A49087001201B4908701BA0FFF70AFE89
:1036C000A7E706480078022801DB00F00DFA00BFEA
:1036D0009FE70000280000202C0000202700002089
:1036E0004F4B0000250000204552524F5200000071
:1036F00041542B4D515454434F4E4E3F0000000057
:103700002B4D515454444953434F4E4E4543544519
:1037100044000000A8000020434C4F5345440000E3
:10372000183E0008340000205B4845414C54485D79
:1037300020717569636B207265636F6E6E6563746B
:10374000204F4B2028555345524346472B434F4E5D
:103750004E4346472B434F4E4E2B535542290D0A9D
:103760000000000013B50C464FF47A73012269463D
:103770000248FFF78DF900981CBD0000540000209E
:10378000F0B503460D461646002729460A2E03D0FB
:10379000002008702846F0BD33B9302001F8010B35
:1037A000002008702846F6E7002B03DA2D2001F8E8
:1037B000010B5B4242F210720DE093FBF2F404B98C
:1037C00037B104F1300001F8010B04FB123301277B
:1037D0000A2092FBF0F2002AEFDC00200870284655
:1037E000D9E70000F0B591B007460D4616460FB177
:1037F00005B116B9002011B0F0BD2B461CA2402126
:1038000001A8FFF777FD01A93846FCF7E3FC044661
:103810000CB90020EFE701A8FCF7EEFC044400E03F
:10382000641C207840B120782028F9D020783A28EC
:10383000F6D020780928F3D02078222800D1641C03
:103840002078302802DB207839280ADD20782D28DE
:1038500005D16078302802DB6078392801DD00204E
:10386000C9E72046FCF7DDFC30600120C3E700001B
:1038700022257322000000002DE9F04790B0824617
:10388000884617469946BAF1000F06D0B8F1000FE6
:1038900003D017B1B9F1000F03DC002010B0BDE870
:1038A000F08743461DA240216846FFF723FD694685
:1038B0005046FCF78FFC04460CB90020EEE7684642
:1038C000FCF79AFC044400E0641C207840B12078A6
:1038D0002028F9D020783A28F6D020780928F3D08B
:1038E0002078222801D00020D8E7641C264600E07A
:1038F000761C307810B130782228F9D1002502E00A
:10390000605D78556D1CA9F10100A84202DD6019C7
:10391000B042F5D3002078550120BFE7222573225D
:10392000000000002DE9F04790B082468846174617
:1039300099460026BAF1000F06D0B8F1000F03D067
:1039400017B1B9F1010F03DC002010B0BDE8F0871A
:1039500043462CA240216846FFF7CCFC69465046FE
:10396000FCF738FC04460CB90020EEE76846FCF78B
:1039700043FC044400E0641C207840B120782028F7
:10398000F9D020783A28F6D020780928F3D020788A
:10399000222809D1641C254600E06D1C2878D0B18E
:1039A00028782228F9D116E0254600E06D1C2878F9
:1039B00088B128782C280ED028787D280BD028783C
:1039C000202808D028780D2805D028780A2802D089
:1039D00028780928EAD1A54201D80020B5E702E0FD
:1039E000A05DB855761CA9F10100B04202DDA01916
:1039F000A842F5D30020B855002E01DD0120A4E730
:103A00000020A2E722257322000000002DE9F041EA
:103A100006460F46002539463046FCF7DBFB0446D8
:103A200005E025463946601CFCF7D4FB0446002C13
:103A3000F7D12846BDE8F081FFF7A2F9FFF7B0F90A
:103A4000FCF730FD0C48FFF745FCFFF77DF8FFF76A
:103A500007F90446214609A0FFF73CFCFFF706F9E9
:103A6000FCF756FDFCF776FFFDF73CFF03E0FFF7A0
:103A7000EBF8FDF781FEFAE7583C00085B424F4F38
:103A8000545D20726573657420726561736F6E3A60
:103A90002025730D0A00000010B54FF49663002234
:103AA00002A106A0FCF770FE10BD00004D51545459
:103AB000434F4E4E3A302C310000000041542B4D04
:103AC000515454434F4E4E3F0000000003480088BD
:103AD000002801DD024870470248FCE7460000204C
:103AE000F4100020A800002010B51948FFF7F2FBE1
:103AF00000224FF400511748FEF7D0FA4FF400109F
:103B0000154908604FF41670FEF70CF92020124991
:103B10000860FCF71FFF002010490870104908706A
:103B20001049087001201049087000200F490860F2
:103B30000F49086040F698000E49086001200649C8
:103B40000860FDF7CFFE0CA0FFF7C4FB10BD00001E
:103B5000903D000800200140100C0140260000208C
:103B6000270000202500002044000020380000200D
:103B7000400000203C0000203E3E3E205B5245437A
:103B80004F4E4E4543545D2046554C4C20434841D2
:103B9000494E2072656275696C6420444F4E452021
:103BA0004F4B0D0A0D0A000000000000000000004D
:103BB00001020304060708090000000001020304D3
:103BC00002030405060708090A0B0C0D0E0F10105E
:103BD000010200404040404040404040414141419E
:103BE00041404040404040404040404040404040D4
:103BF00040404005020202020202020202020202E8
:103C00000202022020202020202020202002020268
:103C100002020202909090909090101010101010DC
:103C200010101010101010101010101010100202B0
:103C3000020202028888888888880808080808081C
:103C40000808080808080808080808080808020200
:103C500002024000D33B00080D0A2D2D2D204368A1
:103C6000617267696E672050696C65204D515454CC
:103C70002044656D6F202853544D33324631303324
:103C80005A45202B2045535038323636204D51545A
:103C9000542D415420314D4229202D2D2D0D0A4502
:103CA00064697420455350383236362F6273705F22
:103CB000657370383236365F746573742E6820749D
:103CC0006F206368616E67653A20576946692053C3
:103CD0005349442C206465766963652049442C204F
:103CE0004D5154542062726F6B65722E0D0A0000A4
:103CF000756E6B6E6F776E005B5741524E5D20554F
:103D000053415254332052582064726F707065646E
:103D100020256C7520627974652873292073696E7B
:103D2000636520626F6F7420284154206275666657
:103D300065722066756C6C290D0A00000D0A4D51E4
:103D4000545420434F4E4E43464720286578706CAC
:103D500069636974206B656570616C6976653D3671
:103D6000307320636C65616E3D747275652070659B
:103D70007220646F6320C2A7322C20332066616CEE
:103D80006C6261636B2073796E746178290D0A002F
:103D90000D0A0D0A3E3E3E205B5245434F4E4E45B6
:103DA00043545D205761746368646F67207472695F
:103DB0006767657265642046554C4C20434841490D
:103DC0004E2072656275696C64202E2E2E2E2E2E6A
:103DD0000D0A00004177616974696E67204D515486
:103DE00054206F6E6F666620636F6D6D616E6473D5
:103DF000202876616C75653D302073746172742083
:103E00002F2076616C75653D322073746F70292E9A
:103E10002E2E2E2E2E0D0A000D0A5B4845414C54C5
:103E2000485D204D515454204E4F54204F4E4C4924
:103E30004E452E206661696C3D25752F25752E2017
:103E400054727920717569636B207265636F6E6E51
:103E50006563742E2E2E0D0A000000000D0A5B46CD
:103E60004154414C5D204154207465737420464197
:103E7000494C45442031302074696D6573212043DD
:103E80006865636B6C6973743A0D0A2020312920D0
:103E900045535038323636203350206A756D706580
:103EA000727320575F52582F575F54582F575F3304
:103EB000563320706C756767656420636F72726536
:103EC00063746C793F0D0A20203229204553503805
:103ED00032363620666C6173686564207769746871
:103EE000204D5154542D4154206669726D77617292
:103EF00065202841542B474D52203E3D20322E3222
:103F00002E78293F0D0A2020332920332E335620C6
:103F10007261696C20737461626C653F20416464F6
:103F20002031303075462B302E3175462064656364
:103F30006F75706C696E6720636170732E0D0A0077
:103F40000D0A5B5741524E5D204448543131207375
:103F5000616D706C65204641494C45442E20557377
:103F600065206C61737420636163686564206D65AE
:103F70007465722076616C75657320666F7220724D
:103F800065706F72742E0D0A000000000D0A0D0A94
:103F90003D3D3D3D3D3D3D3D3D3D3D3D3D3D3D3D51
:103FA0003D3D204348415247494E472050494C45EA
:103FB000204D5154542053544152545550203D3DAE
:103FC0003D3D3D3D3D3D3D3D3D3D3D3D3D3D3D3D21
:103FD0000D0A0D0A5B5769466920535349445D2019
:103FE0003A2025730D0A5B44657669636520494470
:103FF0005D203A2025730D0A5B42726F6B65725D1E
:10400000202020203A2025733A25640D0A3D3D3DAD
:104010003D3D3D3D3D3D3D3D3D3D3D3D3D3D3D3DD0
:104020003D3D3D3D3D3D3D3D3D3D3D3D3D3D3D3DC0
:104030003D3D3D3D3D3D3D3D3D3D3D3D3D3D3D3DB0
:104040003D3D3D3D3D3D3D3D3D3D3D0D0A000000BA
:104050000D0A5B5741524E5D20434F4E4E4346473B
:10406000204641494C4544202D3E2066616C6C69D8
:104070006E67206261636B20746F20646566617592
:104080006C747320286B613D363020636C65616E03
:104090003D747275652039352525206D617463681E
:1040A00020C2A732292E0D0A0D0A00000D0A5B4D11
:1040B00051545420434D445D206F6E6F66663D320F
:1040C000202D3E2053544F50206368617267696E03
:1040D000672C206261636B20746F2069646C6520BB
:1040E000284C454432204F4646290D0A0000000066
:1040F0005B4D51545420434F4E4E5D204641494C38
:1041000045442120436865636B6C6973743A0D0AFA
:10411000202031292053616D652057694669204C64
:10412000414E2061732050433F20426F61726420F2
:104130006D7573742070696E67203139322E313697
:10414000382E382E39370D0A2020322920504320AE
:10415000546573742D4E6574436F6E6E6563746938
:104160006F6E203139322E3136382E382E393720C5
:104170002D506F72742031383833203D3D20546308
:104180007054657374537563636565646564203A40
:1041900020547275650D0A2020332920454D515851
:1041A00020617574683A20757365723D6368617249
:1041B0006765202F20706173733D3132333435369B
:1041C00020286F7220616E6F6E796D6F7573206538
:1041D0006E61626C6564290D0A2020342920436CCD
:1041E00069656E74494420756E6971756520286E25
:1041F0006F206F74686572206465766963652061FD
:104200006C726561647920636F6E6E65637465645A
:104210002061732073696D2D70696C652D2573297C
:104220000D0A00000D0A5B4D515454205553455260
:104230004346475D20382D706172616D2056322EE5
:10424000322E782073796E74617820617474656D94
:1042500070743A20636C69656E745F69643D2573A0
:1042600020736368656D653D31202854435020708C
:104270006C61696E74657874290D0A000D0A5B4DD6
:1042800051545420524543565D2054435020636C92
:104290006F7365642E204D515454206C696E6B20F1
:1042A000646F776E202877616974696E6720666F26
:1042B00072206D61696E206C6F6F70207265636F24
:1042C0006E6E656374292E0D0A0000005B4D51541B
:1042D0005420555345524346475D20382D70617236
:1042E000616D2070617468204641494C4544202D21
:1042F0003E2066616C6C6261636B20746F20332DAD
:1043000073657061726174652D636F6D6D616E644C
:10431000732028434C49454E5449442F5553455228
:104320004E414D452F50415353574F5244292E2E45
:104330002E0D0A005B4D515454205355425D2053BD
:10434000554231206672616D6520616C72656164F1
:104350007920636F6E7461696E73202B4D515454D4
:10436000444953434F4E4E45435445442E204573D4
:1043700063616C61746520746F2075707065722064
:104380007265636F6E6E65637420706174682E0D64
:104390000A0000005B4D515454205355425D207477
:1043A0006F7069633120676F74204552524F5220FD
:1043B000627574206C696E6B207374696C6C204F2D
:1043C0004E4C494E452E205265747279206F6E63B3
:1043D0006520616674657220736574746C65206411
:1043E000656C61792E0D0A005B4D51545420535574
:1043F000425D20746F7069633220676F742045528C
:10440000524F5220627574206C696E6B2073746910
:104410006C6C204F4E4C494E452E2052657472797B
:10442000206F6E63652061667465722073657474B5
:104430006C652064656C61792E0D0A000D0A5B4D78
:1044400051545420524543565D206F6E6F6666206E
:1044500076616C75653D256420696E76616C696472
:1044600020286F6E6C7920302F3220616C6C6F7752
:10447000656429202D3E207265706C792066616923
:104480006C0D0A007B2274797065223A2272657085
:104490006C79222C226E616D65223A226F6E6F66F6
:1044A00066222C2276616C7565223A25642C227274
:1044B0006573756C74223A222573222C226964225A
:1044C0003A222573227D00007B2263757272656E2D
:1044D000745F706F776572223A256C752C22637554
:1044E0007272656E745F766F6C74616765223A25CF
:1044F0006C752C2263757272656E745F637572726F
:10450000656E74223A256C752C226F6E6F6666227A
:104510003A25757D000000003845000800000020A5
:1045200054000000903300088C450008540000201F
:10453000C41C0000A03300080024F40000000000A8
:10454000100000000100000000000000F03C000826
:10455000000000000000000000000000000000005B
:10456000000000000000000000000000000000004B
:10457000000000009808000000000000010000009A
:0C4580000000000000000000000000002F
:0400000508000131BD
:00000001FF
